:020000040001F9
:10600000583E002079610100936101009561010013
:106010000000000000000000000000000000000080
:106020000000000000000000000000009761010077
:106030000000000000000000996101009B61010068
:106040009D6101009D6101009D6101009D61010054
:106050009D610100000000009D6101009D61010043
:106060009D6101009D6101009D6101009D61010034
:106070009D6101009D6101009D6101009D61010024
:106080009D610100E56301009D6101009D610100CA
:106090000D6401009D610100156401009D61010016
:1060A0009D6101009D6101000000000000000000F2
:1060B00000000000000000000000000000000000E0
:1060C0000348854600F000F900480047818601003A
:1060D000583E0020401E00BF00BF00BF00BF00BFF1
:1060E00000BF00BF00BF00BF00BF00BF00BFF1D1B5
:1060F00070470000401E00BF00BF00BF00BF00BFD0
:1061000000BF00BF00BF00BF00BF00BF00BFF1D194
:1061100070470000401E00BF00BF00BF00BF00BFAF
:1061200000BF00BF00BF00BF00BF00BF00BFF1D174
:1061300070470000056885F3088846680A4AEFF34F
:1061400005839A42304602D1084CA6463047074C98
:10615000064D0646064FF0B4034C034D024E024F67
:10616000F0B404480047000000000000FFFFFFFFFC
:1061700000000021F9FFFFFF0321094802680A43DC
:106180000260084802680A430260074880470748DF
:106190000047FEE7FEE7FEE7FEE7FEE7FEE700005A
:1061A00024050040540500404D640100C160010019
:1061B00030B50B46014600202022012409E00D469F
:1061C000D5409D4205D31D469540491B2546954027
:1061D00040191546521E002DF1DC30BD70B500246B
:1061E0002546002801DA01244042002901DA012570
:1061F0004942FFF7DDFFAC4200D04042002C00D006
:10620000494270BD10B5431A934209D283188818C9
:1062100003E0401E01785B1E1970521EF9D210BDBA
:1062200003460B439B0703D009E008C9121F08C0AF
:10623000042AFAD203E00B780370401C491C521E5A
:10624000F9D210BDD2B201E00270401C491EFBD24F
:1062500070470022F6E710B513460A460446194671
:10626000FFF7F0FF204610BDF0B51FB40646002032
:1062700082B005464024019100901BE0019922461E
:106280000F46304600F042F8049A059B801A994167
:1062900010D310461946224600F028F8361A8F41CE
:1062A0000197224601200021009F00F01FF83818B6
:1062B0004D4100902046641E0028DFDC019B0098C1
:1062C0002946324607B0F0BD064C0125064E05E0D2
:1062D000E36807CC2B430C3C98471034B442F7D307
:1062E000FFF7F2FEA0A30100C0A3010010B5202A11
:1062F00004DB0146203A9140002010BD914020234C
:106300009C1A0346E3401943904010BD10B5202A63
:1063100004DB0846203AD040002110BD0B46D34094
:10632000D0402024A21A91400843194610BD000015
:10633000C206D20E01219140014A1160704700004F
:1063400080E200E0C206D20E01219140014A1160B4
:106350007047000000E100E0C206D20E012191402A
:10636000014A11607047000000E200E010B500280B
:1063700019DA1A4A03071B0F083B9B089B00D258E7
:106380008307DC0EFF23A3409A438B071B0E840771
:10639000E40EA3401A43114B0407240F083CA40841
:1063A000A4001A5118E00E4A03231B02D2188308D6
:1063B0009B00D2588307DC0EFF23A3409A438B0730
:1063C0001B0E8407E40EA3401A43054B032424024A
:1063D0001B198408A4001A5110BD00001CED00E038
:1063E00000E100E010B500200749086000210648E0
:1063F00041608160C1600020034940390860486005
:1064000003F012FE10BD00004011014010B503F072
:10641000BBFC10BD70B50C480068002810D00A48BD
:1064200000688047044600BF2546002D06D000BF07
:1064300000221146284600F0C5FA00BF00BF01E067
:1064400001F034FF70BD0000D420002010B501F031
:10645000DFFF002805D0074807494860C8130749EF
:10646000886101F0B9FF002802D00120044988604A
:1064700010BD0000DFFF07C000050040006C0040B9
:10648000000600400FB410B504A9074B02AA0398F8
:1064900000F02AF8044602A9002000F093F92046F3
:1064A00010BC08BC04B01847C567010030B474467E
:1064B000641E2578641CAB4204D3635D5B00E31863
:1064C00030BC18471D46F8E702E008C8121F08C193
:1064D000002AFAD170477047002001E001C1121F65
:1064E000002AFBD170470000FFB58FB00F4604466D
:1064F000002606E025280AD0129A11999047641CBC
:10650000761C20780028F5D1304613B0F0BD002568
:106510000121A14A009500E00543641C2378084648
:10652000203B98401042F7D120782E2815D1042026
:1065300005436078641C2A280AD101CF641C0090AE
:106540000BE000990A22514330394018641C009036
:106550002078014630390929F3D920786C280ED0EB
:1065600004DC4C2813D06A2812D104E074280ED021
:106570007A280DD10BE001204005054307E00121F9
:10658000090562780D43824201D16D18641C641CB8
:106590002078864669284AD008DC0028B4D05828DC
:1065A0006DD0632810D0642808D140E070286BD0EB
:1065B000732812D0752860D0782860D0129A70465F
:1065C00011999047761CE5E03878694608720020FA
:1065D000487202A80190012003E038680190002071
:1065E000C0433F1D69070CD5002500E06D1C0099D4
:1065F0008D420FDA8542F9DB0199495D0029F5D119
:1066000008E0002500E06D1C8542FCDB0199495D36
:106610000029F8D1761907E0019801990078491C02
:106620000191129A119990476D1EF5D2B2E00A209D
:10663000029000216802400F039102280CD001CF84
:10664000C117844600290DDA6246084652420021ED
:10665000814194462D2008E0FF1DFF08FF0003CF75
:106660008446EFE7280504D52B206A4610740120E4
:106670003CE0E8073AD02020F7E70A2000E01020AD
:1066800000210391029007E01020029000210420D5
:1066900005430820039100906802400F022810D0A3
:1066A00001CF0021844600200D9028071FD5704699
:1066B00070280CD0029A1020039B42401A430CD041
:1066C00015E0FF1DFF08FF0003CF8446EBE74020E5
:1066D0006A46107401200D900CE06046084306D015
:1066E00030206A4610747046507402200D90704637
:1066F000582804D029A001900DA80E900DE02CA0E0
:10670000F9E76046039B029AFFF7AEFD019B8446C2
:106710009B5C0E9A521E0E92137060460843F0D195
:106720000E9805A9081A20300190680701D5009835
:1067300001E0012000900199884203DD01460198A3
:10674000081A00E000200025009006E004A8129A34
:10675000405D119990476D1C761C0D988542F5DBC4
:1067600004E0129A302011999047761C0099481E37
:1067700000900029F5DC08E00E980E990078491C7D
:106780000E91129A11999047761C0199481E01901A
:106790000029F1DC641CB4E60928010030313233F1
:1067A000343536373839616263646566000000004D
:1067B0003031323334353637383941424344454637
:1067C000000000000A68531C0B6010707047F8B599
:1067D00004460F4616460025002030702078002819
:1067E00009D032463946204601F0D5FF0546002D36
:1067F00001D02846F8BDA078002808D03146384698
:1068000000F0A2FA0546002D01D02846F2E7A08844
:1068100000280ADD33463A460121201D03F0E4FC3E
:106820000546002D01D02846E4E7E06800280BD09B
:106830000020E16808563246394603F0A5FC0546BB
:10684000002D01D02846D5E7208A00280CDD3B46E4
:106850000622022120461030009603F017FD05465F
:10686000002D01D02846C5E7208B00280CDD3B46D3
:106870000722032120461830009603F007FD054645
:10688000002D01D02846B5E7208C00280CDD3B46C2
:106890001522142120462030009603F0F7FC05460F
:1068A000002D01D02846A5E7A06A002809D032466D
:1068B0003946A06A01F0D0F80546002D01D02846DF
:1068C00098E7E06A002809D032463946E06A01F0CC
:1068D0002DFF0546002D01D028468BE73420005DB2
:1068E000002809DD32463946204602F021FF0546E0
:1068F000002D01D028467DE728467BE701468888A1
:10690000002808D08868002805D08868007804220C
:106910001040002801D1072070470020FCE700004C
:1069200030B593B00520019000BF012000BF382191
:1069300005A8FFF78EFC5921684601811821818145
:106940000D4904910121018301A9079102A810902A
:10695000002105A800F0E2FB044600BF2546002DFB
:1069600006D000BF00221146284600F02BF800BFD9
:1069700000BF13B030BD00009821002070B508485A
:1069800073DF044600BF2546002D06D000BF00225D
:106990001146284600F016F800BF00BF70BD000089
:1069A0007021002070B574DF044600BF2546002D1D
:1069B00006D000BF00221146284600F003F800BFB1
:1069C00000BF70BD00BFBFF34F8F04480449C860CB
:1069D000BFF34F8F00BF00BFFEE700000400FA05C1
:1069E00000ED00E0F8B5044617480078142148434C
:1069F0001549091D0E5C081F0078142148431249EF
:106A0000091D40188068000110490D580E48007893
:106A1000142148430C49091D40184088091F009063
:106A2000097814225143084A121D89180B69111F55
:106A3000097814225143044A121D89180846083067
:106A400022463146A847F8BD202F0020EC2F002019
:106A5000F8B505460E461746052000901148007807
:106A60001149097888421BD00F480478007801F05A
:106A7000DDFE0D4908700D48008860430C49096827
:106A800040182860E0000B49096840188088308071
:106A9000E00008490968085838600020009000BFED
:106AA0000098F8BD9520002094200020962000201A
:106AB000902000208C2000200EB504E068468188DC
:106AC000009A029890476A4601A902A8FFF7C0FF02
:106AD0000028F3D00EBD000030B50346481CC004AA
:106AE000040C10468507AD0F002D01D1012500E0F3
:106AF0000025002D01D1072030BD08480260101983
:106B0000074D28600020074D2870074D2870074862
:106B10000380074801800020EEE700008C20002061
:106B20009020002095200020942000209620002016
:106B30009820002070B503460C46194800680028CC
:106B400001D1082070BD002A01D10720FAE7002BEF
:106B500001D10720F6E700211CE024204843104D16
:106B60002D68285C002814D10125242048430C4EB0
:106B70003668355424204843094D2D684019447027
:106B800024204843064D2D68401982611960002079
:106B9000D8E7491C034800788142DEDB0420D1E7B6
:106BA000A02000209C200020FFB581B00E46174693
:106BB0001C4620468107890F002901D1012100E0F0
:106BC0000021002902D1072005B0F0BD002C01D121
:106BD0000720F9E702F03AFB26490A9808602648A0
:106BE00006702648046000250CE00021242068433C
:106BF000224A1268115424206843204A12688018DF
:106C000001756D1CB542F0DB24207043041903208C
:106C10001B4908701B480460183400250CE0E9008B
:106C2000184A12688818002101704170877044600A
:106C3000182179430C196D1C032DF0DB0020C04393
:106C4000114908600020114908701149087014208A
:106C5000FFF76EFB03211420FFF788FB1420FFF7DA
:106C600071FB019802F0C8FA02F0C0FA0949086005
:106C70000020A9E7C02000209C200020A0200020A8
:106C8000A4200020A8200020AC200020BC20002050
:106C9000BD200020B0200020FEB504460D4616465B
:106CA00016480068002801D10820FEBD144800786D
:106CB000844201D2052D01D20720F6E7242060434B
:106CC0000E490968085C012801D00820EDE724205E
:106CD00060430A49096840184078012801D12846D4
:106CE00000E00020074603F0A8FA3B462A4621466A
:106CF0000096019003F04EF9D7E70000A020002095
:106D00009C20002070B504460D480068002801D181
:106D1000082070BD0B480078844201D30720F8E7B3
:106D20002420604306490968085C012801D0082036
:106D3000EFE703F082FA0546214603F055F9E8E74C
:106D4000A02000209C200020F8B505460C462078A5
:106D5000001D1F2801DD0C20F8BD684679DF0646BE
:106D6000002E01D03046F7E703212278501C207016
:106D7000A95419212278501C2070A9542078411957
:106D80006846008803F01EFA217840182070002021
:106D9000E2E7000070B50022134914480068FFF7CD
:106DA0007BFF044600BF2546002D06D000BF002211
:106DB00011462846FFF706FE00BF00BF002205214E
:106DC000C9030B480068FFF767FF044600BF25466C
:106DD000002D06D000BF002211462846FFF7F2FD25
:106DE00000BF00BF70BD00008F020000182000200F
:106DF0001C20002070B511480068FFF783FF04468F
:106E000000BF2546002D06D000BF002211462846AF
:106E1000FFF7D8FD00BF00BF09480068FFF772FF09
:106E2000044600BF2546002D06D000BF00221146B3
:106E30002846FFF7C7FD00BF00BF70BD1C20002023
:106E400018200020F0B591B004460D463420005DB6
:106E5000002819D00020099000BF08A80079010976
:106E60000901491C08A801710079F02188431030FC
:106E700008A9087100BF697B08A8417180790621C3
:106E80008843801C08A988711C210AA8FFF7E1F932
:106E900008A8007A02218843811C08A80172007AA0
:106EA000102188433421095D002901D0012100E02F
:106EB0000021090110221140084308A9087200208E
:106EC0000B900D900E903420005D002801D009A891
:106ED00000E000200F900020109000BF01216846C4
:106EE00081736C49818100BF00200290A97B6846B4
:106EF0000172E97B4172807A06218843811C6846D1
:106F00008172807A08218843014668468172807ABE
:106F100010218843014668468172807A4108490001
:106F200068468172287B0190142104A8FFF791F92B
:106F300003A8049002A8059004216846018300215B
:106F400041830421818300200890A088A31D04AA06
:106F50000AA9A2DF064600BF0121684681734D4998
:106F6000C91C818100BF03A80490A08823460E336A
:106F700004AA0AA9A2DF064600BF01216846817360
:106F800044493131818100BF03A80490A088234681
:106F9000163304AA0AA9A2DF064600BF01216846EB
:106FA00081733C49091D818100BF03A80490A0881A
:106FB0002346263304AA0AA9A2DF064600BF012100
:106FC0006846817333491139818100BF03A8049059
:106FD000A08823461E3304AA0AA9A2DF0646002E73
:106FE00002D0304611B0F0BDA86800284DD000BFD7
:106FF0000121684681732849818100BF00200290E9
:10700000287C6946087200BF6846407A0109090178
:1070100068464172407AF02188436946487200BF51
:107020006846807A06218843811C68468172807A8E
:1070300008218843014668468172807A102188437E
:10704000014668468172807A41084900684681722B
:10705000A96800F0DFF90746142104A8FFF7F9F842
:1070600003A8049002A80590684607830021418385
:10707000018B81830890E08822462E3204A9A3DF89
:107080000646002E03D03046ACE70020E085002005
:10709000A8E70000192A00000829000070B504467E
:1070A000042C01D1102400E040240020164948603F
:1070B000200208210843154948600120086014494E
:1070C0000860002013490860002501E0681CC5B273
:1070D00010480068002801D1FF2DF7DB00200D4982
:1070E000086001200A494860002008490860896852
:1070F0004B22120151430846FF21FFF759F8410086
:1071000040180549088070BD0073004000750040BC
:10711000007000400071004040200020F3B593B0A3
:107120000D460021129111911398002814D0139844
:10713000FFF7E4FB0446002C02D0204615B0F0BD5A
:1071400012AA09A91398FFF742FB0446002C01D0AC
:107150002046F3E709AE00E00026002D13D02846B4
:1071600002F0A4FC0446002C01D02046E6E711AA58
:1071700001A92846FFF72BFB0446002C01D020462E
:10718000DCE701AF00E0002710A803793A46017A56
:10719000304672DFD2E70000F8B504460D46286895
:1071A00020600020C0436086297934200155FF21EA
:1071B0003020015500BF01216846817008490180D7
:1071C00000BF221D69460120A0DF0646002E01D027
:1071D0003046F8BD29462046FFF734FEF9E70000A7
:1071E0001118000010B502480068FFF78BFD10BDB4
:1071F0005C20002070B586B004460E46002C04D0FA
:10720000002E02D07068002802D10E2006B070BD9A
:107210000020C0432080204B0FCB01AD0FC51F487D
:1072200069468882163101A863DF0546002D01D02A
:107230002846EBE7221D05A90120A0DF0546002D09
:1072400001D02846E2E76846807DA071204600F024
:1072500059FD0546002D01D02846D7E7204600F00D
:10726000E1FC0546002D01D02846CFE731462046F7
:1072700000F0B2FD0546002D01D02846C6E7706833
:10728000A062B068002801D0B068E0620120044923
:1072900008700020BAE7000090A30100301500003C
:1072A0006120002070B505460C46002D01D0002C51
:1072B00000D170BDA86A00281FD02088102806D0F1
:1072C00011280ED0502807D0512814D10EE02146A5
:1072D000284601F061FB0FE02146284601F04AFCF8
:1072E0000AE02146284601F001FC05E02146284637
:1072F00001F000FC00E000BF00BF00BFD9E70000C4
:1073000070B586B004460D461646002C02D10E20FC
:1073100006B070BD20881A49884203D01948007809
:10732000002801D10820F3E70021019110216846CF
:107330008288501C83B21448019381546846818826
:10734000481C82B210480192455468468188481C06
:1073500082B20D480192465400200290039004909E
:107360000590218A68460181012181720021818175
:1073700001A8049004480590208802A9A6DFC7E769
:10738000FFFF0000612000206220002010B50446AD
:1073900021460348FFF786FF204601F0B9FA10BDE9
:1073A000C4290020F8B504460E46306820603079C4
:1073B00060710020C04320840021222001554C2010
:1073C000015300BF0121684681701149018000BF4F
:1073D000A21D69460120A0DF0546002D01D02846E8
:1073E000F8BD3146204600F08BFE0546002D01D049
:1073F0002846F5E7B068002808D03146204600F05E
:1074000079F80546002D01D02846E9E70020E7E796
:107410000D180000F8B505460E46002432782146C6
:10742000641C6A5472782146641C6A5400BF022CA2
:1074300001D1012000E000200746002F06D100BF47
:10744000002211461046FFF7BDFA00BF00BF2046DC
:10745000F8BD0000F8B500BF0023502222490820E3
:1074600002F01AFA054600BF2E46002E06D000BFD5
:10747000002211463046FFF7A5FA00BF00BF00BF4B
:10748000002000900090684660DF044600BF25465B
:10749000002D06D000BF002211462846FFF792FAC1
:1074A00000BF00BF114802F0EBF9044600BF2546BB
:1074B000002D06D000BF002211462846FFF782FAB1
:1074C00000BF00BF0A4802F01BFA044600BF254671
:1074D000002D06D000BF002211462846FFF772FAA1
:1074E00000BF00BFF8BD0000142D00208D73010007
:1074F000099D010030B58FB005460C461C2108A837
:10750000FEF7A7FE08A9087802218843801C08A975
:107510000870002009900B900C900D900E9000BF09
:107520000121684681721D49018100BF0020019040
:10753000E17B68460171217C417180790621884395
:10754000811C68468171807908218843014668461C
:107550008171807910218843014668468171807964
:107560004108490068468171142103A8FEF771FEA5
:1075700002A8039001A8049001216846818200219D
:10758000C18201210183A0680790E8882B4610334F
:1075900003AA08A9A2DF0FB030BD0000382A0000FE
:1075A00070B5214800688047B1203CDF044600BF29
:1075B0002546002D06D000BF002211462846FFF7C1
:1075C00001FA00BF00BF11DF044600BF2546002DB1
:1075D00006D000BF002211462846FFF7F3F900BF8E
:1075E00000BF1249486913DF044600BF2546002D3D
:1075F00006D000BF002211462846FFF7E3F900BF7E
:1076000000BF0B480078002801D000F0CFFA162008
:1076100001218140074A116000BF00F0A5FE034927
:10762000486900F009F870BDC82000200010001063
:10763000D020002080E200E010B504462046FEF78E
:1076400079FD10BD10B586B0142005901A48008849
:107650001A4988422DD01A480078002829D00020E5
:107660000190029003900490022105911548018930
:1076700068468180012181710021018105A8039064
:107680001148049001A90C480088A6DF0446002C8C
:107690000ED0082C0CD00D48844209D00C488442EE
:1076A00006D000BF002211462046FFF78BF900BF2D
:1076B00000BF06B010BD000010200020FFFF00003A
:1076C00014200020202100202C2000200430000065
:1076D00001340000F0B585B00F2758480078142118
:1076E00048435649091D4418E5682078022804D00B
:1076F000042823D005286FD16FE0206903905048FB
:10770000008886026088801B04900398801903908B
:10771000A08880194519012189020498884206D25F
:10772000049882082846039921DF074605E0FF22D6
:1077300001322846039921DF074676E0A068000160
:107740004049401800890490A06800014018408911
:107750000390A06800014018406802900298A84277
:1077600005D10399049848436188884202D0A068F3
:1077700065280DD101200007006981B22846FEF777
:1077800017FD2F4909884618304620DF074622E0BA
:1077900001200007006981B22846FEF709FD064670
:1077A00001200007006980B27043281A8008019008
:1077B00001200007006980B2711C484361884919A3
:1077C000401A8008009031462046009B019A02F042
:1077D00075F9074600BF28E026E001200007006990
:1077E00081B22846FEF7E4FC0646A0884119012034
:1077F0000007006980B27043081A80080490A088CE
:1078000040196188421801200007006980B2711C8C
:107810004843801A8008039031462046039B049A0F
:1078200002F04CF9074600E000BF00BF002F02D174
:10783000012002498870384605B0F0BD202F002095
:1078400088200020EC2F002010B500240648407846
:10785000002807DDFFF73EFF0446002C02D0112C64
:1078600000D10024204610BD202F00200023142129
:1078700041430C4A53541421414389184B806423DB
:107880001421414389188B60002314214143891836
:10789000CB601421414389180B611421414389189D
:1078A0008B807047242F0020FFB581B00646174615
:1078B0000024204840780A2837D01E4800781D4907
:1078C00049784018C4B20A2C02DB20460A38C4B2F8
:1078D000142060431749091D0E54142060434018BA
:1078E0000761142060434118029805C8CA60886087
:1078F000142060430F4A121D8018049941801420FF
:10790000604380180A9981800025101F8078002824
:1079100005D1FFF7DFFE0546112D00D100250548F2
:107920004078401C0349487000E00425284605B013
:10793000F0BD0000202F002010B50020084908806D
:10794000084908700849087048708870002403E0EE
:107950002046FFF78BFF641C0A2CF9D310BD0000F2
:10796000882000208B200020202F0020FEB51E48FC
:107970000068401C002834D01B480068242148437C
:107980001A4909684018456801F030FC0190184810
:1079900004682146019802F0D1F9C61C1548007808
:1079A000002801D101F034FCAE4201D2284600E0AB
:1079B000304604192402240A20460F49086000BFFB
:1079C00001F014FC00900199009802F0B7F9C71C6F
:1079D0002046019902F0B2F9874201D902F072FB08
:1079E00001E001F033FCFEBDAC200020A02000200F
:1079F000B0200020C4200020401501400146088826
:107A0000062808DB08881922D201904205DD088883
:107A1000104A904201D0072070474888062808DBAA
:107A200048881922D201904205DD4888094A9042CF
:107A300001D00720F0E70888064A904208D048881D
:107A4000904205D008884A88904201DD0720E3E78C
:107A50000020E1E7FFFF0000F8B506460D4614469A
:107A60002078801D1F2801D90C20F8BD3046FFF773
:107A7000C5FF0746002F01D03846F6E705212278DA
:107A8000501C2070A95412212278501C2070A95437
:107A900022785119308802F095FB21784018207027
:107AA00022785119708802F08DFB217840182070DF
:107AB0000020DAE710B514210648FEF7CAFB0020C3
:107AC0000449087048600872192080010882052066
:107AD000488210BD7021002010B50446FFF7B2FDAA
:107AE00010BD000010B514484068C105C90D00293B
:107AF00020D00A46103A50B200280DDA0E4B1C3343
:107B00000407240F083CA408A4001B598407E40EB2
:107B1000E3401B069B0F0BE0084B032424021B19B8
:107B20008408A4001B598407E40EE3401B069B0F46
:107B3000D8B210BD0420FCE700ED00E000E100E059
:107B4000F8B506460C4620780300FEF7AFFC0A069F
:107B50000D0E0A0B0C10110F1209FFF721FD1BE08F
:107B600000BF00BF00BF00BF00BF00BF00BF00BF1D
:107B700000BF032201213046FFF7C2FB054600BFCC
:107B80002F46002F06D000BF002211463846FEF7D0
:107B900019FF00BF00BF00BF00BFF8BD7047000065
:107BA0000149086070470000C820002030B587B048
:107BB00001A91A4800F07CF9044600BF2546002DB3
:107BC00006D000BF002211462846FEF7FBFE00BF8C
:107BD00000BF05980146103107221148FEF712FB3D
:107BE00014220F4824380499FEF70CFB10220C488D
:107BF00010380599FEF706FB0948243800DF0446D3
:107C000000BF2546002D06D000BF002211462846A1
:107C1000FEF7D8FE00BF00BF07B030BDCC2000206B
:107C20005036002010B58EB004461C2107A8FEF780
:107C300010FB6846007F0821884341186846017799
:107C4000007F102188434118684601770020089082
:107C50000A900B900C900D90A1796846817128498B
:107C600081800020009000BF68460078010909016A
:107C7000684601700078F02188436946087000BFAB
:107C800000BF6846407801090901491C68464170F7
:107C90004078F021884310306946487000BF68463C
:107CA000807806218843811C68468170807808218D
:107CB00088430146684681708078102188434118C6
:107CC00068468170807841084900491C6846817087
:107CD000142102A8FEF7BDFA01A80290684603909D
:107CE0000021018241821721818200200690A08814
:107CF0002346103302AA07A9A2DF0EB010BD000070
:107D00003115000010B58EB004461C2107A8FEF7FF
:107D1000A0FA6846007F04218843011D6846017768
:107D2000002008900A900B900C900D90A179684665
:107D30008171284981800020009000BF684600784A
:107D400001090901684601700078F02188436946FD
:107D5000087000BF00BF6846407801090901491C4E
:107D6000684641704078F021884310306946487079
:107D700000BF6846807806218843811C6846817070
:107D800080780821884301466846817080781021F8
:107D90008843014668468170807841084900491C43
:107DA00068468170142102A8FEF753FA01A80290D8
:107DB00068460390002101824182142181820020C3
:107DC0000690A0882346083302AA07A9A2DF0EB0B6
:107DD00010BD00003215000030B58FB004460D46CE
:107DE0001C2108A8FEF735FA08A80078022188436C
:107DF000811C08A80170002009900B900C900D9038
:107E00000E90A17968468172284901810020019075
:107E100000BF6846007901090901491C68460171E3
:107E20000079F021884310306946087100BF00BF17
:107E30006846407901090901684641714079F0219D
:107E400088436946487100BF6846807906218843A7
:107E5000811C684681718079082188430146684603
:107E6000817180791021884301466846817180794B
:107E700041084900491C68468171142103A8FEF796
:107E8000E8F902A8039001A80490022168468182C3
:107E90000021C182022101830795A0882346203357
:107EA00003AA08A9A2DF0FB030BD000034150000FE
:107EB000024600BF21480078002801D120487047C1
:107EC00000BF002A02D11E48801DF8E7002902D118
:107ED0001B48801DF3E700BF1078012806DA1078F0
:107EE0000C235843174B1858002801D11448E6E7D3
:107EF00000BF00BF9078072807DA90781C2358430A
:107F0000114BC018807EFF2802D10D480830D6E7FB
:107F100000BF5078182358430C4BC018001DC86090
:107F200090781C235843084BC3180B6100234B6106
:107F3000002048608860086000BFC0E7782000200B
:107F400008800000142F0020142E0020D82E0020BE
:107F5000014614480078144A127890421DD0114806
:107F60000078401C0F4A107010460078022801D19A
:107F7000002010700B48007880000C4A10580860F0
:107F80000B4A086812688018094A10601046006899
:107F90000002000A1060012070470020086000BF46
:107FA000FAE70000BC200020BD200020B420002003
:107FB000B020002070B5049C044E45683668B54278
:107FC00002D10025024E357070BD00003420002023
:107FD00031200020F0B50346002426E0164E366816
:107FE00024277E43154F3F68F01946689E4203D907
:107FF0004668F61A46601DE046689B1B46683419C1
:108000000026466006750C4E35680B4F066A3E60CA
:108010000669002E08D00E193602360A86600669F7
:10802000C66016680662156000BF03480068401C01
:108030000028D3D100BFF0BDAC200020A02000203C
:1080400030B58FB000BF08A8007C01090901491CA8
:108050000C9108A8007CF021884310300C9000BFE0
:1080600004A871DF6846407C04A9897804AAD27804
:1080700004AB1B79009301920291039004A8437909
:10808000827919A106A8FEF7FDF9172206A90CA806
:108090007CDF044600BF2546002D06D000BF00222D
:1080A00011462846FEF78EFC00BF00BF00200D9051
:1080B0000E90102168468186C18600210187FF212C
:1080C000913141870DA87ADF044600BF2546002D77
:1080D00006D000BF002211462846FEF773FC00BF01
:1080E00000BF0FB030BD00004353544E45545F35C0
:1080F000544D2D2578257825782578257825780004
:1081000030B595B005460C4600200D9000BF08A87C
:10811000007D01090901491C08A80175007DF021B5
:108120008843103008A9087500BF217B08A8417555
:10813000807D06218843811C08A881751C210EA81A
:10814000FEF787F808A8007E10218843103008A9A0
:10815000087600200F90119012900DA81390002027
:10816000149000BF0121684681772049818300BFB8
:1081700000200690617B68460176A17B4176807E77
:1081800006218843811C68468176807E08218843C9
:10819000014668468176807E102188430146684604
:1081A0008176807E41084900491C68468176142109
:1081B00008A8FEF74EF807A8089006A8099001AA9B
:1081C0000021284600F014F8014668460185002188
:1081D00041851421818501A80C90E8882B4608333D
:1081E00008AA0EA9A2DF15B030BD0000372A000092
:1081F000F7B582B00446174600200190012560794A
:10820000002803D004210198084301902220005D3A
:10821000002803D002210198084301900398FF2809
:108220000ADD01210198084301907919039801F0B2
:10823000D2FF4019C5B205E00398C2B22846691CB6
:10824000CDB23A544C20005B002803DD1021019888
:1082500008430190002618E0A81C14280BD94C20D4
:10826000005B801B4200700023462433C11818466F
:10827000FDF7C8FF0DE07919720023462433985AA0
:1082800001F0A9FF4019C5B2761C4C20005BB0423A
:10829000E2DC00BF4C20005B801B81B24C2001530C
:1082A00001983870284605B0F0BD0000F8B529489F
:1082B0000078002800D1F8BD27480068002801D1C7
:1082C000012000E00020054624480068002801D174
:1082D000012000E00020064600BF002D14D16846B2
:1082E00051DF0446052C01D101250CE0002C06D0FD
:1082F00000BF002211462046FEF764FB03E016494A
:1083000000980968884700BF002E1AD114480088D9
:10831000009069461348006861DF0446052C01D1CE
:1083200001260DE0002C06D000BF00221146204699
:10833000FEF748FB04E00B480068084909688847D5
:1083400000BF002D02D0002E00D000E0C5E700BF26
:1083500000BFB0E7DE200020E4200020E020002065
:10836000DC200020D820002010B500200A490A682F
:108370000FE0012181401140002909D041B2CC0613
:10838000E40E0123A340044C8034236000BF00BFEF
:10839000401C2028EDD310BD00E100E0FEB50446EE
:1083A00002200190A08A6B4601AA0021A5DF0546A4
:1083B000002D07D0E06A002802D02846E16A8847ED
:1083C0000020FEBD6E46304601F0F6FE0746F80777
:1083D000C00F00BFF5E700000C48008CC0B20128B8
:1083E00012D10A48808C0007000F00280CD10748E2
:1083F000806AF0210840402806D10448C06A08403D
:10840000002801D1012070470020FCE7C00F00F0D8
:108410001948008CC0B201282CD11748808C000765
:10842000000F002826D11448806AF0210840002857
:1084300006D11148C06A0840002801D101207047C8
:108440000D48806AF0210840102806D10A48C06A09
:108450000840002801D10120F1E70748806AF02197
:108460000840302806D10448C06A0840002801D1DD
:108470000120E4E70020E2E7C00F00F00146880792
:10848000800F002801D1012070470020FCE7000088
:10849000FEB52B48006801902A480078009040E023
:1084A0000098C000284909684418257835E018204C
:1084B000684361680F18681CC5B2A078A84200D153
:1084C00000253878022802D0032823D10EE0242189
:1084D000786848431D4909684618307D002804D053
:1084E000786801F0F1FC0020307514E00CE01449CC
:1084F000096824225143154A126888180021017521
:108500000F4A016A116000BF0D480068401C002836
:10851000EDD100E000BF00BF00BF6078A842C6D127
:1085200000BF0098411EC9B200910028B8D104488C
:1085300001680198814201D00120FEBD0020FCE7C6
:10854000AC200020A4200020A8200020A020002093
:10855000FEB5074643480068029043480078019002
:1085600071E00198C00041490968451863E0781C32
:10857000002807D03E46242070433D49096844182E
:10858000276A29E02978182359436A6850182978FE
:10859000491C29702978AA78914201D100212970BB
:1085A000466824217143324A12688C1801780129E7
:1085B00002D1217D002900D03DE08168A160C16821
:1085C000E160016921614169E1612A490978002975
:1085D00001D00021A16000BF2749A0680968401AA6
:1085E0000002000A2549884208D22349A068096888
:1085F00001F0A4FBE1684018606011E01E48A1682A
:10860000006801F09BFB0090E1680098814204D96A
:10861000E1680098081A606001E00020606000BF17
:108620000020A060E06001202075801E206230469E
:1086300001F0DCFB00BF781C002898D1287869780D
:10864000884294D100BF0198411EC9B2019100280F
:1086500087D1044801680298814201D00120FEBD03
:108660000020FCE7AC200020A4200020A82000204F
:10867000A0200020C5200020B0200020FFFF7F00A8
:108680001CB500BF142000F007F900221146104667
:1086900001F042F91E490860B9201E4908701E4BBE
:1086A0000A4601211A48006801F0B8F91B48052163
:1086B0000907072212028918486301F009FDFEF735
:1086C000C9FE00F02FFF00F01BFB01218902684664
:1086D00081806421C180124800901249684600F0F0
:1086E00081FBFFF7ADFC00F035FFFFF7E3F9FEF784
:1086F00017F9FEF743F900220521C9030A4800686B
:10870000FEF7CAFA00BFFEF7D7F900F048FAFAE719
:1087100024200020B0210020BA2300200303000001
:10872000B57F01003820002020200020F8B5054644
:108730000E4614462879801CC7B22078801CC019C8
:108740001F2801DD0C20F8BD781CC1B22278501C16
:108750002070B154FF212278501C2070B15422782F
:108760009119288801F02EFD217840182070A888E2
:1087700000280EDDA868002801D10720E3E7AA88B9
:1087800023789819A968FDF73DFD207829794018CC
:1087900020700020D7E7F7B584B004460F4606984E
:1087A0000678B01C1F2803DC6078801C1F2802DDBF
:1087B0000C2007B0F0BD1F20801B801E85B20295E3
:1087C000B11C781802A97DDF03900398002801D01E
:1087D0000398EEE72078022808D168460089A8426D
:1087E00004DC09200190684605890BE0082001900F
:1087F0006078002804D06078A84201DC657801E048
:1088000068460589681CC2B23046711CCEB23A5423
:108810003046721CD6B20199395406980178A81CCA
:108820000818C1B2069801700020C2E7014604484A
:108830000088814201DA481C00E00020C0B2704785
:108840009820002070B5064611480068FEF75AFAD5
:10885000044600BF2546002D06D000BF0022114669
:108860002846FEF7AFF800BF00BF13210948008873
:1088700076DF044600BF2546002D06D000BF00224B
:1088800011462846FEF79EF800BF00BF70BD0000ED
:10889000182000201020002001B505E00098401E9F
:1088A00000900348FDF716FC00980028F6D108BD9B
:1088B000E703000010B58A0005231B0707242402E4
:1088C0001B1984001A5110BD10B58A0005231B071F
:1088D000072424021B1984001A5110BD032105220C
:1088E000120707231B02D2188300D15070470321BF
:1088F0000522120707231B02D2188300D1507047AC
:1089000001218140014A916070470000000500503C
:1089100070B5044600252088192820D004DC1028D2
:1089200007D0112825D108E050281ED0522820D188
:108930000EE0A088164908801CE000201549088038
:10894000401E13490880FEF755FAFEF717F811E0AC
:10895000002211460E480088A9DF05460AE0A079EA
:10896000002801D1FEF70AF804E0204600F0DCF808
:1089700000E000BF00BF00BF2E46002E06D000BFA3
:10898000002211463046FEF71DF800BF00BF70BD43
:10899000102000202A2000208A880280704770B5AD
:1089A00088B004460D460220694608742046FFF749
:1089B000F5FC002808D1FF20FE3069468882208817
:1089C00004A9A8DF08B070BD00206946888220880D
:1089D00004A9A8DF0646002E01D03046F2E700BF0A
:1089E000A87E0300FDF762FD0979061D343C444C66
:1089F00071547900002069460871288B022805DA35
:108A0000A97E06222046FEF77BFCDBE701206946B3
:108A1000087228461B30039001A92046A26A90479D
:108A200061E0012069460871288B022805DAA97ED9
:108A300006222046FEF764FCC4E70120694608725E
:108A400028461B30039001A92046A26A90474AE0BD
:108A500002206946087101A92046A26A904742E0B7
:108A600003206946087101A92046A26A90473AE0AE
:108A700004206946087101A92046A26A904732E0A5
:108A800005206946087101A92046A26A90472AE09C
:108A9000288B032805DA032208212046FEF730FC44
:108AA00090E728461B3001F087FB6946088108895A
:108AB000002802D10720087102E0062069460871EB
:108AC00001A92046A26A90470DE009206946087175
:108AD00001A92046A26A904705E0A97E032220460C
:108AE000FEF70EFC6EE700BF00206BE70022D243CA
:108AF00002807047F8B504460E46B51D2878022856
:108B000011D16888218A88420DD1A91C2046FFF71F
:108B100046FF0746002F05D0E06A002802D03846FD
:108B2000E16A884700BFF8BD70B50546AC1D2188D5
:108B30000E488089814217D1208B022814D100BFB2
:108B400000BFA17EE27E120211430846C107C90F91
:108B5000074801700078002804D0FEF71BF9FEF7E3
:108B600071FD01E0FEF746F970BD000020210020F4
:108B7000142000203EB505460C46E088298988422D
:108B80000CD1082168460170A17F01712046203078
:108B9000029069462846AA6A904700BF3EBD70B55C
:108BA00040DF044600BF2546002D06D000BF00224E
:108BB00011462846FDF706FF00BF00BF70BD00004C
:108BC0003CB5034600BF20480078002801D10820AA
:108BD0003CBD00BF002B01D10E20F9E7002A01D1D6
:108BE0000E20F5E71868642805D218680001174CB4
:108BF0002058002801D10720EAE75C681868019432
:108C00000090019C18680001104D401900894843EC
:108C100020180190009800012C4600194089009C02
:108C20002401641924896043009C24016419646848
:108C30000019019CA04201D80720C9E7019C0098B7
:108C4000546010600020C3E78A200020EC2F002031
:108C5000F8B504460D4600BF27480078002801D12A
:108C60000820F8BD00BF002C01D10E20F9E72068D4
:108C7000642805D22068000120490858002801D145
:108C80000720EEE7206800011C4940184089216850
:108C900009011A4A89180989484321680901891874
:108CA000496840186168884201D80720D9E76068A0
:108CB000FFF7E4FB002801D11020D2E723681B0155
:108CC0000E4FDB1962685B68D01A226812013B46BE
:108CD000D2181189FDF76CFA002901D00720C0E7EE
:108CE00000202B460246214600900420FEF7DCFDC2
:108CF00006463046B5E700008A200020EC2F002011
:108D000070B5FEF719FE00202E4908802E484069F4
:108D1000401C002808D001221207126991B22A4A89
:108D20005069FDF745FA02E0012000074069653807
:108D300001210907096989B24843244908600020D4
:108D40002349088000BF0DE000210201214B99500A
:108D50000201D21811810201D21891810201D218A8
:108D60005181401C6428EFD308201B490870164825
:108D70004069401C002808D001221207126991B2F4
:108D8000114A5069FDF714FA02E00120000740691A
:108D9000401E01210907096989B24843064601209E
:108DA0000007006981B23046FDF702FA054620DF70
:108DB0000446002C04D10120084988700849087035
:108DC000204670BD8020002000100010842000206C
:108DD00088200020EC2F00208B200020202F002056
:108DE0008A200020F8B504460D4600BF5848007898
:108DF000002801D10820F8BD00BF002C01D10E20B1
:108E0000F9E7002D01D10E20F5E72068002801D1F7
:108E10000E20F0E7A08801210907096989B288427C
:108E200002DCA088042801DA0720E4E7E0880028B3
:108E300030D048484069401C002808D00122120761
:108E4000126991B2434A5069FDF7B2F902E001207C
:108E500000074069401E01210907096989B248439A
:108E6000E188A28851433C4A12688918884211D38C
:108E7000E088A188484301210907096989B288422D
:108E80000ADDA18801221207126990B2FDF7A6F946
:108E9000002901D00720AEE720798007800F002845
:108EA00001D00720A7E72D480088642801D10420BD
:108EB000A1E72A4800882860274800686860274999
:108EC00009880901264A8918686848602349098881
:108ED000090120685050A088204909880901891893
:108EE0000881E0881D4909880901891848810027FF
:108EF000A688E1884E4300BF781C87B20120000796
:108F0000006980B2B04205D201200007006980B23A
:108F1000361A00E0002601200007006980B20E49E1
:108F2000096840180C49086001200007006980B2F8
:108F3000B042E1D9094800880001094940188781F9
:108F400006480088401C05490880002053E70000BF
:108F50008A200020001000108420002080200020A3
:108F6000EC2F0020F8B504460E4615461F4600BFFC
:108F70002F480078002801D10820F8BD00BF002E3E
:108F800001D10E20F9E7002C01D10E20F5E7206871
:108F9000642805D22068000126490858002801D11C
:108FA0000720EAE72068000122494018408921682B
:108FB0000901204A8918098948432168090189184B
:108FC000496840186168884201D80720D5E7002D1C
:108FD00006D020680001174940180089A84201DA2C
:108FE0000720CAE7E81921680901124A8918098986
:108FF000884201DD0720C0E73046FFF73FFA00282E
:1090000004D03846FFF73AFA002801D11020B4E71F
:109010006068FFF733FA002801D11020ADE72B4636
:109020003246214602200097FEF73EFCA5E70000ED
:109030008A200020EC2F0020FEB50546002650486F
:10904000807801287ED100204D4988704D480078F5
:10905000082811D1022D03D100204A49087002E0EE
:10906000002049490870FEF7EFFB0646002E02D0AB
:109070003046FDF7B7FCFEBD022D02D0032D79D19D
:1090800074E03F480078142148433D49091D4418C5
:109090003E480088401C3D4908802078022807D1BE
:1090A0000846008880026188884201DB012000E0D8
:1090B000002007462078052805D132480078072887
:1090C00001D1012000E0002002902078042805D181
:1090D0002C480078072801D1012000E000200190F1
:1090E000207804280BD129480088800261888842B2
:1090F00005DB24480078002801D1012000E0002091
:1091000000900298002807D10198002804D1009807
:10911000002801D1002F1FD000201A4908703046C6
:10912000FDF760FC16490878FEF7A0FB0020174900
:10913000088013484078401E11494870084600785E
:10914000401C00E019E00870084600780A2803DB9C
:10915000084600780A380870FEF776FB0646002EAF
:1091600002D03046FDF73EFC05E003E00D20FDF7A0
:1091700039FC00E000BF00BF00BF00BF7BE700007C
:10918000202F00208B2000208A2000208820002013
:1091900070B5144800881449884210D01321114832
:1091A000008876DF044600BF2546002D06D000BFAC
:1091B000002211462846FDF705FC00BF01E0FDF73F
:1091C000F1FBFEF70FF8044600BF2546002D06D040
:1091D00000BF002211462846FDF7F4FB00BF00BF88
:1091E00070BD000010200020FFFF00000148406813
:1091F000704700000015014010B504460348846024
:1092000003211120FDF7B2F810BD00000015014048
:1092100010B5012000040A494860094940394860F6
:109220001120FDF785F81120FDF78CF80120054984
:1092300008602F20FCF76EFF01200349087010BD65
:109240004013014000100140C420002010B511203F
:10925000012181400E4A116000BF012000040D4928
:1092600088600C494039886001200B4948602F20F4
:10927000FCF750FF0120084988600020074908607A
:109280002F20FCF747FF00200549087010BD0000A3
:1092900080E100E04013014000100140B0200020B8
:1092A000C4200020F0B58BB0002700200A900521D3
:1092B00094480068FCF77CFFC0B2099000240026A7
:1092C0000025042008908F480068401D8D490860E3
:1092D0000420FDF7E3FE0D20012181408A4A9160C0
:1092E00000BF01208949C86300200C2302460A21DF
:1092F000009000F063FA0A200690002003903AE004
:1093000007A9042000F08EFA002830D06846007FBC
:10931000202803D06846007F0D2802D1781CC7B2F0
:1093200025E06846007F0011032820D1012F04D0DA
:10933000022F0AD0032F18D10FE02005040C684635
:10934000007F0007000F044310E03005060C68465C
:10935000007F0007000F064308E02805050C68465B
:10936000007F0007000F054300E000BF00BF039827
:10937000401CC0B2039003983228C1DB200441197D
:1093800009988000624A115000206049C8630D208E
:10939000012181405C4AD16000BF05A852DF5D48D1
:1093A0000088FF210902084000025A49097809068D
:1093B000084304905849C88804AB08AA0021A4DFD8
:1093C000FF20000228400002290608430490524969
:1093D000C88904AB08AA0021A4DFFF2000022040B6
:1093E00000022106084304904B49C88A04AB08AA2E
:1093F0000021A4DF0598000EFF22120405991140F8
:10940000090A0843121205991140090208430599F7
:109410000906084304904049C88C04AB08AA0021FF
:10942000A4DF38480068000E36490968FF2212049C
:109430001140090A08433349096812121140090210
:109440000843304909780906084304903249C88B1B
:1094500004AB08AA0021A4DF0998FF281ED105212A
:1094600028480068FCF7A4FE000A401E6421009012
:10947000FCF79EFE02AA29480191FFF7A1FB0121FA
:10948000890202A8FFF7E4FB0A900023012292025E
:109490001F4902A8FFF766FD0A9000BF194800683F
:1094A000000E1F490870174800680002000E48703F
:1094B000144800880004000E887012480078C870B4
:1094C000281208714D7130128871CE712012087205
:1094D0004C7210480088001288720E480078C872DA
:1094E0000598000E087305980002000E4873059851
:1094F0000004000E88730598C873FDF711FA0BB0CD
:10950000F0BD00002C20002000050050C02F0040BE
:10951000C425002040200020E82000203820002022
:109520009821002070B500BF094A0A210820FDF7E4
:10953000D3FA044600BF2546002D06D000BF002206
:1095400011462846FDF73EFA00BF00BF00BF70BDC0
:10955000642D002030B58FB00321049114210AA896
:10956000FCF777FE00200A90012108A8017304A8E7
:109570000C9000BF08A8007D01090901491C08A83A
:109580000175007DF0218843103008A9087500BFDF
:1095900000BF0AA8407B000900010AA948730AA875
:1095A000407BF02188430AA9487300BF00BF0AA886
:1095B000807B0009000188730AA8807BF021884322
:1095C0000AA9887300BF00BF08A8C07D010909016E
:1095D000491C08A8C175C07DF0218843103008A936
:1095E000C87500BF00BF0AA8007C000900010AA9D5
:1095F00008740AA8007CF02188430AA9087400BFF7
:109600004648FDF7CFFE044600BF2546002D06D094
:1096100000BF002211462846FDF7D4F900BF00BF65
:10962000142105A8FCF715FE00BF08A84078010921
:109630000901491C08A841704078F0218843103086
:1096400008A9487000BF00BF05A8807B0009000181
:10965000401C05A9887305A8807BF0218843103041
:1096600005A9887300BF00BF05A8C07B00090001E1
:10967000C87305A8C07BF021884305A9C87300BF43
:1096800000BF08A8007901090901491C08A8017157
:109690000079F0218843103008A9087100BF00202C
:1096A000059000216846017600200790642108A8F3
:1096B000017005A91A48FDF76FFD044600BF254655
:1096C000002D06D000BF002211462846FDF77AF98A
:1096D00000BF00BF0020019002900390114802904B
:1096E000002003900F48029001206946888001A95C
:1096F0000D48FDF77FFD044600BF2546002D06D02E
:1097000000BF002211462846FDF75CF900BF00BFEC
:109710000648FEF745FA0FB030BD000020210020BA
:10972000E8200020417B0100C42900209191010024
:10973000FEB507460E461446386B002801D10720B7
:10974000FEBD0020019032E0396B0C22019850439D
:109750000D182879801CC0B200900098401CC1B23E
:109760002278501C2070B15416212278501C207091
:10977000B15422789119288800F024FD21784018EE
:109780002070A88800280EDDA868002801D10720D5
:10979000D6E7AA8823789819A968FCF733FD2078C2
:1097A0002979401820700198401CC0B201903420E3
:1097B000C15D01988142C7DC0020C1E7F8B50746CA
:1097C0000C4615461E462046FFF791F8002130460C
:1097D000FFF77AF81048C4604661069800280DD05B
:1097E0003846FFF784F800212846FFF76DF80A484D
:1097F00005618760012008494031C8624F2000039D
:109800000549486204200860012004498860086016
:10981000002003498860F8BD00250040002000407A
:109820000021004070B504460D4601260AE020469E
:10983000641E002804DB7D20C000FCF75BFC01E017
:10984000002603E0074880680128F0D100BF002C03
:1098500005DB002003498860034880692870304692
:1098600070BD0000002100400025004070B5064694
:109870000C46154629462046C046C04670BD00002D
:109880000146002901D10E207047024801600020E6
:10989000FAE70000E0200020FFB581B00C46164634
:1098A0001F46002C02D1072005B0F0BD20468107DD
:1098B000890F002901D1012100E00021002901D1F7
:1098C0000720F1E709480460094806800948076055
:1098D0000949019810DF0546002D01D02846E3E72D
:1098E000012006490870162026DFDDE7D820002079
:1098F000DC200020D42000206D980100DE20002014
:109900000146002901D10E20704702480160002065
:10991000FAE70000E4200020F7B506460F46002EC7
:1099200001D13C4800E03C480446002E1FD10220F3
:10993000FEF7D4FF0120FEF7D1FF00210846FEF715
:10994000B9FF1D20FEF7CAFF022005210902611898
:1099500088600120052109026118C86000200521E6
:109960000902611808611D20FEF7CAFF1EE00220EF
:10997000FEF7B4FF0120FEF7B1FF00210846FEF715
:1099800099FF1C20FEF7AAFF022005210902611899
:1099900088600120052109026118C86000200521A6
:1099A0000902611808611C20FEF7AAFF01200007C8
:1099B0000521090261184862002F06D0012F06D048
:1099C000022F06D0032F08D105E0002507E002256D
:1099D00005E0042503E0062501E0002500BF00BFE7
:1099E0000298002806D001202843052109026118A9
:1099F000486503E005200002201845650021FF208E
:109A00000930015101200521090261180860204632
:109A1000FEBD00000030004000400040FFB581B0B6
:109A200000270026019D1F48019D854201D11D246C
:109A300000E01C2400BF0120A0401B49C86000BFFB
:109A400027E00398805D052109026918C86100E0DC
:109A50007F1CFF2009304059002803D10320000358
:109A60008742F5D303200003874205D12046FEF745
:109A700047FF002005B0F0BD0021FF200930415113
:109A80000520000228188069C1B204988155701C15
:109A900086B202988642D4DB2046FEF731FF0120D1
:109AA000E8E70000003000400005005001468888CB
:109AB000002801DD072070470020FCE7FFB583B0D8
:109AC00004460F46154603268D48007800280BD122
:109AD000002D06D10698002803D10220884908707D
:109AE00002E0012086490870854800780300FCF7F1
:109AF000DDFC07FD05314E84BAD7FD008148406981
:109B0000401C002808D001221207126991B27D4A38
:109B10005069FCF74DFB02E0012000074069401E40
:109B200001210907096989B2484302900120000711
:109B300000690004820C01200007006980B27843AC
:109B40000146029821DF0646002E02D102206C4910
:109B50000870D0E0384620DF0646002E16D1002DD2
:109B600011D1069800280AD12078042803D10720B3
:109B7000634908700AE005206149087006E0042086
:109B80005F49087002E003205D490870B3E05D485A
:109B90004069401C002808D001221207126991B2C6
:109BA000584A5069FCF704FB02E0012000074069B5
:109BB000401E01210907096989B2484301210907AB
:109BC0000290096989B2794308462A46029921DF41
:109BD0000646002E10D1069800280AD120780428C5
:109BE00003D106204649087006E005204449087064
:109BF00002E00420424908707DE042484069401C70
:109C0000002808D001221207126991B23D4A50691A
:109C1000FCF7CEFA02E0012000074069401E012156
:109C20000907096989B24843A900401861884018AA
:109C3000012109070290096989B27943AA008918AC
:109C400062888818069A029921DF0646002E09D1FB
:109C50002078042803D106202949087002E0052055
:109C60002749087047E001200007006980B2784367
:109C7000AB00C0180290608882082169029821DF39
:109C80000646002E0BD1002D06D10698002803D1E0
:109C900007201B49087002E00620194908702AE0D5
:109CA00018484069401C002808D001221207126998
:109CB00091B2144A5069FCF77BFA02E001200007D8
:109CC0004069401E01210907096989B24843019092
:109CD00001200007006981B20198FCF769FA02903F
:109CE00020DF0646002E04D1072000E002E00449F0
:109CF000087000E000BF00BF304607B0F0BD0000B4
:109D00008B2000200010001010B504462046FFF7FD
:109D100093F9022C02D0032C0BD100E000BF0648BF
:109D20000078002804D0002003490870FCF726FEC4
:109D300000E000BF00BF10BD302000200246501AD6
:109D40000002000A7047000070B504460D48006824
:109D5000002812D00B4AE169A069126890470546B5
:109D600000BF2E46002E06D000BF0022114630460E
:109D7000FCF728FE00BF00BF02E0A169E069884748
:109D800070BD0000C0200020FEB50020C04301903F
:109D900010480468104807686846FEF7D9F8054679
:109DA000FEF776FB0646002D05D001AA2146009855
:109DB000FEF710F901260198FEF7CAFB002800D033
:109DC0000126002E02D03846FDF7D0FD00200349C1
:109DD0000870FEBDB0200020AC200020C52000206F
:109DE00010B51420FCF7B8FA10BD0000F0B502461B
:109DF00024205043324B1B68C11832480068401C75
:109E0000002802D12F48026059E02E484B680068B4
:109E1000242460432A4C246800194068834217D8E0
:109E20002848006824235843254B1B68C018406805
:109E30004B68C31A2348006824246043204C2468DC
:109E4000001943601F48006808621E48026036E03F
:109E50004B681C4D2C6828680DE024254543184E9E
:109E60003668AD196D685B1B044624254543144EC6
:109E70003668AD19286A451C002D07D024254543B6
:109E80000F4E3668AD196D689D42E6D3451C002D16
:109E90000CD0242545430A4E3668AD196D68EE1A7C
:109EA00024254543064F3F68ED196E604B600862FC
:109EB00024256543024E3668AD192A6200BFF0BD05
:109EC000A0200020AC20002070B502462C4C216858
:109ED000084609E0904200D109E0014624244443A9
:109EE000284D2D686419206A441C002CF2D100BF53
:109EF000441C002C00D170BD814217D1204C246835
:109F000024256C431F4D2D686419246A1C4D2C6058
:109F10002C462468641C002C08D101241A4DAC6026
:109F200000241A4D2C600124194D2C702424444324
:109F3000144D2D686419636824244443114D2D6821
:109F40006419256A24244C430E4E3668A4192562F0
:109F500024244C430B4D2D686419206A441C002CAA
:109F60000CD024244443074D2D6864196468E51817
:109F700024244443034E3668A419656000BFBAE741
:109F8000AC200020A020002000100140B0200020C4
:109F9000C5200020FFB581B005460E461746E900F2
:109FA000104A12688818694600F058F90446002CD7
:109FB00002D1042005B0F0BD012020706660FFF7DB
:109FC00015F9A060E760049820610A986061E900D3
:109FD000044A12688818009900F056F9FFF700FF4C
:109FE0000020E7E7A8200020F8B504460E46E1006F
:109FF0000C4A12688818694600F030F90546002DB1
:10A0000001D10420F8BD022028706E60E100054AED
:10A0100012688818009900F037F9FFF7E1FE002078
:10A02000F0E70000A8200020F8B520480068401C98
:10A0300000283AD00027FFF7D9F804461C480168E9
:10A040002046FFF77BFE06461848056811E02420ED
:10A0500068431849096844186068B04200D90BE0A9
:10A060006068361A6068C719256A2046FFF76CFEDB
:10A0700000BF681C0028EAD100BF0F4800780F49D4
:10A080000978884209D10D480078401CC0B20B49BC
:10A090000870022801D1002008700848007880006C
:10A0A00007490F50FFF79CFE00BFF8BDAC20002011
:10A0B000B0200020A0200020BC200020BD200020D7
:10A0C000B420002010B51120FCF746F910BD0000A7
:10A0D000F8B500BF0020254B072205210090FCF7B2
:10A0E00063FD054600BF2E46002E06D000BF0022AD
:10A0F00011463046FCF766FC00BF00BF00BF1C4A9B
:10A1000001211C48FCF716FD044600BF2546002D22
:10A1100006D000BF002211462846FCF753FC00BFC2
:10A1200000BF154A00211548FCF704FD044600BF96
:10A130002546002D06D000BF002211462846FCF718
:10A1400041FC00BF00BF0E4A01210E48FCF7F2FCA3
:10A15000044600BF2546002D06D000BF0022114650
:10A160002846FCF72FFC00BF00BFF8BDF4290020F3
:10A17000D97A010018200020458801001C20002009
:10A18000A59201002020002030B503461078C01CA5
:10A190001F2801DD0C2030BD02241578681C1070CA
:10A1A0004C550A241578681C10704C551578681C9D
:10A1B00010704B550020EEE7014608784A781202ED
:10A1C0001043704702460A70FF2000021040001240
:10A1D00048700220704702460A70FF2000021040BB
:10A1E0000012487002207047F8B505460F46164623
:10A1F0001C466868002801D10720F8BD2078801C23
:10A20000298840181F2801DD0C20F6E72878401C1B
:10A21000C1B22278501C2070B1542178481C2070A3
:10A2200077542A88237898196968FBF7EBFF207820
:10A230002978401820700020DFE710B5FDF752FCA8
:10A24000012802D0032804D101E0002403E0012406
:10A2500001E0022400BF00BF204610BD70B50246D9
:10A260000B465078411C9078884200D1002110782C
:10A27000884201D1002070BD1960507818267043C3
:10A2800055682C182046F6E741707047FFB581B03D
:10A29000074615460A9E009602223846049B0299FC
:10A2A00000F014F80446002C02D0204605B0F0BDA2
:10A2B0000096102229463846049B00F007F8044611
:10A2C000002C01D02046F1E70020EFE7FFB587B072
:10A2D00006461D46109C0020069020780590002719
:10A2E00047E0B900706841180A88684602814988C9
:10A2F0004181002203A902A865DF04900498002888
:10A3000002D004980BB0F0BD6846017B09988142E9
:10A310002ED10698002801D0002000E002200190F4
:10A3200020786946097B4118019808181F2801DD2B
:10A330000C20E7E70698002809D12078401C2070FF
:10A340002278511C08982170A8540120069020788A
:10A35000421903A902A865DF04900498002801D0DF
:10A360000498CFE720786946097B4018207000BF29
:10A370007F1C3088B842B4DC0698002806D02178CB
:10A380000598401C081AC1B2059829540020B9E765
:10A3900023D1BCEA5F782315DEEF12120000000023
:10A3A000C0A3010000200020E8000000C8640100F4
:10A3B000A8A40100E8200020701D0000D86401005E
:10A3C000000000000000000000000000000000008D
:10A3D000FFFF00000000000000000000000000007F
:10A3E000000000000000000000000000000000006D
:10A3F000000000000000000000000000000000005D
:10A40000000000000024F400000000000000000034
:10A41000000000000000000000000000000000003C
:10A42000000000000000000000000000000000002C
:10A43000000000000000000000000000000000001C
:10A44000000000000000000000000000000000000C
:10A4500000000000000000000000000000000000FC
:10A4600000000000000000000000000000000000EC
:10A4700000000000000000000000000000000000DC
:10A4800000000000000000009D7B010000000000B3
:10A4900000000000000000000000000000000000BC
:08A4A0000000000000000000B4
:04000005000160C1D5
:00000001FF
