:020000040001F9
:10600000203B0020356101004F610100516101001A
:106010000000000000000000000000000000000080
:1060200000000000000000000000000053610100BB
:1060300000000000000000005561010057610100F0
:106040005961010059610100596101005961010064
:10605000596101000000000059610100596101000F
:106060005961010059610100596101005961010044
:106070005961010059610100596101005961010034
:1060800059610100E162010059610100596101009B
:1060900009630100596101001163010059610100A8
:1060A000596101005961010000000000000000007A
:1060B00000000000000000000000000000000000E0
:1060C0000348854600F0A0F8004800472576010007
:1060D000203B0020401E00BF00BF00BF00BF00BF2C
:1060E00000BF00BF00BF00BF00BF00BF00BFF1D1B5
:1060F00070470000401E00BF00BF00BF00BF00BFD0
:1061000000BF00BF00BF00BF00BF00BF00BFF1D194
:1061100070470000401E00BF00BF00BF00BF00BFAF
:1061200000BF00BF00BF00BF00BF00BF00BFF1D174
:10613000704700000321094802680A4302600848CA
:1061400002680A4302600748804707480047FEE7A5
:10615000FEE7FEE7FEE7FEE7FEE70000240500405D
:106160005405004049630100C160010030B50B4691
:10617000014600202022012409E00D46D5409D4221
:1061800005D31D469540491B2546954040191546A7
:10619000521E002DF1DC30BD70B5002425460028CC
:1061A00001DA01244042002901DA01254942FFF7C2
:1061B000DDFFAC4200D04042002C00D0494270BD0F
:1061C00003460B439B0703D009E008C9121F08C010
:1061D000042AFAD203E00B780370401C491C521EBB
:1061E000F9D27047D2B201E00270401C491EFBD2C6
:1061F00070470022F6E710B513460A4604461946D2
:10620000FFF7F0FF204610BD064C0125064E05E0C5
:10621000E36807CC2B430C3C98471034B442F7D3C7
:10622000FFF752FF0895010028950100C206D20E23
:1062300001219140014A11607047000080E200E0B6
:10624000C206D20E01219140014A11607047000040
:1062500000E100E0C206D20E01219140014A116026
:106260007047000000E200E010B5002819DA1A4A71
:1062700003071B0F083B9B089B00D2588307DC0ECB
:10628000FF23A3409A438B071B0E8407E40EA34011
:106290001A43114B0407240F083CA408A4001A5108
:1062A00018E00E4A03231B02D21883089B00D25821
:1062B0008307DC0EFF23A3409A438B071B0E840742
:1062C000E40EA3401A43054B032424021B1984083F
:1062D000A4001A5110BD00001CED00E000E100E038
:1062E00010B5002007490860002106484160816020
:1062F000C1600020034940390860486002F04EFF49
:1063000010BD00004011014010B502F0F7FD10BDB6
:1063100070B50C480068002810D00A480068804713
:10632000044600BF2546002D06D000BF00221146BE
:10633000284600F015F900BF00BF01E000F0C0FFE3
:1063400070BD0000A020002010B501F033F8002837
:1063500005D0074807494860C8130749886101F01C
:106360000DF8002802D001200449886010BD00000B
:10637000DFFF07C000050040006C00400006004041
:1063800030B47446641E2578641CAB4204D3635D4C
:106390005B00E31830BC18471D46F8E702E008C868
:1063A000121F08C1002AFAD170477047002001E08F
:1063B00001C1121F002AFBD17047F8B504460F46F1
:1063C00016460025002030702078002809D032467B
:1063D0003946204601F0F3F90546002D01D0284644
:1063E000F8BDA078002808D03146384600F07AFA87
:1063F0000546002D01D02846F2E7A08800280ADDD6
:1064000033463A460121201D02F099FF0546002D32
:1064100001D02846E4E7E06800280BD00020E168BE
:1064200008563246394602F069FF0546002D01D074
:106430002846D5E7208A00280CDD3B4606220221AB
:1064400020461030009602F0CCFF0546002D01D00A
:106450002846C5E7208B00280CDD3B460722032198
:1064600020461830009602F0BCFF0546002D01D0F2
:106470002846B5E7208C00280CDD3B461522142168
:1064800020462030009602F0ACFF0546002D01D0DA
:106490002846A5E7A06A002809D032463946A06AF6
:1064A00000F076FD0546002D01D0284698E7E06A09
:1064B000002809D032463946E06A01F04BF905461A
:1064C000002D01D028468BE73420005D002809DD2F
:1064D00032463946204602F0C3F90546002D01D068
:1064E00028467DE728467BE701468888002808D0B3
:1064F0008868002805D088680078042210400028A9
:1065000001D1072070470020FCE7000038B568463D
:1065100001F08AFB044600BF2546002D06D000BFCF
:1065200000221146284600F01BF800BF00BF00986B
:10653000002802D0142001F0C3F9084873DF044694
:1065400000BF2546002D06D000BF00221146284678
:1065500000F006F800BF00BF38BD0000F4200020A6
:1065600000BFBFF34F8F04480449C860BFF34F8F8B
:1065700000BF00BFFEE700000400FA0500ED00E0E8
:10658000F8B5044617480078142148431549091DF9
:106590000E5C081F0078142148431249091D401859
:1065A0008068000110490D580E48007814214843B6
:1065B0000C49091D40184088091F009009781422D1
:1065C0005143084A121D89180B69111F09781422BA
:1065D0005143044A121D89180846083022463146A4
:1065E000A847F8BD94290020602A0020F8B5054688
:1065F0000E46174605200090114800781149097889
:1066000088421BD00F480478007801F023F90D4927
:1066100008700D48008860430C49096840182860DC
:10662000E0000B490968401880883080E000084984
:106630000968085838600020009000BF0098F8BD35
:106640006D2000206C2000206E200020682000209B
:10665000642000200EB504E068468188009A029804
:1066600090476A4601A902A8FFF7C0FF0028F3D0AF
:106670000EBD000030B50346481CC004040C104693
:106680008507AD0F002D01D1012500E00025002D6B
:1066900001D1072030BD084802601019074D28605D
:1066A0000020074D2870074D2870074803800748D1
:1066B00001800020EEE70000642000206820002018
:1066C0006D2000206C2000206E2000207020002013
:1066D00070B503460C4619480068002801D108200F
:1066E00070BD002A01D10720FAE7002B01D1072055
:1066F000F6E700211CE024204843104D2D68285C5B
:10670000002814D10125242048430C4E3668355406
:1067100024204843094D2D684019447024204843E3
:10672000064D2D684019826119600020D8E7491C88
:10673000034800788142DEDB0420D1E77820002086
:1067400074200020FFB581B00E4617461C46204637
:106750008107890F002901D1012100E000210029D2
:1067600002D1072005B0F0BD002C01D10720F9E7C8
:1067700001F0FEFD26490A98086026480670264862
:10678000046000250CE0002124206843224A12689E
:10679000115424206843204A1268801801756D1C2A
:1067A000B542F0DB24207043041903201B49087014
:1067B0001B480460183400250CE0E900184A1268F0
:1067C0008818002101704170877044601821794356
:1067D0000C196D1C032DF0DB0020C043114908602B
:1067E000002011490870114908701420FFF71EFDA0
:1067F00003211420FFF738FD1420FFF721FD019835
:1068000001F08CFD01F084FD094908600020A9E732
:106810009820002074200020782000207C20002078
:10682000802000208420002094200020952000203B
:1068300088200020FEB504460D461646164800681E
:10684000002801D10820FEBD14480078844201D2FE
:10685000052D01D20720F6E7242060430E49096880
:10686000085C012801D00820EDE7242060430A4994
:10687000096840184078012801D1284600E000202E
:10688000074602F085FD3B462A46214600960190C8
:1068900002F03AFCD7E700007820002074200020A6
:1068A00070B504460D480068002801D1082070BD6D
:1068B0000B480078844201D30720F8E72420604386
:1068C00006490968085C012801D00820EFE702F0BA
:1068D0005FFD0546214602F041FCE8E778200020F4
:1068E00074200020F8B505460C462078001D1F28AE
:1068F00001DD0C20F8BD684679DF0646002E01D088
:106900003046F7E703212278501C2070A954192142
:106910002278501C2070A9542078411968460088BC
:1069200002F004FD2178401820700020E2E700000A
:1069300070B500221921090408480068FFF77AFFA2
:10694000044600BF2546002D06D000BF0022114698
:106950002846FFF705FE00BF00BF70BD0C200020D9
:1069600070B509480068FFF79BFF044600BF254645
:10697000002D06D000BF002211462846FFF7F0FD8B
:1069800000BF00BF70BD00000C20002070B50446A1
:10699000042C01D1102400E0402400201649486056
:1069A0002002082108431549486001200860144965
:1069B0000860002013490860002501E0681CC5B28A
:1069C00010480068002801D1FF2DF7DB00200D4999
:1069D000086001200A494860002008490860896869
:1069E0004B22120151430846FF21FFF7BFFB410034
:1069F00040180549088070BD0073004000750040D4
:106A000000700040007100404C200020F3B593B0AE
:106A10000D460021129111911398002814D013985B
:106A2000FFF762FD0446002C02D0204615B0F0BDF1
:106A300012AA09A91398FFF7C0FC0446002C01D044
:106A40002046F3E709AE00E00026002D13D02846CB
:106A500002F0C4F80446002C01D02046E6E711AA53
:106A600001A92846FFF7A9FC0446002C01D02046C6
:106A7000DCE701AF00E0002710A803793A46017A6D
:106A8000304672DFD2E710B50446204600F064FFBE
:106A900010BD0000F8B500BF002350222249082095
:106AA00001F092FF054600BF2E46002E06D000BF23
:106AB000002211463046FFF753FD00BF00BF00BF64
:106AC000002000900090684660DF044600BF254625
:106AD000002D06D000BF002211462846FFF740FDDA
:106AE00000BF00BF114801F063FF044600BF254608
:106AF000002D06D000BF002211462846FFF730FDCA
:106B000000BF00BF0A4801F093FF044600BF2546BE
:106B1000002D06D000BF002211462846FFF720FDB9
:106B200000BF00BFF8BD000094280020876A010064
:106B3000398E01000007000F0A2803DA01463031C0
:106B4000C8B202E001463731C8B2704710B586B00E
:106B5000142005900024254800882549884242D009
:106B60002448007800283ED0002001900290039035
:106B700004902148C18B68468180012181710021E8
:106B8000018105A803902BE01C48007880001C4977
:106B90004018049001A915480088A6DF044619484A
:106BA000844204D0082C02D01748844200D118E057
:106BB000002C06D000BF002211462046FFF7D0FC73
:106BC0000EE00E480068FE2805D90020094908702B
:106BD000FFF7AEFE05E009480068401D0749086060
:106BE000D2E700BF00BF06B010BD000000200020AB
:106BF000FFFF000004200020B42000201820002007
:106C0000202100200430000001340000F0B585B0E0
:106C10000F2758480078142148435649091D441845
:106C2000E5682078022804D0042823D005286FD1F5
:106C30006FE0206903905048008886026088801BBE
:106C40000490039880190390A088801945190121A8
:106C500089020498884206D204988208284603993B
:106C600021DF074605E0FF2201322846039921DF94
:106C7000074676E0A068000140494018008904906A
:106C8000A0680001401840890390A06800014018E6
:106C9000406802900298A84205D10399049848439D
:106CA0006188884202D0A0688D280DD1012000079C
:106CB000006981B22846FFF759FA2F49098846181A
:106CC000304620DF074622E001200007006981B23C
:106CD0002846FFF74BFA064601200007006980B2FC
:106CE0007043281A8008019001200007006980B2D3
:106CF000711C484361884919401A80080090314648
:106D00002046009B019A01F071FF074600BF28E072
:106D100026E001200007006981B22846FFF726FA25
:106D20000646A088411901200007006980B270431F
:106D3000081A80080490A088401961884218012030
:106D40000007006980B2711C4843801A80080390D4
:106D500031462046039B049A01F048FF074600E0B5
:106D600000BF00BF002F02D10120024988703846C1
:106D700005B0F0BD9429002060200020602A00208A
:106D800010B5002406484078002807DDFFF73EFFD5
:106D90000446002C02D0112C00D10024204610BD46
:106DA000942900200023142141430C4A53541421F8
:106DB000414389184B808C231421414389188B60EF
:106DC0000023142141438918CB60142141438918C1
:106DD0000B611421414389188B807047982900204A
:106DE000FFB581B0064617460024204840780A289F
:106DF00037D01E4800781D4949784018C4B20A2C83
:106E000002DB20460A38C4B2142060431749091D2A
:106E10000E54142060434018076114206043411849
:106E2000029805C8CA608860142060430F4A121D8A
:106E30008018049941801420604380180A99818049
:106E40000025101F8078002805D1FFF7DFFE0546DA
:106E5000112D00D1002505484078401C0349487099
:106E600000E00425284605B0F0BD0000942900206C
:106E700010B50020084908800849087008490870C2
:106E800048708870002403E02046FFF78BFF641CE5
:106E90000A2CF9D310BD00006020002063200020E0
:106EA00094290020FEB51E480068401C002834D0FC
:106EB0001B480068242148431A490968401845685E
:106EC00001F026FA0190184804682146019801F063
:106ED000CDFFC61C15480078002801D101F02AFA20
:106EE000AE4201D2284600E0304604192402240AAA
:106EF00020460F49086000BF01F00AFA009001998E
:106F0000009801F0B3FFC71C2046019901F0AEFFC5
:106F1000874201D902F090F901E001F029FAFEBDA3
:106F20008420002078200020882000209C20002041
:106F30004015014001460888062808DB0888192208
:106F4000D201904205DD0888104A904201D0072006
:106F500070474888062808DB48881922D2019042E9
:106F600005DD4888094A904201D00720F0E70888EB
:106F7000064A904208D04888904205D008884A883E
:106F8000904201DD0720E3E70020E1E7FFFF00007A
:106F9000F8B506460D4614462078801D1F2801D9F5
:106FA0000C20F8BD3046FFF7C5FF0746002F01D083
:106FB0003846F6E705212278501C2070A95412218A
:106FC0002278501C2070A95422785119308802F080
:106FD000ADF921784018207022785119708802F09C
:106FE000A5F92178401820700020DAE710B51421A7
:106FF0000648FFF7FEF80020044908704860087250
:107000001920800108820020488210BDF420002051
:1070100010B50446FFF79AFD10BD000010B51448E6
:107020004068C105C90D002920D00A46103A50B267
:1070300000280DDA0E4B1C330407240F083CA4086B
:10704000A4001B598407E40EE3401B069B0F0BE0D2
:10705000084B032424021B198408A4001B5984072D
:10706000E40EE3401B069B0FD8B210BD0420FCE7E2
:1070700000ED00E000E100E0014614480078144A09
:10708000127890421DD011480078401C0F4A1070B1
:1070900010460078022801D1002010700B480078BB
:1070A00080000C4A105808600B4A08681268801863
:1070B000094A1060104600680002000A10600120B2
:1070C00070470020086000BFFAE70000942000200D
:1070D000952000208C2000208820002070B5049C82
:1070E000044E45683668B54202D10025024E35701F
:1070F00070BD00003C20002039200020F0B5034680
:10710000002426E0164E366824277E43154F3F683C
:10711000F01946689E4203D94668F61A46601DE09B
:1071200046689B1B466834190026466006750C4E5F
:1071300035680B4F066A3E600669002E08D00E19AE
:107140003602360A86600669C660166806621560F1
:1071500000BF03480068401C0028D3D100BFF0BD29
:107160008420002078200020F0B589B0064618223F
:10717000524902A8FFF724F800BF08A800780109C7
:107180000901491C089108A80078F02188431030B3
:10719000089000BF684671DF072405E0E01F305CFF
:1071A00002A90855601CC4B2E01F305C0028F5D16C
:1071B000694689790811FFF7BDFC2146621CD4B2EB
:1071C00002AA505469468879FFF7B4FC2146621C34
:1071D000D4B202AA5054694649790811FFF7AAFCB3
:1071E0002146621CD4B202AA505469464879FFF77E
:1071F000A1FC2146621CD4B202AA50546946097906
:107200000811FFF797FC2146621CD4B202AA505421
:1072100069460879FFF78EFC2146621CD4B202AAA7
:1072200050546946C9780811FFF784FC2146621C56
:10723000D4B202AA50546946C878FFF77BFC2146B5
:10724000621CD4B202AA5054694689780811FFF72B
:1072500071FC2146621CD4B202AA50546946887857
:10726000FFF768FC2146621CD4B202AA505469465A
:1072700049780811FFF75EFC2146621CD4B202AACD
:10728000505469464878FFF755FC2146621CD4B239
:1072900002AA5054182202A908A87CDF054600BFA4
:1072A0002F46002F06D000BF002211463846FFF7B8
:1072B00057F900BF00BF09B0F0BD0000E89401001D
:1072C000F8B529480078002800D1F8BD27480068A3
:1072D000002801D1012000E0002005462448006874
:1072E000002801D1012000E00020064600BF002D4B
:1072F00014D1684651DF0446052C01D101250CE06C
:10730000002C06D000BF002211462046FFF728F9C6
:1073100003E0164900980968884700BF002E1AD17B
:1073200014480088009069461348006861DF0446ED
:10733000052C01D101260DE0002C06D000BF002253
:1073400011462046FFF70CF904E00B480068084995
:107350000968884700BF002D02D0002E00D000E051
:10736000C5E700BF00BFB0E7AA200020B020002082
:10737000AC200020A8200020A42000200C48008C75
:10738000C0B2012812D10A48808C0007000F0028E3
:107390000CD10748806AF0210840402806D10448F3
:1073A000C06A0840002801D1012070470020FCE796
:1073B000C00F00F01948008CC0B201282CD117482A
:1073C000808C0007000F002826D11448806AF02125
:1073D0000840002806D11148C06A0840002801D1A1
:1073E000012070470D48806AF0210840102806D11E
:1073F0000A48C06A0840002801D10120F1E7074887
:10740000806AF0210840302806D10448C06A08404C
:10741000002801D10120E4E70020E2E7C00F00F0DE
:1074200001468807800F002801D101207047002005
:10743000FCE70000FEB52B48006801902A48007860
:10744000009040E00098C000284909684418257859
:1074500035E01820684361680F18681CC5B2A07831
:10746000A84200D100253878022802D0032823D171
:107470000EE02421786848431D4909684618307D8C
:10748000002804D0786801F0D9FD0020307514E0A0
:107490000CE01449096824225143154A12688818DF
:1074A000002101750F4A016A116000BF0D48006894
:1074B000401C0028EDD100E000BF00BF00BF607895
:1074C000A842C6D100BF0098411EC9B20091002851
:1074D000B8D1044801680198814201D00120FEBD65
:1074E0000020FCE7842000207C2000208020002059
:1074F00078200020FEB507464348006802904348C4
:107500000078019071E00198C00041490968451870
:1075100063E0781C002807D03E46242070433D4994
:1075200009684418276A29E02978182359436A68AA
:1075300050182978491C29702978AA78914201D1DC
:1075400000212970466824217143324A12688C1840
:107550000178012902D1217D002900D03DE0816818
:10756000A160C168E160016921614169E1612A4965
:107570000978002901D00021A16000BF2749A06837
:107580000968401A0002000A2549884208D22349A6
:10759000A068096801F06AFCE1684018606011E0C9
:1075A0001E48A168006801F061FC0090E168009845
:1075B000814204D9E1680098081A606001E0002067
:1075C000606000BF0020A060E06001202075801E88
:1075D0002062304601F0C4FC00BF781C002898D11E
:1075E00028786978884294D100BF0198411EC9B2B9
:1075F0000191002887D1044801680298814201D096
:107600000120FEBD0020FCE7842000207C2000201B
:1076100080200020782000209D200020882000204D
:10762000FFFF7F000EB50024032005210907072274
:10763000120289180865142000F07EF9142000F069
:107640003FF900221146104601F0FEF9064636A029
:10765000006800906B466A460121304601F076FAD8
:10766000324805210907072212028918486301F0F0
:10767000E9FDFFF70FFA00F097FF00F08BFB012107
:107680008902684601818C2141812948019029495C
:1076900001A800F067FC044627480068FFF764FD76
:1076A00000F09AFFFFF7A2FC00BF012000BF3821C5
:1076B0002248FEF79EFD20480068006820490861C6
:1076C000204821490880182088801D491E48816073
:1076D00001201A4988801D49184881601A481749B5
:1076E000C86200211548FFF791F9044600BF2546FE
:1076F000002D06D000BF002211462846FEF730FFBD
:1077000000BF00BFFEF702FF00220121C90310489D
:107710000068FFF78FF8142000F006F900BFFEF7AD
:1077200099FF00F071FAFAE7B900000003030000C6
:10773000DD7001004020002028200020302500209E
:107740000821002081580000682500202420002006
:1077500010200020F8B505460E4614462879801CF6
:10776000C7B22078801CC0191F2801DD0C20F8BD8D
:10777000781CC1B22278501C2070B154FF212278AD
:10778000501C2070B15422789119288801F0CEFD48
:10779000217840182070A88800280EDDA8680028ED
:1077A00001D10720E3E7AA8823789819A968FEF792
:1077B00007FD20782979401820700020D7E7F7B519
:1077C00084B004460F4606980678B01C1F2803DCD8
:1077D0006078801C1F2802DD0C2007B0F0BD1F2040
:1077E000801B801E85B20295B11C781802A97DDF2E
:1077F00003900398002801D00398EEE72078022830
:1078000008D168460089A84204DC09200190684636
:1078100005890BE0082001906078002804D060788A
:10782000A84201DC657801E068460589681CC2B29F
:107830003046711CCEB23A543046721CD6B2019911
:10784000395406980178A81C0818C1B2069801702E
:107850000020C2E7014604480088814201DA481C42
:1078600000E00020C0B270477020002070B50646CE
:1078700011480068FFF714F8044600BF2546002DA4
:1078800006D000BF002211462846FEF769FE00BF61
:1078900000BF13210948008876DF044600BF254653
:1078A000002D06D000BF002211462846FEF758FEE4
:1078B00000BF00BF70BD0000082000200020002095
:1078C00001B505E00098401E00900348FEF702FC59
:1078D00000980028F6D108BDE703000010B58A0023
:1078E00005231B07072424021B1984001A5110BD0D
:1078F00010B58A0005231B07072424021B198400E6
:107900001A5110BD03210522120707231B02D218AA
:107910008300D150704703210522120707231B0261
:10792000D2188300D150704701218140014AD160B3
:10793000704700000005005001218140014A91601C
:10794000704700000005005001218140014A91600C
:1079500070470000000500507FB505460024042054
:107960000290288839287DD008DC01287BD0102897
:107970000BD0112878D0192877D1C2E0502875D0C3
:10798000522874D05528F7D1C6E0A88873490880DA
:107990001420FFF7D1FFFEF7CBFF082168460180D6
:1079A00013214180042181802821C18069466B48D0
:1079B000008875DF044600BF2646002E06D000BFB3
:1079C000002211463046FEF7CBFD00BF00BF6449E0
:1079D0000968080A8C21FEF7C9FB62480160624809
:1079E0000088FF210902084000025F490978090662
:1079F000084303905D49C88803AB02AA0021A4DFB5
:107A00005B480088FF2109020840000258490978B4
:107A10000906084303905549C88903AB02AA00210F
:107A2000A4DF54480088FF210902084000025149A0
:107A300009780906084303904C49C88A03AB02AA97
:107A40000021A4DF4C480068000E4B490968FF2262
:107A500012041140090A08434749096812121140EB
:107A6000090205E057E036E038E067E04FE041E02A
:107A70000843414909780906084303903B49C88CEB
:107A800003AB02AA0021A4DF3C480068000E3B497A
:107A90000968FF2212041140090A0843374909689E
:107AA00012121140090208433449097809060843B3
:107AB00003902E49C88B03AB02AA0021A4DF3048F3
:107AC0000068006803902949C88D03AB02AA002111
:107AD000A4DF044633E0FFF739F830E01420FFF765
:107AE00023FF0020C0431D490880FEF739FFFEF741
:107AF0000DFD24E00022114618480088A9DF044645
:107B00001DE0A879002801D1FEF700FD17E0284606
:107B100000F038F813E000BF13211048008876DF2A
:107B2000044600BF2646002E06D000BF00221146A4
:107B30003046FEF715FD00BF00BF00E000BF00BFEC
:107B400000BF2646002E06D000BF00221146304658
:107B5000FEF706FD00BF00BF7FBD00000020002033
:107B600018200020482000204C200020B4200020B5
:107B7000302000202C200020342000201420002061
:107B8000282000207CB50546AC1D21881848408C73
:107B900081422CD1208B022829D100BF00BFA17EB9
:107BA000E27E120211430846C107C90F1148017055
:107BB000007800281BD0FEF7D3FE00200E49086095
:107BC0000E4802880068401C0C4B91B26A4618604F
:107BD0000B4800F03FF80023012292026946094851
:107BE00000F04AF9FEF7B2FFFEF7A2FE00BF7CBD2F
:107BF000B42000200420002018200020482000206D
:107C0000402000202021002070B540DF044600BF46
:107C10002546002D06D000BF002211462846FEF75B
:107C20009FFC00BF00BF70BD014600BF0748007841
:107C3000002801D10820704700BF002901D10E2083
:107C4000F9E70348407808600020F4E7622000204C
:107C5000942900203CB5034600BF20480078002846
:107C600001D108203CBD00BF002B01D10E20F9E757
:107C7000002A01D10E20F5E718688C2805D2186873
:107C80000001174C2058002801D10720EAE75C6862
:107C9000186801940090019C18680001104D40196B
:107CA0000089484320180190009800012C460019D3
:107CB0004089009C2401641924896043009C2401AC
:107CC000641964680019019CA04201D80720C9E723
:107CD000019C0098546010600020C3E762200020DF
:107CE000602A0020F8B504460D4600BF27480078FA
:107CF000002801D10820F8BD00BF002C01D10E20C2
:107D0000F9E720688C2805D220680001204908582E
:107D1000002801D10720EEE7206800011C49401827
:107D20004089216809011A4A89180989484321684C
:107D300009018918496840186168884201D80720FC
:107D4000D9E76068FFF76CFB002801D11020D2E76B
:107D500023681B010E4FDB1962685B68D01A22682A
:107D600012013B46D2181189FEF700FA002901D012
:107D70000720C0E700202B46024621460090042041
:107D8000FFF72EF806463046B5E7000062200020D7
:107D9000602A002070B5FFF76BF800202E4908809C
:107DA0002E484069401C002808D0012212071269A1
:107DB00091B22A4A5069FEF7D9F902E00120000782
:107DC00040698D3801210907096989B2484324496E
:107DD000086000202349088000BF0DE00021020157
:107DE000214B99500201D21811810201D2189181C0
:107DF0000201D2185181401C8C28EFD308201B4966
:107E0000087016484069401C002808D0012212075B
:107E1000126991B2114A5069FEF7A8F902E00120F7
:107E200000074069401E01210907096989B24843DA
:107E3000064601200007006981B23046FEF796F938
:107E4000054620DF0446002C04D101200849887033
:107E500008490870204670BD58200020001000100E
:107E60005C20002060200020602A00206320002089
:107E70009429002062200020FFB581B00C461546F1
:107E80001E4600BF35480078002802D1082005B002
:107E9000F0BD00BF002C01D10E20F8E701980028AA
:107EA00001D10E20F3E720688C2805D2206800015C
:107EB0002B490858002801D10720E8E72068000175
:107EC00027494018408921680901254A89180989EC
:107ED0004843216809018918496840186168884247
:107EE00001D80720D3E7002D06D0206800011C49E7
:107EF00040180089A84201DA0720C8E7A8192168BC
:107F00000901174A89180989884201DD0720BEE75F
:107F10000198FFF785FA002804D03046FFF780FA71
:107F2000002801D11020B2E76068FFF779FA002835
:107F300001D11020ABE7606881192A460198FEF74D
:107F40003FF900952068000105490F5800220321E0
:107F50002046019BB847002099E7000062200020DE
:107F6000602A0020F8B504460D4600BF5848007846
:107F7000002801D10820F8BD00BF002C01D10E203F
:107F8000F9E7002D01D10E20F5E72068002801D186
:107F90000E20F0E7A08801210907096989B288420B
:107FA00002DCA088042801DA0720E4E7E088002842
:107FB00030D048484069401C002808D001221207F0
:107FC000126991B2434A5069FEF7D0F802E00120ED
:107FD00000074069401E01210907096989B2484329
:107FE000E188A28851433C4A12688918884211D31B
:107FF000E088A188484301210907096989B28842BC
:108000000ADDA18801221207126990B2FEF7C4F8B6
:10801000002901D00720AEE720798007800F0028D3
:1080200001D00720A7E72D4800888C2801D1042023
:10803000A1E72A4800882860274800686860274927
:1080400009880901264A891868684860234909880F
:10805000090120685050A088204909880901891821
:108060000881E0881D49098809018918488100278D
:10807000A688E1884E4300BF781C87B20120000724
:10808000006980B2B04205D201200007006980B2C9
:10809000361A00E0002601200007006980B20E4970
:1080A000096840180C49086001200007006980B287
:1080B000B042E1D909480088000109494018878188
:1080C00006480088401C05490880002053E700004E
:1080D00062200020001000105C20002058200020AA
:1080E000602A0020F8B504460E4615461F4600BF1C
:1080F0002F480078002801D10820F8BD00BF002ECD
:1081000001D10E20F9E7002C01D10E20F5E72068FF
:108110008C2805D22068000126490858002801D182
:108120000720EAE7206800012249401840892168B9
:108130000901204A891809894843216809018918D9
:10814000496840186168884201D80720D5E7002DAA
:1081500006D020680001174940180089A84201DABA
:108160000720CAE7E81921680901124A8918098914
:10817000884201DD0720C0E73046FFF751F90028AB
:1081800004D03846FFF74CF9002801D11020B4E79D
:108190006068FFF745F9002801D11020ADE72B46B4
:1081A0003246214602200097FEF71AFEA5E700009E
:1081B00062200020602A0020FEB5054600265048B7
:1081C000807801287ED100204D4988704D48007884
:1081D000082811D1022D03D100204A49087002E07D
:1081E000002049490870FEF7CBFD0646002E02D05C
:1081F0003046FEF7C5F9FEBD022D02D0032D79D120
:1082000074E03F480078142148433D49091D441853
:108210003E480088401C3D4908802078022807D14C
:108220000846008880026188884201DB012000E066
:10823000002007462078052805D132480078072815
:1082400001D1012000E0002002902078042805D10F
:108250002C480078072801D1012000E0002001907F
:10826000207804280BD12948008880026188884240
:1082700005DB24480078002801D1012000E000201F
:1082800000900298002807D10198002804D1009896
:10829000002801D1002F1FD000201A490870304655
:1082A000FEF76EF916490878FEF77CFD00201749A5
:1082B000088013484078401E1149487008460078ED
:1082C000401C00E019E00870084600780A2803DB2B
:1082D000084600780A380870FEF752FD0646002E60
:1082E00002D03046FEF74CF905E003E00D20FEF722
:1082F00047F900E000BF00BF00BF00BF7BE7000000
:1083000094290020632000206220002060200020AB
:1083100001484068704700000015014010B5044650
:108320000348846003211120FDF79EFF10BD00006B
:108330000015014010B5012000040A4948600949B0
:10834000403948601120FDF771FF1120FDF778FFDB
:108350000120054908602F20FDF7DCFE01200349BC
:10836000087010BD40130140001001409C20002007
:1083700010B51120012181400E4A116000BF01207B
:1083800000040D4988600C494039886001200B4980
:1083900048602F20FDF7BEFE0120084988600020BC
:1083A000074908602F20FDF7B5FE00200549087039
:1083B00010BD000080E100E04013014000100140CA
:1083C000882000209C200020F0B587B000240020E9
:1083D00006900025052168480068FDF7C7FEC0B279
:1083E00005900420FEF7D2FA0D20FFF7A5FA012030
:1083F0006249C86300200C2302460A21009000F065
:1084000075FA00205E4908805E4908805E49088050
:1084100000264DE004A9042000F09CFA002845D075
:108420006846007C202801D1012006906846007C27
:108430000011032835D1012C04D0022C11D0032CBB
:108440002DD11DE04E4800880005000C4C490880E5
:108450006846007C0007000F0988084348490880E7
:108460001EE0484800880005000C46490880684620
:10847000007C0007000F09880843424908800FE08C
:10848000414800880005000C3F4908806846007C90
:108490000007000F098808433B49088000E000BF3F
:1084A00004E00698002801D0601CC4B2701CC6B25B
:1084B000322EAFDB00203149C8630D20FFF734FABC
:1084C000324852DF2C48008800043149098840189E
:1084D00030490860052128480068FDF747FE070A73
:1084E0008C213846FDF742FE0E4602AA2A48FFF7C5
:1084F000B1FB2A4903984968884204D12749029868
:108500000968884209D02548039A029906C00121CA
:10851000890202A8FFF7E6FB0546059883000422BE
:108520001C4902A8FFF7DEFD0546134800681C49F8
:10853000086015480088888012480088C880104864
:108540000088088112480088488110480068C86087
:1085500000211448FEF75AFA054600BF2E46002EA9
:1085600006D000BF002211463046FDF7F9FF00BFDC
:1085700000BF07B0F0BD000014200020C02F004055
:108580002C2000202E20002030200020342000202D
:108590004C20002050200020402000201C200020E3
:1085A000082100203025002070B500BF094A0A21AB
:1085B0000820FEF75FF8044600BF2546002D06D0D0
:1085C00000BF002211462846FDF7CAFF00BF00BFCA
:1085D00000BF70BDE428002030B58FB000BF01217E
:1085E000684681719A49818000BF9A4A01A9012099
:1085F000A0DF044600BF2546002D06D000BF0022A4
:1086000011462846FDF7ACFF00BF00BF00200790D1
:1086100000BF6846007F01090901491C68460177CF
:10862000007FF021884310306946087700BF00BF03
:108630006846407F01090901491C68464177407F2F
:10864000F021884310306946487700BF6846807F34
:1086500006218843811C684681771C2108A8FDF704
:10866000C8FD08A8007841084900491C08A8017005
:10867000007810218843411808A801700020099053
:108680000B900C9008A80078C006C00F002801D0FD
:1086900007A800E000200D9008A80078C007C00FD0
:1086A000002801D007A800E000200E9000200090D4
:1086B00000BF6846007801090901491C684601703D
:1086C0000078F021884310306946087000BF684682
:1086D000807806218843811C684681708078082153
:1086E000884301466846817080781021884301469E
:1086F00068468170807841084900491C684681704D
:10870000142102A8FDF775FD68460390042101823B
:1087100000214182142181820020069000BF0121A6
:10872000684681714C49818000BF01A802904B4985
:1087300088880B461E3302AA08A9A2DF044608A8AF
:1087400000784108490008A8017000780221884398
:10875000811C08A80170007808218843014608A8F8
:108760000170007810218843014608A80170007844
:10877000C006C00F002801D007A800E000200D901F
:1087800008A80078C007C00F002801D007A800E0A3
:1087900000200E9004206946888200BF01216846AF
:1087A00081712D491131818000BF01A802902B49B0
:1087B00088888B1D02AA08A9A2DF044600BF0121F8
:1087C0006846817124491431818000BF01A802905C
:1087D000224988880B460E3302AA08A9A2DF044664
:1087E00000BF0121684681711B494231818000BF71
:1087F00001A80290194988880B46163302AA08A9D5
:10880000A2DF044600BF012168468171124915317B
:10881000818000BF01A80290104988880B4626334A
:1088200002AA08A9A2DF044600BF0121684681719F
:1088300009494531818000BF01A802900749888815
:108840000B462E3302AA08A9A2DF04460FB030BDA2
:108850001118000002200020082A0000B420002087
:10886000FEB507460E461446386B002801D1072096
:10887000FEBD0020019032E0396B0C22019850437C
:108880000D182879801CC0B200900098401CC1B21D
:108890002278501C2070B15416212278501C207070
:1088A000B15422789119288800F040FD21784018B1
:1088B0002070A88800280EDDA868002801D10720B4
:1088C000D6E7AA8823789819A968FDF779FC20785B
:1088D0002979401820700198401CC0B201903420C2
:1088E000C15D01988142C7DC0020C1E7F8B50746A9
:1088F0000C4615461E462046FFF70DF8002130466F
:10890000FEF7F6FF1048C4604661069800280DD0B7
:108910003846FFF700F800212846FEF7E9FF0A482D
:1089200005618760012008494031C8624F2000037B
:1089300005494862042008600120044988600860F5
:10894000002003498860F8BD002500400020004059
:108950000021004070B504460D4601260AE020467D
:10896000641E002804DB7D20C000FDF7C3FB01E08E
:10897000002603E0074880680128F0D100BF002CE2
:1089800005DB002003498860034880692870304671
:1089900070BD0000002100400025004070B5064673
:1089A0000C46154629462046C046C04670BD00000C
:1089B0000146002901D10E207047024801600020C5
:1089C000FAE70000AC200020FFB581B00C46164647
:1089D0001F46002C02D1072005B0F0BD20468107BC
:1089E000890F002901D1012100E00021002901D1D6
:1089F0000720F1E709480460094806800948076034
:108A00000949019810DF0546002D01D02846E3E70B
:108A1000012006490870162026DFDDE7A42000208B
:108A2000A8200020A02000209D890100AA2000206D
:108A30000146002901D10E20704702480160002044
:108A4000FAE70000B0200020F7B506460F46002EDA
:108A500001D13C4800E03C480446002E1FD10220D2
:108A6000FEF750FF0120FEF74DFF00210846FEF7FC
:108A700035FF1D20FEF746FF02200521090261187F
:108A800088600120052109026118C86000200521C5
:108A90000902611808611D20FEF756FF1EE0022042
:108AA000FEF730FF0120FEF72DFF00210846FEF7FC
:108AB00015FF1C20FEF726FF022005210902611880
:108AC00088600120052109026118C8600020052185
:108AD0000902611808611C20FEF736FF012000071B
:108AE0000521090261184862002F06D0012F06D027
:108AF000022F06D0032F08D105E0002507E002254C
:108B000005E0042503E0062501E0002500BF00BFC5
:108B10000298002806D00120284305210902611887
:108B2000486503E005200002201845650021FF206C
:108B30000930015101200521090261180860204611
:108B4000FEBD00000030004000400040FFB581B095
:108B500000270026019D1F48019D854201D11D244B
:108B600000E01C2400BF0120A0401B49C86000BFDA
:108B700027E00398805D052109026918C86100E0BB
:108B80007F1CFF2009304059002803D10320000337
:108B90008742F5D303200003874205D12046FEF724
:108BA000D3FE002005B0F0BD0021FF200930415167
:108BB0000520000228188069C1B204988155701CF4
:108BC00086B202988642D4DB2046FEF7BDFE012025
:108BD000E8E70000003000400005005001468888AA
:108BE000002801DD072070470020FCE7FFB583B0B7
:108BF00004460F46154603268D48007800280BD101
:108C0000002D06D10698002803D10220884908705B
:108C100002E0012086490870854800780300FDF7CE
:108C2000AFFB07FD05314E84BAD7FD00814840698E
:108C3000401C002808D001221207126991B27D4A17
:108C40005069FDF793FA02E0012000074069401ED9
:108C500001210907096989B24843029001200007F0
:108C600000690004820C01200007006980B278438B
:108C70000146029821DF0646002E02D102206C49EF
:108C80000870D0E0384620DF0646002E16D1002DB1
:108C900011D1069800280AD12078042803D1072092
:108CA000634908700AE005206149087006E0042065
:108CB0005F49087002E003205D490870B3E05D4839
:108CC0004069401C002808D001221207126991B2A5
:108CD000584A5069FDF74AFA02E00120000740694E
:108CE000401E01210907096989B24843012109078A
:108CF0000290096989B2794308462A46029921DF20
:108D00000646002E10D1069800280AD120780428A3
:108D100003D106204649087006E005204449087042
:108D200002E00420424908707DE042484069401C4E
:108D3000002808D001221207126991B23D4A5069F9
:108D4000FDF714FA02E0012000074069401E0121EE
:108D50000907096989B24843A90040186188401889
:108D6000012109070290096989B27943AA0089188B
:108D700062888818069A029921DF0646002E09D1DA
:108D80002078042803D106202949087002E0052034
:108D90002749087047E001200007006980B2784346
:108DA000AB00C0180290608882082169029821DF18
:108DB0000646002E0BD1002D06D10698002803D1BF
:108DC00007201B49087002E00620194908702AE0B4
:108DD00018484069401C002808D001221207126977
:108DE00091B2144A5069FDF7C1F902E00120000771
:108DF0004069401E01210907096989B24843019071
:108E000001200007006981B20198FDF7AFF90290D7
:108E100020DF0646002E04D1072000E002E00449CE
:108E2000087000E000BF00BF304607B0F0BD000092
:108E3000632000200010001010B504462046FFF704
:108E4000BBF9022C02D0032C0BD100E00AE006484B
:108E50000078002804D0002003490870FDF756FB75
:108E600000E000BF00BF10BD382000200246501AAD
:108E70000002000A7047000070B505460C490968F9
:108E8000491C0B4A084611600521FDF76FF90029BE
:108E900009D0074800680749086000210648FDF727
:108EA000B5FD044602E00020FFF78EFA70BD000019
:108EB00014200020082100203025002070B5044631
:108EC0000D480068002812D00B4AE169A0691268B9
:108ED0009047054600BF2E46002E06D000BF002258
:108EE00011463046FDF73CFB00BF00BF02E0A16920
:108EF000E069884770BD000098200020FEB5002082
:108F0000C043019010480468104807686846FEF79F
:108F1000B3F80546FEF78EFA0646002D05D001AAE5
:108F200021460098FEF7EAF801260198FEF7E2FADA
:108F3000002800D00126002E02D03846FDF7B2FFEF
:108F4000002003490870FEBD8820002084200020F6
:108F50009D20002010B51420FDF77CF910BD000005
:108F6000F0B5024624205043324B1B68C1183248EA
:108F70000068401C002802D12F48026059E02E48AA
:108F80004B680068242460432A4C24680019406818
:108F9000834217D82848006824235843254B1B6870
:108FA000C01840684B68C31A2348006824246043F3
:108FB000204C2468001943601F48006808621E485E
:108FC000026036E04B681C4D2C6828680DE02425B3
:108FD0004543184E3668AD196D685B1B0446242561
:108FE0004543144E3668AD19286A451C002D07D03C
:108FF000242545430F4E3668AD196D689D42E6D372
:10900000451C002D0CD0242545430A4E3668AD1969
:109010006D68EE1A24254543064F3F68ED196E60D2
:109020004B60086224256543024E3668AD192A62FA
:1090300000BFF0BD782000208420002070B50246DB
:109040002C4C2168084609E0904200D109E0014615
:1090500024244443284D2D686419206A441C002CA4
:10906000F2D100BF441C002C00D170BD814217D149
:10907000204C246824256C431F4D2D686419246AF4
:109080001C4D2C602C462468641C002C08D1012443
:109090001A4DAC6000241A4D2C600124194D2C701F
:1090A00024244443144D2D686419636824244443E4
:1090B000114D2D686419256A24244C430E4E3668E0
:1090C000A419256224244C430B4D2D686419206A91
:1090D000441C002C0CD024244443074D2D686419F3
:1090E0006468E51824244443034E3668A419656077
:1090F00000BFBAE784200020782000200010014043
:10910000882000209D200020FFB581B005460E4636
:109110001746E900104A12688818694600F049F9B4
:109120000446002C02D1042005B0F0BD01202070BF
:109130006660FFF7EDF8A060E760049820610A9888
:109140006061E900044A12688818009900F047F944
:10915000FFF700FF0020E7E780200020F8B5044675
:109160000E46E1000C4A12688818694600F021F9A1
:109170000546002D01D10420F8BD022028706E6044
:10918000E100054A12688818009900F028F9FFF7F5
:10919000E1FE0020F0E7000080200020F8B5204824
:1091A0000068401C00283AD00027FFF7B1F80446B9
:1091B0001C4801682046FFF759FE06461848056816
:1091C00011E0242068431849096844186068B042D7
:1091D00000D90BE06068361A6068C719256A204616
:1091E000FFF76CFE00BF681C0028EAD100BF0F48E3
:1091F00000780F490978884209D10D480078401C51
:10920000C0B20B490870022801D10020087008483C
:109210000078800007490F50FFF79CFE00BFF8BDA3
:109220008420002088200020782000209420002026
:10923000952000208C20002010B51120FDF70AF8A1
:1092400010BD0000F8B500BF0020254B0722052106
:109250000090FDF777FA054600BF2E46002E06D097
:1092600000BF002211463046FDF77AF900BF00BF6B
:1092700000BF1C4A01211C48FDF72AFA044600BF22
:109280002546002D06D000BF002211462846FDF7D6
:1092900067F900BF00BF154A00211548FDF718FA0D
:1092A000044600BF2546002D06D000BF002211460F
:1092B0002846FDF755F900BF00BF0E4A01210E48B0
:1092C000FDF706FA044600BF2546002D06D000BF74
:1092D000002211462846FDF743F900BF00BFF8BD44
:1092E0007425002011700100082000206D78010015
:1092F0000C200020798E01001020002030B503469C
:109300001078C01C1F2801DD0C2030BD0224157808
:10931000681C10704C550A241578681C10704C5548
:109320001578681C10704B550020EEE702460A7055
:10933000FF20000210400012487002207047F8B56C
:1093400005460F4616461C466868002801D10720CE
:10935000F8BD2078801C298840181F2801DD0C20CA
:10936000F6E72878401CC1B22278501C2070B15416
:109370002178481C207077542A88237898196968C6
:10938000FCF71EFF20782978401820700020DFE7C6
:1093900010B5FDF743FE012802D0032804D101E0F7
:1093A000002403E0012401E0022400BF00BF2046A6
:1093B00010BD70B502460B465078411C907888422B
:1093C00000D100211078884201D1002070BD1960C1
:1093D00050781826704355682C182046F6E74170DF
:1093E0007047FFB581B0074615460A9E00960222D7
:1093F0003846049B029900F014F80446002C02D071
:10940000204605B0F0BD0096102229463846049B40
:1094100000F007F80446002C01D02046F1E70020B8
:10942000EFE7FFB587B006461D46109C002006906A
:1094300020780590002747E0B900706841180A8835
:109440006846028149884181002203A902A865DF9C
:1094500004900498002802D004980BB0F0BD684630
:10946000017B099881422ED10698002801D0002066
:1094700000E00220019020786946097B411801989C
:1094800008181F2801DD0C20E7E70698002809D1FD
:109490002078401C20702278511C08982170A85414
:1094A000012006902078421903A902A865DF0490E4
:1094B0000498002801D00498CFE720786946097BFA
:1094C0004018207000BF7F1C3088B842B4DC06987A
:1094D000002806D021780598401C081AC1B20598CA
:1094E00029540020B9E700004353544E45545F000F
:1094F000000000000000000000000000000000006C
:1095000035544D5F00000000289501000020002028
:10951000B40000009C630100DC950100B420002031
:109520006C1A0000AC630100FFFF000000000000A7
:10953000000000000000000000000000000000002B
:109540000000000000000000000000000600000015
:109550000095010000000000000000000000000075
:1095600000000000000000000000000000000000FB
:109570000000000000000000000000000024F400D3
:1095800000000000000000000000000000000000DB
:1095900000000000000000000000000000000000CB
:1095A00000000000000000000000000000000000BB
:1095B00000000000000000000000000000000000AB
:1095C000000000000000000000000000000000009B
:0C95D0000000000000000000000000008F
:04000005000160C1D5
:00000001FF
