:020000040001F9
:10800000483B0020358101004F8101005181010072
:108010000000000000000000000000000000000060
:10802000000000000000000000000000538101007B
:108030000000000000000000558101005781010090
:1080400059810100598101005D84010059810100BD
:1080500059810100000000002D82010059810100BA
:1080600059810100598101005981010059810100A4
:108070005981010059810100598101005981010094
:1080800059810100BD83010059810100598101001E
:10809000E583010059810100ED8301005981010050
:1080A000598101005981010000000000000000001A
:1080B00000000000000000000000000000000000C0
:1080C0000348854600F0A0F800480047DD9701000E
:1080D000483B0020401E00BF00BF00BF00BF00BFE4
:1080E00000BF00BF00BF00BF00BF00BF00BFF1D195
:1080F00070470000401E00BF00BF00BF00BF00BFB0
:1081000000BF00BF00BF00BF00BF00BF00BFF1D174
:1081100070470000401E00BF00BF00BF00BF00BF8F
:1081200000BF00BF00BF00BF00BF00BF00BFF1D154
:10813000704700000321094802680A4302600848AA
:1081400002680A4302600748804707480047FEE785
:10815000FEE7FEE7FEE7FEE7FEE70000240500403D
:108160005405004025840100C180010030B50B4654
:10817000014600202022012409E00D46D5409D4201
:1081800005D31D469540491B254695404019154687
:10819000521E002DF1DC30BD70B5002425460028AC
:1081A00001DA01244042002901DA01254942FFF7A2
:1081B000DDFFAC4200D04042002C00D0494270BDEF
:1081C00003460B439B0703D009E008C9121F08C0F0
:1081D000042AFAD203E00B780370401C491C521E9B
:1081E000F9D27047D2B201E00270401C491EFBD2A6
:1081F00070470022F6E710B513460A4604461946B2
:10820000FFF7F0FF204610BD064C0125064E05E0A5
:10821000E36807CC2B430C3C98471034B442F7D3A7
:10822000FFF752FF68B8010088B80100F0B585B0CB
:108230003048056900203049C863002654E0142006
:1082400070432E49096844180120B0402C49096840
:108250000840002846D0002002900190E068C0430A
:1082600068402168084003902046039902F06AFBA9
:10827000204800696840216808400490049800285C
:1082800018D0049868400090E068C04300994840C6
:108290002168084007463946204602F053FBA06893
:1082A0000099884338400190606800990840384040
:1082B000029000BFA068A8430399084001990843B1
:1082C0000190606828400399084002990843029091
:1082D000019902980843002803D022690199029865
:1082E000904700BF701CC6B2064800788642A6DBE5
:1082F00005B0F0BD00050050406100408C2000201A
:108300008420002089200020C206D20E0121914045
:10831000014A11607047000080E200E0C206D20E00
:1083200001219140014A11607047000000E100E026
:10833000C206D20E01219140014A1160704700002F
:1083400000E200E010B5002819DA1A4A03071B0FF3
:10835000083B9B089B00D2588307DC0EFF23A340F9
:108360009A438B071B0E8407E40EA3401A43114B5C
:108370000407240F083CA408A4001A5118E00E4A70
:1083800003231B02D21883089B00D2588307DC0EFC
:10839000FF23A3409A438B071B0E8407E40EA340E0
:1083A0001A43054B032424021B198408A4001A5104
:1083B00010BD00001CED00E000E100E010B5002061
:1083C000074908600021064841608160C1600020C3
:1083D000034940390860486003F0A0F810BD000070
:1083E0004011014010B502F049FF10BD70B50C48B6
:1083F0000068002810D00A4800688047044600BF83
:108400002546002D06D000BF00221146284600F068
:10841000ABF900BF00BF01E001F02EF870BD000015
:10842000CC20002010B501F0A1F8002805D00748A5
:1084300007494860C8130749886101F07BF80028A4
:1084400002D001200449886010BD0000DFFF07C092
:1084500000050040006C0040000600401CB52448A8
:108460008068002818D0234840680421084000286C
:1084700012D000201E4988601F488069C0B21F4981
:1084800008800421684601701C4801786846017123
:108490001B490968884700BF1548C06900280BD0F0
:1084A0001448406880210840002805D00020104969
:1084B000C861032001F086FC0D48406A002816D0F0
:1084C0000C48406801214902084000280FD00020D4
:1084D00007494862084880380468046002206946F9
:1084E00008700194684606490968884700BF1CBDAA
:1084F00000210040002300400025004066200020AD
:108500007020002030B47446641E2578641CAB4291
:1085100004D3635D5B00E31830BC18471D46F8E7E1
:1085200002E008C8121F08C1002AFAD1704770473C
:10853000002001E001C1121F002AFBD1704710B5D5
:1085400000F01AF810BD000007480078022802D099
:10855000012006498860064800780649C861022063
:10856000014908707047000074200020002000407E
:1085700064200020002500401CB501200549C8608A
:108580000549087003206946087068460349096870
:1085900088471CBD0020004074200020702000206F
:1085A00000200549087001200449C8604860002087
:1085B000034908607047000074200020002000403C
:1085C00000250040F8B504460F4616460025002059
:1085D00030702078002809D032463946204601F014
:1085E000D0F90546002D01D02846F8BDA078002816
:1085F00008D03146384600F05DFA0546002D01D01E
:108600002846F2E7A08800280ADD33463A460121D1
:10861000201D03F054F80546002D01D02846E4E75C
:10862000E06800280BD00020E16808563246394641
:1086300003F024F80546002D01D02846D5E7208A0E
:1086400000280CDD3B460622022120461030009611
:1086500003F087F80546002D01D02846C5E7208B9A
:1086600000280CDD3B4607220321204618300096E7
:1086700003F077F80546002D01D02846B5E7208C99
:1086800000280CDD3B4615221421204620300096A0
:1086900003F067F80546002D01D02846A5E7A06A3B
:1086A000002809D032463946A06A00F061FD05462F
:1086B000002D01D0284698E7E06A002809D032460C
:1086C0003946E06A01F028F90546002D01D0284618
:1086D0008BE73420005D002809DD3246394620460C
:1086E00002F0C8FA0546002D01D028467DE728464D
:1086F0007BE701468888002808D08868002805D0D4
:108700008868007804221040002801D107207047B3
:108710000020FCE738B5684601F02EFC044600BF97
:108720002546002D06D000BF00221146284600F045
:108730001BF800BF00BF0098002802D0142001F0F1
:10874000A1F9084873DF044600BF2546002D06D076
:1087500000BF00221146284600F006F800BF00BF07
:1087600038BD00002021002000BFBFF34F8F044818
:108770000449C860BFF34F8F00BF00BFFEE7000091
:108780000400FA0500ED00E0F8B505460C46277830
:10879000A068000105490E58608800902A463946B5
:1087A000204608302369B047F8BD0000882A002021
:1087B000F8B505460E4617460520009000BF14493F
:1087C000087814490978814201D1012100E0002193
:1087D00000291BD10E480478007801F01DF90C49DE
:1087E00008700D48008860430C49096840182860EB
:1087F000E0000B490968401880883080E000084993
:108800000968085838600020009000BF0098F8BD43
:10881000C4200020C5200020C6200020C020002049
:10882000BC2000200EB504E068468188009A0298BA
:1088300090476A4601A902A8FFF7BAFF0028F3D0C3
:108840000EBD000030B50346481CC004040C1046A1
:108850008507AD0F002D01D1012500E00025002D79
:1088600001D1072030BD084802601019074D28606B
:108870000020074D2870074D2870074803800748DF
:1088800001800020EEE70000BC200020C020002076
:10889000C5200020C4200020C6200020C8200020C1
:1088A00070B503460C4619480068002801D108201D
:1088B00070BD002A01D10720FAE7002B01D1072063
:1088C000F6E700211CE024204843104D2D68285C69
:1088D000002814D10125242048430C4E3668355415
:1088E00024204843094D2D684019447024204843F2
:1088F000064D2D684019826119600020D8E7491C97
:10890000034800788142DEDB0420D1E79420002078
:1089100090200020FFB581B00E4617461C46204629
:108920008107890F002901D1012100E000210029E0
:1089300002D1072005B0F0BD002C01D10720F9E7D6
:1089400001F0CEFE26490A9808602648067026489F
:10895000046000250CE0002124206843224A1268AC
:10896000115424206843204A1268801801756D1C38
:10897000B542F0DB24207043041903201B49087022
:108980001B480460183400250CE0E900184A1268FE
:108990008818002101704170877044601821794364
:1089A0000C196D1C032DF0DB0020C0431149086039
:1089B000002011490870114908701420FFF7A4FC29
:1089C00003211420FFF7BEFC1420FFF7A7FC019839
:1089D00001F05CFE01F054FE094908600020A9E79F
:1089E000B420002090200020942000209820002017
:1089F0009C200020A0200020B0200020B1200020DA
:108A0000A4200020FEB504460D4616461648006810
:108A1000002801D10820FEBD14480078844201D20C
:108A2000052D01D20720F6E7242060430E4909688E
:108A3000085C012801D00820EDE7242060430A49A2
:108A4000096840184078012801D1284600E000203C
:108A5000074602F05DFE3B462A46214600960190FD
:108A600002F012FDD7E700009420002090200020A3
:108A700070B504460D480068002801D1082070BD7B
:108A80000B480078844201D30720F8E72420604394
:108A900006490968085C012801D00820EFE702F0C8
:108AA00037FE0546214602F019FDE8E79420002034
:108AB00090200020F8B505460C462078001D1F28A0
:108AC00001DD0C20F8BD684679DF0646002E01D096
:108AD0003046F7E703212278501C2070A954192151
:108AE0002278501C2070A9542078411968460088CB
:108AF00002F0DCFD2178401820700020E2E7000041
:108B000070B500220521C90308480068FFF77AFF05
:108B1000044600BF2546002D06D000BF00221146A6
:108B20002846FFF721FE00BF00BF70BD20200020B7
:108B300070B509480068FFF79BFF044600BF254653
:108B4000002D06D000BF002211462846FFF70CFE7C
:108B500000BF00BF70BD00002020002070B504469B
:108B6000042C01D1102404E0012C01D1022400E0E6
:108B70004024002016494860200208210843154976
:108B8000486001200860144908600020134908600B
:108B9000002501E0681CC5B210480068002801D11A
:108BA000FF2DF7DB00200D49086001200A494860CD
:108BB00000200849086089684B2212015143084689
:108BC000FF21FFF7D3FA410040180549088070BD26
:108BD00000730040007500400070004000710040CC
:108BE00058200020F3B593B00D4600211291119149
:108BF0001398002814D01398FFF77BFD0446002C2F
:108C000002D0204615B0F0BD12AA09A91398FFF7AB
:108C1000D9FC0446002C01D02046F3E709AE00E061
:108C20000026002D13D0284602F0E2F90446002C5D
:108C300001D02046E6E711AA01A92846FFF7C2FCA9
:108C40000446002C01D02046DCE701AF00E00027FD
:108C500010A803793A46017A304672DFD2E710B5A0
:108C60000446204600F05AFF10BD00007CB500BF4E
:108C7000002348222349082002F0B0F8054600BF2F
:108C80002E46002E06D000BF002211463046FFF7C8
:108C90006BFD00BF00BF00BF00200090019069463F
:108CA0000870684660DF044600BF2546002D06D0E8
:108CB00000BF002211462846FFF756FD00BF00BF47
:108CC000114802F07FF8044600BF2546002D06D06B
:108CD00000BF002211462846FFF746FD00BF00BF37
:108CE0000A4802F0AFF8044600BF2546002D06D022
:108CF00000BF002211462846FFF736FD00BF00BF27
:108D00007CBD0000C42800205F8C0100B5B10100CB
:108D10000007000F0A2803DA01463031C8B202E02A
:108D200001463731C8B2704710B586B0142005909F
:108D30000024254800882549884242D024480078EC
:108D400000283ED00020019002900390049021481A
:108D5000C18B68468180012181710021018105A8B4
:108D600003902BE01C48007880001C4940180490B8
:108D700001A915480088A6DF04461948844204D09A
:108D8000082C02D01748844200D118E0002C06D0ED
:108D900000BF002211462046FFF7E6FC0EE00E4819
:108DA0000068FE2805D9002009490870FFF7A8FED1
:108DB00005E009480068401D07490860D2E700BF88
:108DC00000BF06B010BD000016200020FFFF00000D
:108DD0001A200020E02000202C200020502100201C
:108DE0000430000001340000F0B587B00F2755486B
:108DF0000078142148435349091D4418E568207838
:108E0000022804D0042823D005287CD16AE02069F8
:108E100005904D48008886026088801B0690059862
:108E200080190590A08880194519012189020698AA
:108E3000884206D2069882082846059929DF074607
:108E400005E0FF2201322846059929DF07466FE039
:108E5000A06800013D49401800890690A068000103
:108E6000401840890590A0680001401840680490AF
:108E70000498A84205D1059906984843618888421C
:108E800002D0A0688D280DD101F040F90146039071
:108E90002846FFF76BF92C4909884618304628DF29
:108EA00007461EE001F032F9014601902846FFF71F
:108EB0005DF9064601F02AF97043281A80080390EC
:108EC00001F024F9711C484361884919401A80084F
:108ED000029031462046029B039A02F091F8074621
:108EE00000BF25E001F012F9014604902846FFF783
:108EF0003DF9064601F00AF97043A1884919081A9C
:108F00008008069000E012E001F000F9711C48436F
:108F1000A188491962888918401A8008059031464D
:108F20002046059B069A02F06BF8074600E000BF5A
:108F300000BF002F02D1012002498870384607B0D7
:108F4000F0BD0000BC29002080200020882A0020DD
:108F500010B500240848407800280BDD06488078CA
:108F6000002807D1FFF740FF0446002C02D0112C47
:108F700000D10024204610BDBC290020002314216C
:108F800041430C4A53541421414389184B808C238C
:108F90001421414389188B6000231421414389180F
:108FA000CB601421414389180B6114214143891876
:108FB0008B807047C0290020FFB581B00646174658
:108FC0000024224840780A283CD0204800781F49D5
:108FD00049784018C4B20A2C02DB20460A38C4B2D1
:108FE000142060431949091D0E54002214206043C7
:108FF00040184270142060434018076114206043F9
:109000004118029805C8CA608860142161430F4A5C
:10901000121D8918049848801421614389180A9800
:1090200088800025101F8078002805D1FFF7DCFE1E
:109030000546112D00D1002504484078401C034905
:10904000487000E00425284605B0F0BDBC2900208A
:1090500010B50020084908800849087008490870C0
:1090600048708870002403E02046FFF787FF641CE7
:109070000A2CF9D310BD000080200020832000209E
:10908000BC290020FEB51E480068401C002834D0D2
:109090001B480068242148431A490968401845685C
:1090A00001F0EEFA0190184804682146019802F098
:1090B0009BF8C61C15480078002801D101F0F2FA8F
:1090C000AE4201D2284600E0304604192402240AA8
:1090D00020460F49086000BF01F0D2FA00900199C4
:1090E000009802F081F8C71C2046019902F07CF834
:1090F000874201D902F060FA01E001F0F1FAFEBD09
:10910000A020002094200020A4200020B8200020CF
:109110004015014001460888062808DB0888192206
:10912000D201904205DD0888104A904201D0072004
:1091300070474888062808DB48881922D2019042E7
:1091400005DD4888094A904201D00720F0E70888E9
:10915000064A904208D04888904205D008884A883C
:10916000904201DD0720E3E70020E1E7FFFF000078
:10917000F8B506460D4614462078801D1F2801D9F3
:109180000C20F8BD3046FFF7C5FF0746002F01D081
:109190003846F6E705212278501C2070A954122188
:1091A0002278501C2070A95422785119308802F07E
:1091B0007DFA21784018207022785119708802F0C9
:1091C00075FA2178401820700020DAE710B51821D0
:1091D0000648FFF70EF8002004490870486008723E
:1091E0001920800108820020488210BD2021002023
:1091F00010B50446FFF798FD10BD000010B51448E7
:109200004068C105C90D002920D00A46103A50B265
:1092100000280DDA0E4B1C330407240F083CA40869
:10922000A4001B598407E40EE3401B069B0F0BE0D0
:10923000084B032424021B198408A4001B5984072B
:10924000E40EE3401B069B0FD8B210BD0420FCE7E0
:1092500000ED00E000E100E0014614480078144A07
:10926000127890421DD011480078401C0F4A1070AF
:1092700010460078022801D1002010700B480078B9
:1092800080000C4A105808600B4A08681268801861
:10929000094A1060104600680002000A10600120B0
:1092A00070470020086000BFFAE70000B0200020EF
:1092B000B1200020A8200020A420002070B5049C2C
:1092C000044E45683668B54202D10025024E35701D
:1092D00070BD00004820002045200020F0B5034666
:1092E000002426E0164E366824277E43154F3F683B
:1092F000F01946689E4203D94668F61A46601DE09A
:1093000046689B1B466834190026466006750C4E5D
:1093100035680B4F066A3E600669002E08D00E19AC
:109320003602360A86600669C660166806621560EF
:1093300000BF03480068401C0028D3D100BFF0BD27
:10934000A020002094200020FEB500BF6846007ACF
:1093500001090901491C02916846007AF0218843FD
:109360001030029000BF684671DF0A24694689798F
:109370000811FFF7CDFC01462246641C3D4881548C
:1093800069468879FFF7C4FC01462246641C3948C7
:109390008154694649790811FFF7BAFC0146224613
:1093A000641C3448815469464879FFF7B1FC014692
:1093B0002246641C2F488154694609790811FFF739
:1093C000A7FC2146621CD4B22A4A50546946087947
:1093D000FFF79EFC2146621CD4B2264A50546946CF
:1093E000C9780811FFF794FC2146621CD4B2214AC7
:1093F00050546946C878FFF78BFC2146621CD4B2F2
:109400001C4A5054694689780811FFF781FC2146AF
:10941000621CD4B2174A505469468878FFF778FC2A
:109420002146621CD4B2134A505469464978081147
:10943000FFF76EFC2146621CD4B20E4A50546946B6
:109440004878FFF765FC2146621CD4B2094A5054A3
:109450001622084902A87CDF054600BF2E46002ED2
:1094600006D000BF002211463046FFF77DF900BF4D
:1094700000BFFEBD00200020F8B529480078002874
:1094800000D1F8BD27480068002801D1012000E084
:109490000020054624480068002801D1012000E092
:1094A0000020064600BF002D14D1684651DF044657
:1094B000052C01D101250CE0002C06D000BF0022B4
:1094C00011462046FFF750F903E016490098096855
:1094D000884700BF002E1AD11448008800906946C2
:1094E0001348006861DF0446052C01D101260DE018
:1094F000002C06D000BF002211462046FFF734F9A9
:1095000004E00B48006808490968884700BF002D3F
:1095100002D0002E00D000E0C5E700BF00BFB0E7DA
:10952000D6200020DC200020D8200020D4200020DD
:10953000D02000200C48008CC0B2012812D10A486B
:10954000808C0007000F00280CD10748806AF021AA
:109550000840402806D10448C06A0840002801D1CC
:10956000012070470020FCE7C00F00F01948008C74
:10957000C0B201282CD11748808C0007000F0028AA
:1095800026D11448806AF0210840002806D11148ED
:10959000C06A0840002801D1012070470D48806A48
:1095A000F0210840102806D10A48C06A0840002867
:1095B00001D10120F1E70748806AF02108403028F6
:1095C00006D10448C06A0840002801D10120E4E720
:1095D0000020E2E7C00F00F001468807800F002856
:1095E00001D1012070470020FCE70000FEB52B48A8
:1095F000006801902A480078009040E00098C00080
:10960000284909684418257835E0182068436168BE
:109610000F18681CC5B2A078A84200D10025387880
:10962000022802D0032823D10EE024217868484381
:109630001D4909684618307D002804D0786801F07B
:10964000BDFE0020307514E00CE0144909682422A6
:109650005143154A12688818002101750F4A016AA2
:10966000116000BF0D480068401C0028EDD100E0EB
:1096700000BF00BF00BF6078A842C6D100BF0098FD
:10968000411EC9B200910028B8D104480168019870
:10969000814201D00120FEBD0020FCE7A020002077
:1096A000982000209C20002094200020FEB5074632
:1096B00043480068029043480078019071E00198A7
:1096C000C00041490968451863E0781C002807D0AC
:1096D0003E46242070433D4909684418276A29E022
:1096E0002978182359436A6850182978491C297029
:1096F0002978AA78914201D1002129704668242155
:109700007143324A12688C180178012902D1217DF7
:10971000002900D03DE08168A160C168E160016975
:1097200021614169E1612A490978002901D00021BC
:10973000A16000BF2749A0680968401A0002000A1A
:109740002549884208D22349A068096801F04CFDE8
:10975000E1684018606011E01E48A168006801F0EF
:1097600043FD0090E1680098814204D9E1680098C7
:10977000081A606001E00020606000BF0020A06067
:10978000E06001202075801E2062304601F0A8FDB7
:1097900000BF781C002898D128786978884294D135
:1097A00000BF0198411EC9B20191002887D1044829
:1097B00001680298814201D00120FEBD0020FCE733
:1097C000A0200020982000209C2000209420002031
:1097D000B9200020A4200020FFFF7F000EB5002448
:1097E00003200521090707221202891808651420A1
:1097F00000F084F9142000F045F9002211461046CB
:1098000001F02CFB064639A0006800906B466A46C2
:109810000121304601F0A4FB354805210907072244
:1098200012028918486301F0CDFEFFF71FFA01F01C
:1098300071F800F071FC01218902684601818C21D8
:1098400041812C4801902C4901A800F02BFD0446D1
:10985000FFF77AFD01F0B6F8FFF7B8FC00BF012072
:1098600000BF38212548FEF7C4FC2548007825496B
:1098700008742348407848742148807888742048C8
:10988000C078C874204821490880182088801D4964
:109890001E4881600120194988801D491748816050
:1098A0001A481649C86200211448FFF79BF904467C
:1098B00000BF2546002D06D000BF002211462846D5
:1098C000FEF752FF00BF00BFFEF724FF0022012178
:1098D000C90310480068FFF795F8142000F006F956
:1098E00000BFFEF79FFF00F037FBFAE7B90000006A
:1098F00003030000BD9201004C20002060250020E1
:1099000000200020382100208158000098250020E8
:109910003820002024200020F8B505460E461446C5
:109920002879801CC7B22078801CC0191F2801DD4F
:109930000C20F8BD781CC1B22278501C2070B154A4
:10994000FF212278501C2070B15422789119288868
:1099500001F0ACFE217840182070A88800280EDDA8
:10996000A868002801D10720E3E7AA88237898197E
:10997000A968FEF725FC207829794018207000207E
:10998000D7E7F7B584B004460F4606980678B01CB2
:109990001F2803DC6078801C1F2802DD0C2007B024
:1099A000F0BD1F20801B801E85B20295B11C781867
:1099B00002A97DDF03900398002801D00398EEE709
:1099C0002078022808D168460089A84204DC0920D2
:1099D0000190684605890BE0082001906078002816
:1099E00004D06078A84201DC657801E0684605890A
:1099F000681CC2B23046711CCEB23A543046721C5A
:109A0000D6B20199395406980178A81C0818C1B239
:109A1000069801700020C2E7014604480088814290
:109A200001DA481C00E00020C0B27047C8200020C6
:109A300070B5064611480068FFF71AF8044600BFE3
:109A40002546002D06D000BF002211462846FEF70D
:109A50008BFE00BF00BF13210948008876DF044653
:109A600000BF2546002D06D000BF00221146284623
:109A7000FEF77AFE00BF00BF70BD00001C20002072
:109A80001620002001B505E00098401E0090034814
:109A9000FEF720FB00980028F6D108BDE703000080
:109AA00010B58A0005231B07072424021B19840014
:109AB0001A5110BD10B58A0005231B070724240284
:109AC0001B1984001A5110BD032105221207072318
:109AD0001B02D2188300D1507047032105221207C0
:109AE00007231B02D2188300D15070470121814007
:109AF000014AD160704700000005005001218140FB
:109B0000014A91607047000000050050012181402A
:109B1000014A91607047000000050050F0B585B023
:109B2000054600240427288839287DD008DC012830
:109B30007BD010280BD0112878D0192877D1B6E027
:109B4000502875D0522874D05528F7D1BAE0A8888B
:109B50006D4908801420FFF7D1FFFEF7D1FF0821DF
:109B60006846018113214181042181812821C1811D
:109B700002A96548008875DF044600BF2646002E0E
:109B800006D000BF002211463046FEF7EDFD00BFB3
:109B900000BF4B2189025D480068FEF7E7FA0646E0
:109BA0008C21FEF7E3FA5A480160002000900190F2
:109BB0000421684601800021418055480190554AA2
:109BC000D18B508F6A46A4DF53480088FF210902D9
:109BD000084000025049097809060843049004A887
:109BE00001904C4AD188508F6A46A4DF4B480088C8
:109BF000FF21090208400002484909780906084384
:109C00000490444AD189508F6A46A4DF44480088B2
:109C1000FF2109020840000241490978090608436A
:109C200004903C4AD18A05E04BE029E02BE05BE060
:109C300043E034E0508F6A46A4DF3A480068000EE3
:109C400038490968FF2212041140090A08433549BE
:109C500009681212114009020843324909780906BD
:109C6000084304902B4AD18C508F6A46A4DF2E48BB
:109C70000190284AD18D508F6A46A4DF044634E013
:109C8000FFF752F831E01420FFF730FF0020C04307
:109C90001D490880FEF74CFFFEF73CFD25E003233D
:109CA0000022114618480088A9DF04461DE0A87963
:109CB000002801D1FEF72EFD17E0284600F0A8F895
:109CC00013E000BF13211048008876DF044600BF70
:109CD0002646002E06D000BF002211463046FEF771
:109CE00043FD00BF00BF00E000BF00BF00BF26462D
:109CF000002E06D000BF002211463046FEF734FD8C
:109D000000BF00BF05B0F0BD1620002028200020B5
:109D100054200020E0200020582000203E20002079
:109D20003A200020402000200020002010B50848E4
:109D30000078012802D0022807D102E0FEF730FCAB
:109D400004E003200249087000E000BF00BF10BD1E
:109D5000742000200B480078002802D003280DD181
:109D600008E0042008490860012008490860054906
:109D7000087004E002200349087000E000BF00BF43
:109D800070470000742000200025004000200040A3
:109D900010B509480078012807D0022804D003280C
:109DA00006D1FEF7FDFB04E000BFFEF7C8FB00E0B4
:109DB00000BF00BF10BD00007420002010B5FEF7EA
:109DC000EFFB10BD10B504462300FEF79BFB050416
:109DD000070D0A101300FFF7A9FF0CE0FFF7BAFF09
:109DE00009E0FFF7D5FF06E000F008F803E0FFF711
:109DF000E5FF00E000BF00BF10BD000010B5034844
:109E00000078012801D1FEF79FFB10BD74200020CF
:109E10007FB50546AC1D20884549C98B884206D1CF
:109E2000208B012803D1A07E424908607EE0208873
:109E30003F49C98D88421FD1208B04281CD1A07EA8
:109E40003D490870E07E4870207F8870607FC87050
:109E5000FFF77AFA3848007838490874364840786D
:109E600048743548807888743348C078C8740021B5
:109E70003348FEF7B7FE59E021882D48408C8142D7
:109E800054D1208B022851D100BF00BFA17EE27EB9
:109E9000120211430846C107C90F2A480170007811
:109EA000002843D0FEF744FE00202749086004261E
:109EB000204800688C2802D98B201E4908601D4864
:109EC000008881B202AA214800F06CF80023012228
:109ED000920202A91E4800F06FF9164800681D4959
:109EE000C86014480068401E124908608C20194957
:109EF000886001208002091A09184860FF202D306F
:109F000014490860002000900190042168460180F7
:109F10000021418007480190054AD18B508F6A4645
:109F2000A4DFFEF701FFFEF7EBFD00BF7FBD0000E1
:109F3000E0200020542000200020002038210020B4
:109F4000602500201A2000202C2000204C2000201A
:109F5000502100205025002070B548DF044600BF86
:109F60002546002D06D000BF002211462846FEF7E8
:109F7000FBFB00BF00BF70BD014600BF0748007873
:109F8000002801D10820704700BF002901D10E2010
:109F9000F9E70348407808600020F4E782200020B9
:109FA000BC2900203CB5034600BF204800780028AB
:109FB00001D108203CBD00BF002B01D10E20F9E7E4
:109FC000002A01D10E20F5E718688C2805D2186800
:109FD0000001174C2058002801D10720EAE75C68EF
:109FE000186801940090019C18680001104D4019F8
:109FF0000089484320180190009800012C46001960
:10A000004089009C2401641924896043009C240138
:10A01000641964680019019CA04201D80720C9E7AF
:10A02000019C0098546010600020C3E7822000204B
:10A03000882A0020F8B504460D4600BF274800785E
:10A04000002801D10820F8BD00BF002C01D10E204E
:10A05000F9E720688C2805D22068000120490858BB
:10A06000002801D10720EEE7206800011C494018B4
:10A070004089216809011A4A8918098948432168D9
:10A0800009018918496840186168884201D8072089
:10A09000D9E76068FFF7A0FA002801D11020D2E7C5
:10A0A00023681B010E4FDB1962685B68D01A2268B7
:10A0B00012013B46D2181189FEF758F8002901D049
:10A0C0000720C0E700202B460246214600900420CE
:10A0D000FEF772FF06463046B5E7000082200020FA
:10A0E000882A002070B508484469601C002807D001
:10A0F00000F00CF8054629462046FEF737F870BDFB
:10A10000012000074069FAE7001000100120000755
:10A11000006980B270470000F8B5FEF799FF002093
:10A120001E490880FFF7DEFF05468D3DFFF7EEFF75
:10A1300045431B48056000201A49088000BF0DE018
:10A1400000210201184B99500201D218118102011D
:10A15000D21891810201D2185181401C8C28EFD372
:10A16000082012490870FFF7D1FF0090FFF7BAFFEF
:10A17000471EFFF7CBFF47433E4630460099FDF7A9
:10A18000F5FF054628DF0446002C04D101200849CC
:10A190008870084908702046F8BD0000782000202B
:10A1A0007C20002080200020882A0020832000209E
:10A1B000BC29002082200020FFB581B00C46154646
:10A1C0001E4600BF35480078002802D1082005B09F
:10A1D000F0BD00BF002C01D10E20F8E70198002847
:10A1E00001D10E20F3E720688C2805D220680001F9
:10A1F0002B490858002801D10720E8E72068000112
:10A2000027494018408921680901254A8918098988
:10A2100048432168090189184968401861688842E3
:10A2200001D80720D3E7002D06D0206800011C4983
:10A2300040180089A84201DA0720C8E7A819216858
:10A240000901174A89180989884201DD0720BEE7FC
:10A250000198FFF7C1F9002804D03046FFF7BCF998
:10A26000002801D11020B2E76068FFF7B5F9002897
:10A2700001D11020ABE7606881192A460198FDF7EB
:10A280009FFF00952068000105490F580022032117
:10A290002046019BB847002099E70000822000205B
:10A2A000882A0020F8B504460D4600BF4A480078C9
:10A2B000002801D10820F8BD00BF002C01D10E20DC
:10A2C000F9E7002D01D10E20F5E72068002801D123
:10A2D0000E20F0E7FFF71AFFA188884202DBA08872
:10A2E000102801DA0720E6E7E08800281CD0FFF7F5
:10A2F000F9FE471EFFF70AFF4743E088A18848435D
:10A3000036490968401887420ED3FFF7FFFEE188FF
:10A31000A2885143884209DAFFF7F8FE0746A18870
:10A32000FDF73AFF002901D00720C4E72079800714
:10A33000800F002801D00720BDE7294800888C281D
:10A3400001D10420B7E72648008828602348006828
:10A350006860234909880901224A891868684860A9
:10A360001F490988090120685050A0881C490988A4
:10A37000090189180881E0881949098809018918A3
:10A38000488100200090A688E1884E4300BF0098D5
:10A39000401C80B20090FFF7B9FEB04203D2FFF735
:10A3A000B5FE361A00E00026FFF7B0FE0B4909683B
:10A3B00040180A490860002EE9D1094909880901B5
:10A3C000084A89180098888105480088401C04497B
:10A3D000088000206FE70000822000207C20002001
:10A3E00078200020882A0020F8B504460E4615463D
:10A3F0001F4600BF2F480078002801D10820F8BD73
:10A4000000BF002E01D10E20F9E7002C01D10E2053
:10A41000F5E720688C2805D22068000126490858F5
:10A42000002801D10720EAE72068000122494018EE
:10A43000408921680901204A89180989484321680F
:10A4400009018918496840186168884201D80720C5
:10A45000D5E7002D06D02068000117494018008973
:10A46000A84201DA0720CAE7E81921680901124A5F
:10A4700089180989884201DD0720C0E73046FFF7C7
:10A48000ABF8002804D03846FFF7A6F8002801D121
:10A490001020B4E76068FFF79FF8002801D1102072
:10A4A000ADE72B463246214602200097FEF784FD99
:10A4B000A5E7000082200020882A0020F0B585B0A2
:10A4C000064600256A48807801287DD10020684929
:10A4D000887068480078082819D1022E03D100201E
:10A4E0006449087002E0002063490870FEF730FDFF
:10A4F0000546002D09D05E480078142250435C4A7E
:10A50000121D81182846FEF73FF905B0F0BD022E56
:10A5100002D0032E7ED183E05548007814214843B1
:10A520005349091D441855480088401C5349088068
:10A530002078022807D10846008880026188884276
:10A5400001DB012000E0002003902078052805D1E0
:10A5500048480078072801D1012000E0002002903F
:10A560002078042805D143480078072801D101202C
:10A5700000E000200190207804280BD13F4800889B
:10A5800080026188884205DB3A480078002801D1C2
:10A59000012000E0002000900298002808D10198D6
:10A5A000002805D10098002802D10398002825D062
:10A5B0002F48077800202F490870304908802C4820
:10A5C0004078401E2A4900E050E048700846007874
:10A5D000401C0870084600780A2803DB084600780B
:10A5E0000A38087014207843214A121D8118284621
:10A5F000FEF7CAF83846FEF7C1FC00BFFEF7A8FC1C
:10A600000546002D0BD01A48007814225043184AF2
:10A61000121D00E027E081182846FEF7B5F823E078
:10A6200013480078142148431149091D44186078E3
:10A63000401CC0B26070032809D1081F00781422A2
:10A6400050430A4681180D20FEF79EF80AE0FEF7F7
:10A65000CBFB0546002D05D0112D03D02146284601
:10A66000FEF792F800E000BF00BF00BF00BF4CE75C
:10A67000BC29002083200020822000208020002090
:10A6800001484068704700000015014010B50446BD
:10A690000348846003211120FDF754FE10BD000023
:10A6A0000015014010B5012000040A49486009491D
:10A6B000403948601120FDF727FE1120FDF72EFEDE
:10A6C0000120054908602F20FDF724FD01200349E2
:10A6D000087010BD4013014000100140B820002058
:10A6E00010B51120012181400E4A116000BF0120E8
:10A6F00000040D4988600C494039886001200B49ED
:10A7000048602F20FDF706FD0120084988600020E1
:10A71000074908602F20FDF7FDFC0020054908705F
:10A7200010BD000080E100E0401301400010014036
:10A73000A4200020B8200020F0B585B00124002717
:10A740000025FF212D3167480068FDF70FFDC0B2DD
:10A7500004900420FEF702FA0D20FFF7CFF9012044
:10A760006149C86300200C2302460A21009000F0D2
:10A77000C7FA00205D4908805D4908805D4908806E
:10A7800000264BE003A9042000F0EEFA002843D095
:10A790006846007B202800D101276846007B001115
:10A7A000032835D1012C04D0022C11D0032C2DD13B
:10A7B0001DE04E4800880005000C4C4908806846A2
:10A7C000007B0007000F09880843484908801EE005
:10A7D000474800880005000C454908806846007B12
:10A7E0000007000F09880843414908800FE04148ED
:10A7F00000880005000C3F4908806846007B000780
:10A80000000F098808433B49088000E000BF03E0CF
:10A81000002F01D0601CC4B2701CC6B2322EB1DB56
:10A8200000203149C8630D20FFF760F9324852DF3C
:10A830002E48008800042F49098840182F490860D5
:10A840004B21890227480068FDF790FC8C2100907D
:10A85000FDF78CFC0E4601AA2948FFF7A3FB294906
:10A8600002984968884204D12649019809688842BB
:10A8700009D02448029A019906C00121890201A841
:10A88000FFF7D8FB05460498830004221B4901A862
:10A89000FFF7AAFD0546134800681B4908601548E4
:10A8A0000088888012480088C88010480088088185
:10A8B00016480088488110480068C8600021144884
:10A8C000FEF790F9054600BF2E46002E06D000BFC9
:10A8D000002211463046FDF747FF00BF00BF05B01C
:10A8E000F0BD000028200020C02F00403A200020AA
:10A8F0003C2000203E200020402000205C20002042
:10A900004C2000203020002038210020582000203A
:10A910006025002070B500BF094A0A210820FDF714
:10A9200091FF044600BF2546002D06D000BF00223F
:10A9300011462846FDF718FF00BF00BF00BF70BDDD
:10A940000C290020F0B502460C46002037E0012318
:10A950008340194623460B40002B2FD0D5680D406D
:10A96000002D05D101235B04D5680D43D56004E0BB
:10A9700003231B04D5688D43D56005252D070726C5
:10A980003602AD198600AD5903263604B5430526B7
:10A99000360707273F02F6198700F55105252D07D1
:10A9A00007263602AD198600AD591D430526360728
:10A9B00007273F02F6198700F55100BF401C2028E9
:10A9C000C5D3F0BD30B58FB000BF0121684681719D
:10A9D000A449818000BFA44A01A90120A0DF044648
:10A9E00000BF2546002D06D000BF00221146284694
:10A9F000FDF7BAFE00BF00BF0020079000BF684609
:10AA0000007F01090901491C68460177007FF02198
:10AA1000884310306946087700BF00BF6846407F12
:10AA200001090901491C68464177407FF0218843AC
:10AA300010306946487700BF6846807F062188430A
:10AA4000811C684681771C2108A8FDF7D2FB08A865
:10AA5000007802218843811C08A801700078082131
:10AA60008843411808A801700078102188434118D4
:10AA700008A80170002009900B900C9008A800789D
:10AA8000C006C00F002801D007A800E000200D90EC
:10AA900008A80078C007C00F002801D007A800E070
:10AAA00000200E900020009000BF68460078010949
:10AAB0000901491C684601700078F0218843103074
:10AAC0006946087000BF00BF684640780109090167
:10AAD000491C684641704078F0218843103069462F
:10AAE000487000BF6846807806218843811C68460C
:10AAF000817080780821884301466846817080789B
:10AB000010218843014668468170807841084900D9
:10AB1000491C68468170142102A8FDF76AFB68464B
:10AB200003900421018200214182142181820020AE
:10AB3000069000BF0121684681714C49818000BFA9
:10AB400001A802904A4988880B461E3302AA08A928
:10AB5000A2DF044604216846018208A80078082183
:10AB60008843014608A801700078102188430146F7
:10AB700008A801700078C006C00F002801D007A8FF
:10AB800000E000200D9008A80078C007C00F002842
:10AB900001D007A800E000200E90042069468882BA
:10ABA00000BF01216846817130491131818000BFA9
:10ABB00001A802902E4988888B1D02AA08A9A2DF4D
:10ABC000044600BF01216846817128491431818003
:10ABD00000BF01A80290264988880B460E3302AABE
:10ABE00008A9A2DF044600BF0121684681711F4900
:10ABF0004231818000BF01A802901D4988880B4620
:10AC0000163302AA08A9A2DF044600BF0121684644
:10AC1000817116491531818000BF01A80290144945
:10AC200088880B46263302AA08A9A2DF044608A991
:10AC3000087808218843083008A9087000BF01215E
:10AC40006846817109494531818000BF01A80290A1
:10AC5000074988880B462E3302AA08A9A2DF0446BA
:10AC60000FB030BD1118000018200020082A000085
:10AC7000E0200020FEB507460E461446386B00283B
:10AC800001D10720FEBD0020019032E0396B0C227B
:10AC9000019850430D182879801CC0B2009000988C
:10ACA000401CC1B22278501C2070B1541621227869
:10ACB000501C2070B15422789119288800F0F6FCBD
:10ACC000217840182070A88800280EDDA868002888
:10ACD00001D10720D6E7AA8823789819A968FDF73B
:10ACE0006FFA20782979401820700198401CC0B272
:10ACF00001903420C15D01988142C7DC0020C1E78A
:10AD0000F8B507460C4615461E462046FEF7E5FEFA
:10AD100000213046FEF7CEFE1048C460466106981A
:10AD200000280DD03846FEF7D8FE00212846FEF751
:10AD3000C1FE0A4805618760012008494031C862A8
:10AD40004F2000030549486204200860012004499F
:10AD500088600860002003498860F8BD0025004035
:10AD6000002000400021004070B504460D46012639
:10AD70000AE02046641E002804DB7D20C000FDF7A9
:10AD8000B9F901E0002603E0074880680128F0D106
:10AD900000BF002C05DB0020034988600348806960
:10ADA0002870304670BD00000021004000250040A2
:10ADB00070B506460C46154629462046C046C04694
:10ADC00070BD00000146002901D10E2070470248E5
:10ADD00001600020FAE70000D8200020FFB581B014
:10ADE0000C4616461F46002C02D1072005B0F0BDC8
:10ADF00020468107890F002901D1012100E00021AF
:10AE0000002901D10720F1E70948046009480680BC
:10AE1000094807600949019810DF0546002D01D057
:10AE20002846E3E701200649087016202EDFDDE7FB
:10AE3000D0200020D4200020CC200020B1AD010083
:10AE4000D62000200146002901D10E20704702487B
:10AE500001600020FAE70000DC200020F7B506467C
:10AE60000F46002E01D13C4800E03C480446002E2D
:10AE70001FD10220FEF728FE0120FEF725FE00214B
:10AE80000846FEF70DFE1D20FEF71EFE02200521DE
:10AE90000902611888600120052109026118C86053
:10AEA000002005210902611808611D20FEF72EFE11
:10AEB0001EE00220FEF708FE0120FEF705FE00213D
:10AEC0000846FEF7EDFD1C20FEF7FEFD02200521E1
:10AED0000902611888600120052109026118C86013
:10AEE000002005210902611808611C20FEF70EFEF2
:10AEF000012000070521090261184862002F06D0D1
:10AF0000012F06D0022F06D0032F08D105E000251F
:10AF100007E0022505E0042503E0062501E0002501
:10AF200000BF00BF0298002806D001202843052159
:10AF300009026118486503E00520000220184565F4
:10AF40000021FF200930015101200521090261186B
:10AF500008602046FEBD0000003000400040004078
:10AF6000FFB581B000270026019D1F48019D854245
:10AF700001D11D2400E01C2400BF0120A0401B497A
:10AF8000C86000BF27E00398805D052109026918A9
:10AF9000C86100E07F1CFF2009304059002803D120
:10AFA000032000038742F5D303200003874205D125
:10AFB0002046FEF7ABFD002005B0F0BD0021FF20CC
:10AFC000093041510520000228188069C1B2049857
:10AFD0008155701C86B202988642D4DB2046FEF76B
:10AFE00095FD0120E8E7000000300040000500501A
:10AFF00001468888002801DD072070470020FCE713
:10B00000FFB583B00446154603266948007800283A
:10B010000BD1002D06D10698002803D102206449E7
:10B02000087002E00120624908706148007803005E
:10B03000FDF768FA07B805203D6186A1B800FFF763
:10B0400065F880080290FFF761F804994843019081
:10B05000FFF748F8471EFFF759F84743009738466F
:10B06000029A019929DF0646002E02D1022050499A
:10B07000087098E0049828DF0646002E16D1002DAF
:10B0800011D1069800280AD12078042803D107207E
:10B09000474908700AE005204549087006E0042089
:10B0A0004349087002E00320414908707BE0FFF744
:10B0B00019F8471EFFF72AF847430297FFF726F8CB
:10B0C000049948432A460190029929DF0646002E3A
:10B0D00010D1069800280AD12078042803D1062030
:10B0E0003349087006E005203149087002E0042069
:10B0F0002F49087057E0FEF7F5FF471EFFF706F8E7
:10B100004743A8003818618840180290FEF7FEFFF8
:10B1100004994843A9004018618840180190069A94
:10B12000029929DF0646002E09D12078042803D190
:10B1300006201F49087002E005201D49087032E012
:10B14000FEF7E4FF04994843A90047186088820885
:10B150003846216929DF0646002E0BD1002D06D185
:10B160000698002803D107201149087002E0062044
:10B170000F49087017E0FEF7C9FF0190FEF7B2FF14
:10B18000471EFEF7C3FF4743009738460199FCF777
:10B19000EDFF029028DF0646002E02D10720044969
:10B1A000087000E000BF00BF304607B0F0BD0000EF
:10B1B0008320002010B504462046FFF77FF9022CBB
:10B1C00002D0032C0BD100E00AE0064800780028EA
:10B1D00004D0002003490870FDF79CFA00E000BF8E
:10B1E00000BF10BD442000200246501A0002000A91
:10B1F0007047000070B505460D480068401C0C49BA
:10B200000860FF212D310A480068FCF7AFFF0029D4
:10B2100009D0074800680749086000210648FDF783
:10B22000E1FC044602E00020FFF786FA70BD000052
:10B2300028200020382100206025002070B5044619
:10B240000D480068002812D00B4AE169A069126815
:10B250009047054600BF2E46002E06D000BF0022B4
:10B2600011463046FDF780FA00BF00BF02E0A16939
:10B27000E069884770BD0000B4200020FEB50020C2
:10B28000C043019010480468104807686846FDF7FD
:10B29000E3FF0546FEF7AAF90646002D05D001AAF0
:10B2A00021460098FEF71AF801260198FEF7FEF9EC
:10B2B000002800D00126002E02D03846FDF7E2FE1D
:10B2C000002003490870FEBDA4200020A02000201B
:10B2D000B920002010B51420FDF72AF810BD000099
:10B2E000F0B5024624205043324B1B68C118324847
:10B2F0000068401C002802D12F48026059E02E4807
:10B300004B680068242460432A4C24680019406874
:10B31000834217D82848006824235843254B1B68CC
:10B32000C01840684B68C31A23480068242460434F
:10B33000204C2468001943601F48006808621E48BA
:10B34000026036E04B681C4D2C6828680DE024250F
:10B350004543184E3668AD196D685B1B04462425BD
:10B360004543144E3668AD19286A451C002D07D098
:10B37000242545430F4E3668AD196D689D42E6D3CE
:10B38000451C002D0CD0242545430A4E3668AD19C6
:10B390006D68EE1A24254543064F3F68ED196E602F
:10B3A0004B60086224256543024E3668AD192A6257
:10B3B00000BFF0BD94200020A020002070B5024600
:10B3C0002C4C2168084609E0904200D109E0014672
:10B3D00024244443284D2D686419206A441C002C01
:10B3E000F2D100BF441C002C00D170BD814217D1A6
:10B3F000204C246824256C431F4D2D686419246A51
:10B400001C4D2C602C462468641C002C08D101249F
:10B410001A4DAC6000241A4D2C600124194D2C707B
:10B4200024244443144D2D68641963682424444340
:10B43000114D2D686419256A24244C430E4E36683C
:10B44000A419256224244C430B4D2D686419206AED
:10B45000441C002C0CD024244443074D2D6864194F
:10B460006468E51824244443034E3668A4196560D3
:10B4700000BFBAE7A0200020942000200010014067
:10B48000A4200020B9200020FFB581B005460E465B
:10B490001746E900104A12688818694600F049F911
:10B4A0000446002C02D1042005B0F0BD012020701C
:10B4B0006660FFF7E5F8A060E760049820610A98ED
:10B4C0006061E900044A12688818009900F047F9A1
:10B4D000FFF700FF0020E7E79C200020F8B50446B6
:10B4E0000E46E1000C4A12688818694600F021F9FE
:10B4F0000546002D01D10420F8BD022028706E60A1
:10B50000E100054A12688818009900F028F9FFF751
:10B51000E1FE0020F0E700009C200020F8B5204864
:10B520000068401C00283AD00027FFF7A9F804461D
:10B530001C4801682046FFF757FE06461848056874
:10B5400011E0242068431849096844186068B04233
:10B5500000D90BE06068361A6068C719256A204672
:10B56000FFF76CFE00BF681C0028EAD100BF0F483F
:10B5700000780F490978884209D10D480078401CAD
:10B58000C0B20B490870022801D100200870084899
:10B590000078800007490F50FFF79CFE00BFF8BD00
:10B5A000A0200020A420002094200020B020002013
:10B5B000B1200020A820002010B51120FCF7B8FE13
:10B5C00010BD0000F8B500BF0020254B0722052163
:10B5D0000090FDF79FF9054600BF2E46002E06D0CD
:10B5E00000BF002211463046FDF7BEF800BF00BF85
:10B5F00000BF1C4A01211C48FDF752F9044600BF58
:10B600002546002D06D000BF002211462846FDF732
:10B61000ABF800BF00BF154A00211548FDF740F9FF
:10B62000044600BF2546002D06D000BF002211466B
:10B630002846FDF799F800BF00BF0E4A01210E48C9
:10B64000FDF72EF9044600BF2546002D06D000BFA9
:10B65000002211462846FDF787F800BF00BFF8BD5D
:10B66000A4250020F19101001C200020319A010046
:10B6700020200020F5B101002420002030B5034631
:10B680001078C01C1F2801DD0C2030BD0224157865
:10B69000681C10704C550A241578681C10704C55A5
:10B6A0001578681C10704B550020EEE702460A70B2
:10B6B000FF20000210400012487002207047F8B5C9
:10B6C00005460F4616461C466868002801D107202B
:10B6D000F8BD2078801C298840181F2801DD0C2027
:10B6E000F6E72878401CC1B22278501C2070B15473
:10B6F0002178481C207077542A8823789819696823
:10B70000FCF75EFD20782978401820700020DFE7E4
:10B7100010B5FDF773FD012802D0032804D101E024
:10B72000002403E0012401E0022400BF00BF204602
:10B7300010BD70B502460B465078411C9078884287
:10B7400000D100211078884201D1002070BD19601D
:10B7500050781826704355682C182046F6E741703B
:10B760007047FFB581B0074615460A9E0096022233
:10B770003846049B029900F014F80446002C02D0CD
:10B78000204605B0F0BD0096102229463846049B9D
:10B7900000F007F80446002C01D02046F1E7002015
:10B7A000EFE7FFB587B006461D46109C00200690C7
:10B7B00020780590002747E0B900706841180A8892
:10B7C0006846028149884181002203A902A865DFF9
:10B7D00004900498002802D004980BB0F0BD68468D
:10B7E000017B099881422ED10698002801D00020C3
:10B7F00000E00220019020786946097B41180198F9
:10B8000008181F2801DD0C20E7E70698002809D159
:10B810002078401C20702278511C08982170A85470
:10B82000012006902078421903A902A865DF049040
:10B830000498002801D00498CFE720786946097B56
:10B840004018207000BF7F1C3088B842B4DC0698D6
:10B85000002806D021780598401C081AC1B2059826
:10B8600029540020B9E7000088B80100002000201A
:10B87000E00000002085010068B90100E020002000
:10B88000681A0000308501004353544E5F35544D13
:10B89000303A000000000000000000000000FFFF40
:10B8A0000000000000000000000000000000000098
:10B8B0000000000000000000000000000000000088
:10B8C0000600000000000000000000000000000072
:10B8D0000000000000000000000000000000000068
:10B8E00000000000000000000024F4000000FFFF42
:10B8F0000100000000000000000000000000000047
:10B900000000000000000000000000000000000037
:10B910000000000000000000000000000000000027
:10B920000000000000000000000000000000000017
:10B930000000000000000000000000000000000007
:10B9400000000000000000000000000000000000F7
:10B9500000000000000000000000000000000000E7
:08B960000000000000000000DF
:04000005000180C1B5
:00000001FF
