:020000040001F9
:10600000C03A0020796101009361010095610100AF
:106010000000000000000000000000000000000080
:106020000000000000000000000000009761010077
:106030000000000000000000996101009B61010068
:106040009D6101009D6101009D6101009D61010054
:106050009D610100000000009D6101009D61010043
:106060009D6101009D6101009D6101009D61010034
:106070009D6101009D6101009D6101009D61010024
:106080009D610100E56301009D6101009D610100CA
:106090000D6401009D610100156401009D61010016
:1060A0009D6101009D6101000000000000000000F2
:1060B00000000000000000000000000000000000E0
:1060C0000348854600F000F900480047B587010005
:1060D000C03A0020401E00BF00BF00BF00BF00BF8D
:1060E00000BF00BF00BF00BF00BF00BF00BFF1D1B5
:1060F00070470000401E00BF00BF00BF00BF00BFD0
:1061000000BF00BF00BF00BF00BF00BF00BFF1D194
:1061100070470000401E00BF00BF00BF00BF00BFAF
:1061200000BF00BF00BF00BF00BF00BF00BFF1D174
:1061300070470000056885F3088846680A4AEFF34F
:1061400005839A42304602D1084CA6463047074C98
:10615000064D0646064FF0B4034C034D024E024F67
:10616000F0B404480047000000000000FFFFFFFFFC
:1061700000000021F9FFFFFF0321094802680A43DC
:106180000260084802680A430260074880470748DF
:106190000047FEE7FEE7FEE7FEE7FEE7FEE700005A
:1061A00024050040540500404D640100C160010019
:1061B00030B50B46014600202022012409E00D469F
:1061C000D5409D4205D31D469540491B2546954027
:1061D00040191546521E002DF1DC30BD70B500246B
:1061E0002546002801DA01244042002901DA012570
:1061F0004942FFF7DDFFAC4200D04042002C00D006
:10620000494270BD10B5431A934209D283188818C9
:1062100003E0401E01785B1E1970521EF9D210BDBA
:1062200003460B439B0703D009E008C9121F08C0AF
:10623000042AFAD203E00B780370401C491C521E5A
:10624000F9D210BDD2B201E00270401C491EFBD24F
:1062500070470022F6E710B513460A460446194671
:10626000FFF7F0FF204610BDF0B51FB40646002032
:1062700082B005464024019100901BE0019922461E
:106280000F46304600F042F8049A059B801A994167
:1062900010D310461946224600F028F8361A8F41CE
:1062A0000197224601200021009F00F01FF83818B6
:1062B0004D4100902046641E0028DFDC019B0098C1
:1062C0002946324607B0F0BD064C0125064E05E0D2
:1062D000E36807CC2B430C3C98471034B442F7D307
:1062E000FFF7F2FE8CA70100ACA7010010B5202A31
:1062F00004DB0146203A9140002010BD914020234C
:106300009C1A0346E3401943904010BD10B5202A63
:1063100004DB0846203AD040002110BD0B46D34094
:10632000D0402024A21A91400843194610BD000015
:10633000C206D20E01219140014A1160704700004F
:1063400080E200E0C206D20E01219140014A1160B4
:106350007047000000E100E0C206D20E012191402A
:10636000014A11607047000000E200E010B500280B
:1063700019DA1A4A03071B0F083B9B089B00D258E7
:106380008307DC0EFF23A3409A438B071B0E840771
:10639000E40EA3401A43114B0407240F083CA40841
:1063A000A4001A5118E00E4A03231B02D2188308D6
:1063B0009B00D2588307DC0EFF23A3409A438B0730
:1063C0001B0E8407E40EA3401A43054B032424024A
:1063D0001B198408A4001A5110BD00001CED00E038
:1063E00000E100E010B500200749086000210648E0
:1063F00041608160C1600020034940390860486005
:1064000004F004F810BD00004011014010B503F085
:10641000ADFE10BD70B50C480068002810D00A48C9
:1064200000688047044600BF2546002D06D000BF07
:1064300000221146284600F079FB00BF00BF01E0B2
:1064400001F0CEFF70BD0000F020002010B502F07A
:1064500079F8002805D0074807494860C81307495C
:10646000886102F053F8002802D0012004498860B6
:1064700010BD0000DFFF07C000050040006C0040B9
:10648000000600400FB410B504A9074B02AA0398F8
:1064900000F02AF8044602A9002000F05FFA204626
:1064A00010BC08BC04B018475D69010030B47446E4
:1064B000641E2578641CAB4204D3635D5B00E31863
:1064C00030BC18471D46F8E702E008C8121F08C193
:1064D000002AFAD170477047002001E001C1121F65
:1064E000002AFBD170470000FFB591B00F4605466A
:1064F000002606E025280AD0149A139990476D1CAF
:10650000761C28780028F5D1304615B0F0BD00245F
:1065100000940121F34A029400E004436D1C2B789F
:106520000846203B98401042F7D128782A280ED000
:10653000022128780246303A092A15D8009A0A23FF
:106540005A43303A80180C436D1C0090F1E701CF9C
:106550000090002805DA01204003044300984042DF
:106560000090022004436D1C28782E2815D10420A9
:10657000044368786D1C2A280AD101CF6D1C029053
:106580000BE002990A225143303940186D1C0290E9
:106590002878014630390929F3D928786C2810D099
:1065A00006DC4C281AD068280ED06A2817D104E0DF
:1065B000742813D07A2812D110E00120400504433A
:1065C0000CE00121090501E0032109050C4369786C
:1065D000814203D10120000524186D1C6D1C287810
:1065E00003906E281ED00CDC632831D004DC002818
:1065F0008AD0582811D1B2E064287BD069280CD108
:1066000078E073282DD004DC6F2870D0702804D176
:10661000A7E075286CD078286BD0149A139990470E
:10662000761C62E06002400F022807D003280AD0DF
:10663000042838680AD006603F1D56E03868F11714
:1066400006604160F8E738680680F5E70670F3E712
:106650003878694608740020487404A80390012023
:1066600003E0386803900020C0433F1D61070FD549
:10667000002101E00199491C029A0191914213DA2B
:106680008142F7DB019A0399895C0029F2D10BE082
:10669000002101E00199491C01918142FADB019A34
:1066A0000399895C0029F5D101990098139A401A41
:1066B00000902146149B00F03BF90199801946187F
:1066C00007E0039803990078491C0391149A1399E1
:1066D00090470198401E0190401CF2D12146149B26
:1066E000139A009800F014F986196D1C09E741E02F
:1066F00033E034E00A200021049005916002410F4C
:10670000022905D001CFC2179446032905D007E01E
:10671000FF1DFF08FF0003CF06E000B2C21794463A
:10672000042902D140B2C1178C460022614694452B
:1067300006DA0A460021404291418C462D2102E0B2
:10674000210504D52B216A461176012103E0E107DA
:1067500001D02021F7E7019154E00A200BE010203E
:1067600009E0102004900021042004430820059132
:10677000029003E008200021059104906002410F7F
:10678000022905D001CF00229446032906D006E055
:10679000FF1DFF08FF0003CF8C4603E080B20429F1
:1067A00000D1C0B20021019121072BD50399702996
:1067B00006D0049A1021059B4A401A4305D00EE0EA
:1067C00040216A461176012108E06146014306D066
:1067D00030216A4611760399517602210191049A7B
:1067E0000821059B4A401A430CD16146014301D15F
:1067F000610707D530216A4611760121019102997E
:10680000491E02910399582904D037A103910FA979
:106810000F910DE039A1F9E76146059B049AFFF756
:1068200023FD039B8C469B5C0F9A521E0F921370A4
:1068300061460143F0D10F9807A9081A2030039050
:10684000600704D5012000048443029801E0012080
:1068500002900399884201DD401A00E000204118AF
:106860000290019809180098401A0090E00306D49D
:106870002146149B139A009800F05AF886190020BC
:10688000049008E006A9085C149A139990470498AC
:10689000401C761C049001998842F3DBE0030CD580
:1068A0002146149B139A009800F042F8861904E0E0
:1068B000149A302013999047761C0299481E029032
:1068C0000029F5DC08E00F980F990078491C0F911A
:1068D000149A13999047761C0399481E0390002937
:1068E000F1DCFBE60928010030313233343536372C
:1068F000383961626364656600000000303132330C
:1069000034353637383941424344454600000000AB
:10691000F8B5044600251E461746880404D405E051
:1069200039462020B0476D1C641EF9D52846F8BDB5
:10693000FFB50446002581B01E46C80301D53027A7
:1069400000E02027880404D505E038460399B047C5
:106950006D1C641EF9D5284605B0F0BD0A68531CAD
:106960000B6010707047F8B504460F4616460025B8
:10697000002030702078002809D032463946204661
:1069800001F0E1FF0546002D01D02846F8BDA078B2
:10699000002808D03146384600F08AFA0546002D16
:1069A00001D02846F2E7A08800280ADD33463A469F
:1069B0000121201D03F00AFE0546002D01D02846C6
:1069C000E4E7E06800280BD00020E1680856324672
:1069D000394603F0CBFD0546002D01D02846D5E70A
:1069E000208A00280CDD3B4606220221204610307A
:1069F000009603F03DFE0546002D01D02846C5E770
:106A0000208B00280CDD3B4607220321204618304E
:106A1000009603F02DFE0546002D01D02846B5E76F
:106A2000208C00280CDD3B46152214212046203006
:106A3000009603F01DFE0546002D01D02846A5E76F
:106A4000A06A002809D032463946A06A01F0B6F89B
:106A50000546002D01D0284698E7E06A002809D0B5
:106A600032463946E06A01F039FF0546002D01D073
:106A700028468BE73420005D002809DD3246394680
:106A8000204603F01BF80546002D01D028467DE77F
:106A900028467BE701468888002808D088680028B7
:106AA00005D08868007804221040002801D1072012
:106AB00070470020FCE7000038B5684602F0CAF9CC
:106AC000044600BF2546002D06D000BF0022114617
:106AD000284600F02BF800BF00BF0098002802D025
:106AE000142001F0B1FF084873DF044600BF2546BB
:106AF000002D06D000BF00221146284600F016F8EF
:106B000000BF00BF38BD00009421002070B574DFC5
:106B1000044600BF2546002D06D000BF00221146C6
:106B2000284600F003F800BF00BF70BD00BFBFF3F0
:106B30004F8F04480449C860BFF34F8F00BF00BFA8
:106B4000FEE700000400FA0500ED00E0F8B5044699
:106B500017480078142148431549091D0E5C081F89
:106B60000078142148431249091D4018806800012B
:106B700010490D580E480078142148430C49091D4E
:106B800040184088091F0090097814225143084A90
:106B9000121D89180B69111F097814225143044AE8
:106BA000121D89180846083022463146A847F8BD0C
:106BB000842B0020502C0020F8B505460E461746C1
:106BC00005200090114800781149097888421BD0AF
:106BD0000F480478007801F001FF0D4908700D4856
:106BE000008860430C49096840182860E0000B49A0
:106BF0000968401880883080E00008490968085812
:106C000038600020009000BF0098F8BDB12000203F
:106C1000B0200020B2200020AC200020A8200020BE
:106C20000EB504E068468188009A029890476A464B
:106C300001A902A8FFF7C0FF0028F3D00EBD000095
:106C400030B50346481CC004040C10468507AD0F40
:106C5000002D01D1012500E00025002D01D10720E4
:106C600030BD084802601019074D28600020074D0C
:106C70002870074D287007480380074801800020CE
:106C8000EEE70000A8200020AC200020B12000206A
:106C9000B0200020B2200020B420002070B50346B0
:106CA0000C4619480068002801D1082070BD002A50
:106CB00001D10720FAE7002B01D10720F6E70021D8
:106CC0001CE024204843104D2D68285C002814D176
:106CD0000125242048430C4E36683554242048436F
:106CE000094D2D684019447024204843064D2D68F5
:106CF0004019826119600020D8E7491C03480078D8
:106D00008142DEDB0420D1E7BC200020B820002037
:106D1000FFB581B00E4617461C4620468107890FF5
:106D2000002901D1012100E00021002902D1072022
:106D300005B0F0BD002C01D10720F9E702F05CFCA2
:106D400026490A98086026480670264804600025EF
:106D50000CE0002124206843224A126811542420A8
:106D60006843204A1268801801756D1CB542F0DB3B
:106D700024207043041903201B4908701B48046039
:106D8000183400250CE0E900184A12688818002120
:106D90000170417087704460182179430C196D1C93
:106DA000032DF0DB0020C043114908600020114989
:106DB0000870114908701420FFF7BAFA0321142053
:106DC000FFF7D4FA1420FFF7BDFA019802F0EAFBAE
:106DD00002F0E2FB094908600020A9E7DC2000205E
:106DE000B8200020BC200020C0200020C4200020AB
:106DF000C8200020D8200020D9200020CC2000204E
:106E0000FEB504460D46164616480068002801D116
:106E10000820FEBD14480078844201D2052D01D21D
:106E20000720F6E7242060430E490968085C012822
:106E300001D00820EDE7242060430A490968401882
:106E40004078012801D1284600E00020074603F0E1
:106E5000E6FB3B462A4621460096019003F08CFA59
:106E6000D7E70000BC200020B820002070B5044601
:106E70000D480068002801D1082070BD0B4800783B
:106E8000844201D30720F8E72420604306490968BB
:106E9000085C012801D00820EFE703F0C0FB05469D
:106EA000214603F093FAE8E7BC200020B820002038
:106EB000F8B505460C462078001D1F2801DD0C2082
:106EC000F8BD684679DF0646002E01D03046F7E768
:106ED00003212278501C2070A95419212278501CBB
:106EE0002070A954207841196846008803F05CFBA3
:106EF0002178401820700020E2E7000070B50022E1
:106F00000521C90308480068FFF77AFF044600BF5F
:106F10002546002D06D000BF002211462846FFF767
:106F200005FE00BF00BF70BD1C20002070B50948E1
:106F30000068FFF79BFF044600BF2546002D06D0E2
:106F400000BF002211462846FFF7F0FD00BF00BF3A
:106F500070BD00001C200020F0B591B004460D4625
:106F60003C20005D002819D00020099000BF08A82F
:106F7000007901090901491C08A801710079F02173
:106F80008843103008A9087100BF697B08A84171C7
:106F9000807906218843801C08A988711C210AA8D1
:106FA000FFF757F908A8007A02218843811C08A836
:106FB0000172007A102188433C21095D002901D02B
:106FC000012100E00021090110221140084308A915
:106FD000087200200B900D900E903C20005D002860
:106FE00001D009A800E000200F900020109000BF01
:106FF0000121684681737449818100BF002002909D
:10700000A97B68460172E97B4172807A0621884338
:10701000811C68468172807A08218843014668464F
:107020008172807A10218843014668468172807A95
:107030004108490068468172287B0190142104A808
:10704000FFF707F903A8049002A8059004216846F9
:107050000183002141830421818300200890A088BE
:10706000A31D04AA0AA9A2DF064600BF01216846A3
:1070700081735549C91C818100BF03A80490A08871
:1070800023460E3304AA0AA9A2DF064600BF012147
:10709000684681734C493131818100BF03A8049057
:1070A000A0882346163304AA0AA9A2DF064600BF19
:1070B0000121684681734449091D818100BF03A8ED
:1070C0000490A0882346263304AA0AA9A2DF064614
:1070D00000BF0121684681733B491139818100BF9E
:1070E00003A80490A08823461E3304AA0AA9A2DF9D
:1070F000064600BF012168468173334934318181DE
:1071000000BF03A80490A08823462E3304AA0AA92E
:10711000A2DF0646002E02D0304611B0F0BDA868AE
:1071200000284DD000BF0121684681732749818125
:1071300000BF00200290287C6946087200BF6846A4
:10714000407A0109090168464172407AF02188437A
:107150006946487200BF6846807A06218843811CD0
:1071600068468172807A08218843014668468172A8
:10717000807A10218843014668468172807A4108EE
:10718000490068468172A96800F0DEF907461421BB
:1071900004A8FFF75EF803A8049002A805906846CB
:1071A000078300214183018B81830890E088224678
:1071B000363204A9A3DF0646002E03D03046ACE7E2
:1071C0000020E0860020A8E7192A00000829000016
:1071D00070B50446042C01D1102400E040240020A6
:1071E00016494860200208210843154948600120DB
:1071F000086014490860002013490860002501E078
:10720000681CC5B210480068002801D1FF2DF7DBCB
:1072100000200D49086001200A4948600020084903
:10722000086089684B22120151430846FF21FEF78E
:10723000BFFF410040180549088070BD0073004041
:107240000075004000700040007100405C2000208C
:10725000F3B593B00D4600211291119113980028B7
:1072600014D01398FFF716FC0446002C02D02046D9
:1072700015B0F0BD12AA09A91398FFF774FB0446D4
:10728000002C01D02046F3E709AE00E00026002DD7
:1072900013D0284602F0D0FD0446002C01D0204631
:1072A000E6E711AA01A92846FFF75DFB0446002C7A
:1072B00001D02046DCE701AF00E0002710A80379E9
:1072C0003A46017A304672DFD2E70000F8B504464C
:1072D0000D46286820600020C043608729793C2043
:1072E0000155FF213820015500BF012168468170FA
:1072F0000849018000BF221D69460120A0DF064623
:10730000002E01D03046F8BD29462046FFF724FE66
:10731000F9E700001118000010B502480068FFF7F7
:10732000A5FD10BD7820002070B586B004460E463D
:10733000002C04D0002E02D07068002802D10E204C
:1073400006B070BD0020C0432080204B0FCB01ADA4
:107350000FC51F4869468882163101A863DF0546BC
:10736000002D01D02846EBE7221D05A90120A0DF52
:107370000546002D01D02846E2E76846807DA071D1
:10738000204600F071FD0546002D01D02846D7E7C4
:10739000204600F0F9FC0546002D01D02846CFE735
:1073A0003146204600F0CAFD0546002D01D0284692
:1073B000C6E77068A062B068002801D0B068E062DB
:1073C0000120044908700020BAE7000074A70100FA
:1073D000301500007D20002070B505460C46002DBC
:1073E00001D0002C00D170BDA86A00281FD02088D1
:1073F000102806D011280ED0502807D0512814D1BB
:107400000EE02146284601F0F5FB0FE02146284614
:1074100001F0FAFC0AE02146284601F095FC05E05F
:107420002146284601F094FC00E000BF00BF00BFE9
:10743000D9E7000070B586B004460D461646002C0C
:1074400002D10E2006B070BD20881A49884203D0B0
:1074500019480078002801D10820F3E700210191A4
:10746000102168468288501C83B2144801938154CD
:1074700068468188481C82B210480192455468468B
:107480008188481C82B20D48019246540020029027
:10749000039004900590218A684601810121817240
:1074A0000021818101A8049004480590208802A948
:1074B000A6DFC7E7FFFF00007D2000207E20002020
:1074C00010B5044621460348FFF786FF204601F029
:1074D00007FB10BD28260020F8B504460E4630688C
:1074E0002060307960710020C04320840021222078
:1074F00001554C20015300BF01216846817011499C
:10750000018000BFA21D69460120A0DF0546002DB5
:1075100001D02846F8BD3146204600F08BFE0546D6
:10752000002D01D02846F5E7B068002808D0314684
:10753000204600F079F80546002D01D02846E9E7FD
:107540000020E7E70D180000F8B505460E460024B8
:1075500032782146641C6A5472782146641C6A544D
:1075600000BF022C01D1012000E000200746002FBF
:1075700006D100BF002211461046FFF7D7FA00BF20
:1075800000BF2046F8BD0000F8B500BF0023502220
:107590002249082002F046FB054600BF2E46002E79
:1075A00006D000BF002211463046FFF7BFFA00BFE9
:1075B00000BF00BF002000900090684660DF0446D6
:1075C00000BF2546002D06D000BF002211462846E8
:1075D000FFF7ACFA00BF00BF114802F017FB0446EA
:1075E00000BF2546002D06D000BF002211462846C8
:1075F000FFF79CFA00BF00BF0A4802F047FB0446B1
:1076000000BF2546002D06D000BF002211462846A7
:10761000FFF78CFA00BF00BFF8BD000078290020FA
:10762000C174010095A0010030B58FB005460C462D
:107630001C2108A8FEF70DFE08A90878022188433E
:10764000801C08A90870002009900B900C900D90E8
:107650000E9000BF0121684681721D49018100BF63
:1076600000200190E17B68460171217C41718079A5
:1076700006218843811C68468171807908218843EE
:107680000146684681718079102188430146684629
:10769000817180794108490068468171142103A8ED
:1076A000FEF7D7FD02A8039001A8049001216846C7
:1076B00081820021C18201210183A0680790E888AE
:1076C0002B46103303AA08A9A2DF0FB030BD00007B
:1076D000382A000070B5214800688047B1203CDF9F
:1076E000044600BF2546002D06D000BF00221146EB
:1076F0002846FFF71BFA00BF00BF11DF044600BF9A
:107700002546002D06D000BF002211462846FFF76F
:107710000DFA00BF00BF1249486913DF044600BFDD
:107720002546002D06D000BF002211462846FFF74F
:10773000FDF900BF00BF0B480078002801D000F021
:10774000E7FA162001218140074A116000BF00F0CE
:10775000A5FE0349486900F009F870BDE420002047
:1077600000100010EC20002080E200E010B504467C
:107770002046FEF7DFFC10BD10B586B01420059042
:107780000024254800882549884242D024480078B2
:1077900000283ED0002001900290039004902148E0
:1077A000018968468180012181710021018105A83C
:1077B00003902BE01C48007880001C49401804907E
:1077C00001A915480088A6DF04461948844204D060
:1077D000082C02D01748844200D118E0002C06D0B3
:1077E00000BF002211462046FFF7A0F90EE00E4828
:1077F0000068FE2805D9002009490870FFF77EFBC4
:1078000005E009480068401D07490860D2E700BF4D
:1078100000BF06B010BD000010200020FFFF0000D8
:10782000142000204421002034200020D4210020F6
:107830000430000001340000F0B585B00F2758482F
:107840000078142148435649091D4418E5682078FA
:10785000022804D0042823D005286FD16FE02069C6
:1078600003905048008886026088801B049003982B
:1078700080190390A0888019451901218902049874
:10788000884206D2049882082846039921DF0746D9
:1078900005E0FF2201322846039921DF074676E002
:1078A000A06800014049401800890490A0680001C8
:1078B000401840890390A068000140184068029079
:1078C0000298A84205D103990498484361888842E8
:1078D00002D0A06865280DD101200007006981B29F
:1078E0002846FEF765FC2F4909884618304620DFF8
:1078F000074622E001200007006981B22846FEF712
:1079000057FC064601200007006980B27043281A20
:107910008008019001200007006980B2711C484373
:1079200061884919401A8008009031462046009B22
:10793000019A02F089FA074600BF28E026E00120FC
:107940000007006981B22846FEF732FC0646A0888F
:10795000411901200007006980B27043081A8008AD
:107960000490A0884019618842180120000700692E
:1079700080B2711C4843801A80080390314620462B
:10798000039B049A02F060FA074600E000BF00BFC4
:10799000002F02D1012002498870384605B0F0BDA1
:1079A000842B0020A4200020502C002010B500249F
:1079B00006484078002807DDFFF73EFF0446002C0C
:1079C00002D0112C00D10024204610BD842B0020B1
:1079D0000023142141430C4A535414214143891874
:1079E0004B8064231421414389188B6000231421A8
:1079F00041438918CB601421414389180B6114213C
:107A0000414389188B807047882B0020FFB581B0D7
:107A1000064617460024204840780A2837D01E48DA
:107A200000781D4949784018C4B20A2C02DB204670
:107A30000A38C4B2142060431749091D0E5414209B
:107A4000604340180761142060434118029805C83C
:107A5000CA608860142060430F4A121D8018049980
:107A600041801420604380180A9981800025101FEE
:107A70008078002805D1FFF7DFFE0546112D00D1E3
:107A8000002505484078401C0349487000E0042563
:107A9000284605B0F0BD0000842B002010B5002062
:107AA00008490880084908700849087048708870BB
:107AB000002403E02046FFF78BFF641C0A2CF9D357
:107AC00010BD0000A4200020A7200020842B00204F
:107AD000FEB51E480068401C002834D01B480068D2
:107AE000242148431A4909684018456801F054FDAB
:107AF0000190184804682146019802F0E5FAC61C76
:107B000015480078002801D101F058FDAE4201D29D
:107B1000284600E0304604192402240A20460F4972
:107B2000086000BF01F038FD00900199009802F054
:107B3000CBFAC71C2046019902F0C6FA874201D948
:107B400002F0B2FC01E001F057FDFEBDC8200020AC
:107B5000BC200020CC200020E02000204015014067
:107B600001460888062808DB08881922D2019042BD
:107B700005DD0888104A904201D0072070474888E8
:107B8000062808DB48881922D201904205DD488882
:107B9000094A904201D00720F0E70888064A90423F
:107BA00008D04888904205D008884A88904201DD74
:107BB0000720E3E70020E1E7FFFF0000F8B50646F5
:107BC0000D4614462078801D1F2801D90C20F8BDD1
:107BD0003046FFF7C5FF0746002F01D03846F6E7CD
:107BE00005212278501C2070A95412212278501CA3
:107BF0002070A95422785119308802F0D5FC2178E0
:107C00004018207022785119708802F0CDFC21783C
:107C1000401820700020DAE710B514210648FEF75E
:107C200018FB002004490870486008721920800180
:107C300008820020488210BD9421002010B504461F
:107C4000FFF79AFD10BD000010B514484068C1054B
:107C5000C90D002920D00A46103A50B200280DDA8A
:107C60000E4B1C330407240F083CA408A4001B5926
:107C70008407E40EE3401B069B0F0BE0084B032434
:107C800024021B198408A4001B598407E40EE34056
:107C90001B069B0FD8B210BD0420FCE700ED00E0EE
:107CA00000E100E0F8B506460C4620780300FEF738
:107CB000FDFB0A060D0E0A0B0C10110F1209FFF73F
:107CC00009FD1BE000BF00BF00BF00BF00BF00BF39
:107CD00000BF00BF00BF032201213046FFF7AAFB0F
:107CE000054600BF2F46002F06D000BF00221146D8
:107CF0003846FEF71BFF00BF00BF00BF00BFF8BD46
:107D0000704700000149086070470000E42000202F
:107D100030B587B001A91A4800F07CF9044600BFCD
:107D20002546002D06D000BF002211462846FEF74A
:107D3000FDFE00BF00BF0598014610310722114823
:107D4000FEF760FA14220F4824380499FEF75AFA15
:107D500010220C4810380599FEF754FA09482438C7
:107D600000DF044600BF2546002D06D000BF0022DC
:107D700011462846FEF7DAFE00BF00BF07B030BD4F
:107D8000E8200020B432002010B58EB004461C213B
:107D900007A8FEF75EFA6846007F0821884341186D
:107DA00068460177007F10218843411868460177B3
:107DB000002008900A900B900C900D90A1796846D5
:107DC0008171284981800020009000BF68460078BA
:107DD00001090901684601700078F021884369466D
:107DE000087000BF00BF6846407801090901491CBE
:107DF000684641704078F0218843103069464870E9
:107E000000BF6846807806218843811C68468170DF
:107E10008078082188430146684681708078102167
:107E20008843411868468170807841084900491CA0
:107E300068468170142102A8FEF70BFA01A802908F
:107E4000684603900021018241821721818200202F
:107E50000690A0882346103302AA07A9A2DF0EB01D
:107E600010BD00003115000010B58EB004461C2175
:107E700007A8FEF7EEF96846007F04218843011D3C
:107E800068460177002008900A900B900C900D90A6
:107E9000A17968468171284981800020009000BF47
:107EA0006846007801090901684601700078F021F0
:107EB00088436946087000BF00BF684640780109E2
:107EC0000901491C684641704078F0218843103010
:107ED0006946487000BF6846807806218843811C47
:107EE0006846817080780821884301466846817021
:107EF0008078102188430146684681708078410867
:107F00004900491C68468170142102A8FEF7A1F9B6
:107F100001A8029068460390002101824182142149
:107F2000818200200690A0882346083302AA07A970
:107F3000A2DF0EB010BD00003215000030B58FB0CA
:107F400004460D461C2108A8FEF783F908A800780E
:107F500002218843811C08A80170002009900B9021
:107F60000C900D900E90A17968468172284901818C
:107F70000020019000BF6846007901090901491CF1
:107F8000684601710079F021884310306946087114
:107F900000BF00BF68464079010909016846417188
:107FA0004079F02188436946487100BF684680796E
:107FB00006218843811C68468171807908218843A5
:107FC00001466846817180791021884301466846E0
:107FD0008171807941084900491C684681711421EA
:107FE00003A8FEF736F902A8039001A80490022125
:107FF000684681820021C182022101830795A08801
:108000002346203303AA08A9A2DF0FB030BD000029
:1080100034150000024600BF21480078002801D135
:108020002048704700BF002A02D11E48801DF8E793
:10803000002902D11B48801DF3E700BF10780128FA
:1080400006DA10780C235843174B1858002801D132
:108050001448E6E700BF00BF9078072807DA907859
:108060001C235843114BC018807EFF2802D10D48B5
:108070000830D6E700BF5078182358430C4BC0187F
:10808000001DC86090781C235843084BC3180B612F
:1080900000234B61002048608860086000BFC0E793
:1080A0009420002008800000782B0020782A0020EF
:1080B0003C2B0020014614480078144A1278904264
:1080C0001DD011480078401C0F4A107010460078EF
:1080D000022801D1002010700B48007880000C4A63
:1080E000105808600B4A086812688018094A106026
:1080F000104600680002000A10600120704700204E
:10810000086000BFFAE70000D8200020D920002036
:10811000D0200020CC20002070B5049C044E45687F
:108120003668B54202D10025024E357070BD0000A0
:108130004C20002049200020F0B50346002426E012
:10814000164E366824277E43154F3F68F01946685F
:108150009E4203D94668F61A46601DE046689B1B9E
:10816000466834190026466006750C4E35680B4F7C
:10817000066A3E600669002E08D00E193602360ADD
:1081800086600669C66016680662156000BF03480F
:108190000068401C0028D3D100BFF0BDC8200020DB
:1081A000BC20002070B58EB0054600BF08A8007D39
:1081B00001090901491C0D9108A8007DF02188439F
:1081C00010300D9000BF05A871DF6846407D05A9FD
:1081D000897805AAD27805AB1B79019302920391A5
:1081E000049005A84079009005A883792A460BA140
:1081F00007A8FEF747F9182207A90DA87CDF044657
:1082000000BF2646002E06D000BF00221146304691
:10821000FEF78CFC00BF00BF0EB070BD4353544E40
:1082200045545F2534733A257825782578257825B7
:108230007825780030B595B005460C4600200D90A5
:1082400000BF08A8007D01090901491C08A80175A3
:10825000007DF0218843103008A9087500BF217BFC
:1082600008A84175807D06218843811C08A8817576
:108270001C210EA8FDF7EDFF08A8007E1021884301
:10828000103008A9087600200F90119012900DA8C8
:1082900013900020149000BF012168468177204987
:1082A000818300BF00200690617B68460176A17B38
:1082B0004176807E06218843811C68468176807ED7
:1082C00008218843014668468176807E10218843D4
:1082D000014668468176807E41084900491C68460F
:1082E0008176142108A8FDF7B4FF07A8089006A816
:1082F000099001AA0021284600F014F801466846BA
:108300000185002141851421818501A80C90E88810
:108310002B46083308AA0EA9A2DF15B030BD000015
:10832000372A0000F7B582B00446174600200190B6
:1083300001256079002803D00421019808430190A9
:108340002220005D002803D00221019808430190FB
:108350000398FF280ADD012101980843019079194B
:10836000039802F02AF94019C5B205E00398C2B299
:108370002846691CCDB23A544C20005B002803DD2E
:108380001021019808430190002618E0A81C142829
:108390000BD94C20005B801B420070002346243325
:1083A000C1181846FDF72EFF0DE07919720023461B
:1083B0002433985A02F001F94019C5B2761C4C20BA
:1083C000005BB042E2DC00BF4C20005B801B81B24E
:1083D0004C20015301983870284605B0F0BD0000CC
:1083E000F8B529480078002800D1F8BD2748006872
:1083F000002801D1012000E0002005462448006843
:10840000002801D1012000E00020064600BF002D19
:1084100014D1684651DF0446052C01D101250CE03A
:10842000002C06D000BF002211462046FEF77EFB3E
:1084300003E0164900980968884700BF002E1AD14A
:1084400014480088009069461348006861DF0446BC
:10845000052C01D101260DE0002C06D000BF002222
:1084600011462046FEF762FB04E00B48006808490D
:108470000968884700BF002D02D0002E00D000E020
:10848000C5E700BF00BFB0E7FA20002000210020B0
:10849000FC200020F8200020F420002010B500204F
:1084A0000A490A680FE0012181401140002909D0E2
:1084B00041B2CC06E40E0123A340044C8034236077
:1084C00000BF00BF401C2028EDD310BD00E100E03C
:1084D000FEB5044602200190A08A6B4601AA002145
:1084E000A5DF0546002D07D0E06A002802D0284607
:1084F000E16A88470020FEBD6E46304602F04EF825
:108500000746F807C00F00BFF5E700000C48008CD5
:10851000C0B2012812D10A48808C0007000F002841
:108520000CD10748806AF0210840402806D1044851
:10853000C06A0840002801D1012070470020FCE7F4
:10854000C00F00F01948008CC0B201282CD1174888
:10855000808C0007000F002826D11448806AF02183
:108560000840002806D11148C06A0840002801D1FF
:10857000012070470D48806AF0210840102806D17C
:108580000A48C06A0840002801D10120F1E70748E5
:10859000806AF0210840302806D10448C06A0840AB
:1085A000002801D10120E4E70020E2E7C00F00F03D
:1085B00001468807800F002801D101207047002064
:1085C000FCE70000FEB52B48006801902A480078BF
:1085D000009040E00098C0002849096844182578B8
:1085E00035E01820684361680F18681CC5B2A07890
:1085F000A84200D100253878022802D0032823D1D0
:108600000EE02421786848431D4909684618307DEA
:10861000002804D0786801F049FE0020307514E08D
:108620000CE01449096824225143154A126888183D
:10863000002101750F4A016A116000BF0D480068F2
:10864000401C0028EDD100E000BF00BF00BF6078F3
:10865000A842C6D100BF0098411EC9B200910028AF
:10866000B8D1044801680198814201D00120FEBDC3
:108670000020FCE7C8200020C0200020C4200020EB
:10868000BC200020FEB507464348006802904348DE
:108690000078019071E00198C000414909684518CF
:1086A00063E0781C002807D03E46242070433D49F3
:1086B00009684418276A29E02978182359436A6809
:1086C00050182978491C29702978AA78914201D13B
:1086D00000212970466824217143324A12688C189F
:1086E0000178012902D1217D002900D03DE0816877
:1086F000A160C168E160016921614169E1612A49C4
:108700000978002901D00021A16000BF2749A06895
:108710000968401A0002000A2549884208D2234904
:10872000A068096801F0D0FCE1684018606011E0C1
:108730001E48A168006801F0C7FC0090E16800983D
:10874000814204D9E1680098081A606001E00020C5
:10875000606000BF0020A060E06001202075801EE6
:108760002062304601F034FD00BF781C002898D10B
:1087700028786978884294D100BF0198411EC9B217
:108780000191002887D1044801680298814201D0F4
:108790000120FEBD0020FCE7C8200020C0200020F2
:1087A000C4200020BC200020E1200020CC2000209C
:1087B000FFFF7F000EB500240320052109070722D3
:1087C000120289180865142000F07AF9142000F0CC
:1087D0003BF900221146104601F064FA3449086062
:1087E00034A0006800906B466A460121304800685A
:1087F00001F0DAFA30480521090707221202891828
:10880000486301F057FEFEF7BFFE01F051F800F09B
:10881000D7FB0121890268460181642141812748F3
:108820000190274901A800F0B3FC26480068FFF733
:10883000B9FC01F055F8FFF7EFF900BF012000BFC8
:1088400038212148FDF705FD5920204908801820CE
:1088500088801F491D48816001201B4988801D496F
:108860001948816019481849C86200211648FEF766
:10887000EFFC044600BF2546002D06D000BF0022B5
:1088800011462846FEF752F900BF00BFFEF714F963
:1088900000220121C90310480068FEF7B1FA142034
:1088A00000F006F900BFFEF7BBF900F0C2FAFAE7E4
:1088B00028200020B90000000303000019810100F6
:1088C0005020002044200020E42500201C26002009
:1088D000BC2100204020002024200020F8B50546BF
:1088E0000E4614462879801CC7B22078801CC01917
:1088F0001F2801DD0C20F8BD781CC1B22278501C65
:108900002070B154FF212278501C2070B15422787D
:108910009119288801F048FE217840182070A88815
:1089200000280EDDA868002801D10720E3E7AA8807
:1089300023789819A968FDF765FC207829794018F3
:1089400020700020D7E7F7B584B004460F4606989C
:108950000678B01C1F2803DC6078801C1F2802DD0D
:108960000C2007B0F0BD1F20801B801E85B2029531
:10897000B11C781802A97DDF03900398002801D06C
:108980000398EEE72078022808D168460089A842BB
:1089900004DC09200190684605890BE0082001905D
:1089A0006078002804D06078A84201DC657801E096
:1089B00068460589681CC2B23046711CCEB23A5472
:1089C0003046721CD6B20199395406980178A81C19
:1089D0000818C1B2069801700020C2E70146044899
:1089E0000088814201DA481C00E00020C0B27047D4
:1089F000B420002070B5064611480068FEF736FA2C
:108A0000044600BF2546002D06D000BF00221146B7
:108A10002846FEF78BF800BF00BF132109480088E5
:108A200076DF044600BF2546002D06D000BF002299
:108A300011462846FEF77AF800BF00BF70BD00005F
:108A4000182000201020002001B505E00098401EED
:108A500000900348FDF73EFB00980028F6D108BDC2
:108A6000E703000010B58A0005231B070724240232
:108A70001B1984001A5110BD10B58A0005231B076D
:108A8000072424021B1984001A5110BD032105225A
:108A9000120707231B02D2188300D150704703210D
:108AA0000522120707231B02D2188300D1507047FA
:108AB00001218140014AD16070470000000500504B
:108AC00001218140014A916070470000000500507B
:108AD00001218140014A916070470000000500506B
:108AE0007CB505460024288839285BD008DC01289D
:108AF00038D010280BD0112837D0192865D147E07D
:108B000050284BD052283CD055285ED14BE0A88845
:108B1000354908801420FFF7D3FFFEF7EFF908214D
:108B20006846018013214180042181802821C18071
:108B300069462D48008875DF044600BF2646002E92
:108B400006D000BF002211463046FDF7EFFF00BF00
:108B500000BF26490968080A6421FDF729FB24485B
:108B6000016033E0FEF708FE30E01420FFF7A0FFBD
:108B70000020C0431C490880FEF7D8F9FDF79CFF90
:108B800024E00022114618480088A9DF04461DE0B1
:108B9000A879002801D1FDF78FFF17E0284600F0E3
:108BA000F1F813E000BF13210F48008876DF044678
:108BB00000BF2646002E06D000BF002211463046D8
:108BC000FDF7B4FF00BF00BF00E000BF00BF00BF63
:108BD0002646002E06D000BF002211463046FDF783
:108BE000A5FF00BF00BF7CBD102000203420002066
:108BF000582000208A880280704770B588B00446EB
:108C00000D460220694608742046FFF761FC0028E3
:108C100008D1FF20FE3069468882208804A9A8DF99
:108C200008B070BD002069468882208804A9A8DFAA
:108C30000646002E01D03046F2E700BFA87E0300B2
:108C4000FDF734FC0979061D343C444C715479001D
:108C5000002069460871288B022805DAA97E0622C1
:108C60002046FEF7E7FBDBE701206946087228464D
:108C70001B30039001A92046A26A904761E00120C1
:108C800069460871288B022805DAA97E062220464B
:108C9000FEF7D0FBC4E701206946087228461B3066
:108CA000039001A92046A26A90474AE00220694643
:108CB000087101A92046A26A904742E00320694654
:108CC000087101A92046A26A90473AE0042069464B
:108CD000087101A92046A26A904732E00520694642
:108CE000087101A92046A26A90472AE0288B032830
:108CF00005DA032208212046FEF79CFB90E7284670
:108D00001B3001F04BFC694608810889002802D11C
:108D10000720087102E006206946087101A9204673
:108D2000A26A90470DE009206946087101A9204612
:108D3000A26A904705E0A97E03222046FEF77AFB4F
:108D40006EE700BF00206BE70022D243028070472D
:108D5000F8B504460E46B51D2878022811D168885A
:108D6000218A88420DD1A91C2046FFF746FF0746FD
:108D7000002F05D0E06A002802D03846E16A884713
:108D800000BFF8BD7CB50546AC1D21881848808918
:108D900081422CD1208B022829D100BF00BFA17EA7
:108DA000E27E120211430846C107C90F1148017043
:108DB000007800281BD0FEF7B9F800200E490860A3
:108DC0000E4802880068401C0C4B91B26A4618603D
:108DD0000B4800F055F80023012292026946094829
:108DE00000F060F9FEF7C8FCFEF788F800BF7CBD14
:108DF000442100201420002034200020582000208E
:108E000050200020D42100203EB505460C46E088C5
:108E1000298988420CD1082168460170A17F01711F
:108E200020462030029069462846AA6A904700BF33
:108E30003EBD70B540DF044600BF2546002D06D07C
:108E400000BF002211462846FDF770FE00BF00BF9C
:108E500070BD0000014600BF07480078002801D11E
:108E60000820704700BF002901D10E20F9E7034810
:108E7000407808600020F4E7A6200020842B002022
:108E80003CB5034600BF20480078002801D10820E7
:108E90003CBD00BF002B01D10E20F9E7002A01D113
:108EA0000E20F5E71868642805D218680001174CF1
:108EB0002058002801D10720EAE75C68186801946F
:108EC0000090019C18680001104D4019008948432A
:108ED00020180190009800012C4600194089009C40
:108EE0002401641924896043009C24016419646886
:108EF0000019019CA04201D80720C9E7019C0098F5
:108F0000546010600020C3E7A6200020502C0020F1
:108F1000F8B504460D4600BF27480078002801D167
:108F20000820F8BD00BF002C01D10E20F9E7206811
:108F3000642805D22068000120490858002801D182
:108F40000720EEE7206800011C494018408921688D
:108F500009011A4A891809894843216809018918B1
:108F6000496840186168884201D80720D9E76068DD
:108F7000FFF71EFB002801D11020D2E723681B0158
:108F80000E4FDB1962685B68D01A226812013B46FB
:108F9000D2181189FDF70CF9002901D00720C0E78C
:108FA00000202B460246214600900420FEF72EFDAD
:108FB00006463046B5E70000A6200020502C0020D1
:108FC00070B5FEF76BFD00202E4908802E484069E1
:108FD000401C002808D001221207126991B22A4AC7
:108FE0005069FDF7E5F802E00120000740696538A7
:108FF00001210907096989B2484324490860002012
:109000002349088000BF0DE000210201214B995047
:109010000201D21811810201D21891810201D218E5
:109020005181401C6428EFD308201B490870164862
:109030004069401C002808D001221207126991B231
:10904000114A5069FDF7B4F802E0012000074069B9
:10905000401E01210907096989B2484306460120DB
:109060000007006981B23046FDF7A2F8054620DF0F
:109070000446002C04D10120084988700849087072
:10908000204670BD9C20002000100010A020002071
:10909000A4200020502C0020A7200020842B00209A
:1090A000A6200020FFB581B00C4615461E4600BF25
:1090B00035480078002802D1082005B0F0BD00BF77
:1090C000002C01D10E20F8E70198002801D10E20D4
:1090D000F3E72068642805D2206800012B4908586E
:1090E000002801D10720E8E720680001274940183F
:1090F000408921680901254A89180989484321685E
:1091000009018918496840186168884201D8072018
:10911000D3E7002D06D0206800011C4940180089C3
:10912000A84201DA0720C8E7A81921680901174AEF
:1091300089180989884201DD0720BEE70198FFF7F9
:1091400037FA002804D03046FFF732FA002801D160
:109150001020B2E76068FFF72BFA002801D1102039
:10916000ABE7606881192A460198FDF74BF8009536
:109170002068000105490F58002203212046019B69
:10918000B847002099E70000A6200020502C0020BE
:10919000F8B504460D4600BF58480078002801D1B4
:1091A0000820F8BD00BF002C01D10E20F9E7002DEA
:1091B00001D10E20F5E72068002801D10E20F0E74C
:1091C000A08801210907096989B2884202DCA088C8
:1091D000042801DA0720E4E7E088002830D0484876
:1091E0004069401C002808D001221207126991B280
:1091F000434A5069FCF7DCFF02E0012000074069A8
:10920000401E01210907096989B24843E188A28803
:1092100051433C4A12688918884211D3E088A188DA
:10922000484301210907096989B288420ADDA188FA
:1092300001221207126990B2FCF7D0FF002901D079
:109240000720AEE720798007800F002801D0072093
:10925000A7E72D480088642801D10420A1E72A4807
:109260000088286027480068686027490988090144
:10927000264A8918686848602349098809012068D6
:109280005050A08820490988090189180881E08880
:109290001D4909880901891848810027A688E188A5
:1092A0004E4300BF781C87B201200007006980B2DE
:1092B000B04205D201200007006980B2361A00E0F2
:1092C000002601200007006980B20E490968401895
:1092D0000C49086001200007006980B2B042E1D962
:1092E000094800880001094940188781064800881C
:1092F000401C05490880002053E70000A6200020FC
:1093000000100010A02000209C200020502C0020E5
:10931000F8B504460E4615461F4600BF2F48007894
:10932000002801D10820F8BD00BF002E01D10E2079
:10933000F9E7002C01D10E20F5E72068642805D25A
:109340002068000126490858002801D10720EAE7D3
:109350002068000122494018408921680901204AFB
:109360008918098948432168090189184968401802
:109370006168884201D80720D5E7002D06D0206813
:109380000001174940180089A84201DA0720CAE7FE
:10939000E81921680901124A89180989884201DD02
:1093A0000720C0E73046FFF703F9002804D038460D
:1093B000FFF7FEF8002801D11020B4E76068FFF73E
:1093C000F7F8002801D11020ADE72B4632462146A0
:1093D00002200097FEF71AFBA5E70000A620002058
:1093E000502C0020FEB50546002650488078012804
:1093F0007ED100204D4988704D480078082811D151
:10940000022D03D100204A49087002E0002049499A
:109410000870FEF7CBFA0646002E02D03046FDF764
:1094200095FBFEBD022D02D0032D79D174E03F489B
:109430000078142148433D49091D44183E480088DE
:10944000401C3D4908802078022807D10846008842
:1094500080026188884201DB012000E0002007468D
:109460002078052805D132480078072801D101204D
:1094700000E0002002902078042805D12C480078D4
:10948000072801D1012000E0002001902078042865
:109490000BD12948008880026188884205DB244876
:1094A0000078002801D1012000E0002000900298FF
:1094B000002807D10198002804D10098002801D184
:1094C000002F1FD000201A4908703046FDF73EFBE0
:1094D00016490878FEF77CFA0020174908801348DF
:1094E0004078401E1149487008460078401C00E052
:1094F00019E00870084600780A2803DB084600785F
:109500000A380870FEF752FA0646002E02D030469E
:10951000FDF71CFB05E003E00D20FDF717FB00E065
:1095200000BF00BF00BF00BF7BE70000842B00200E
:10953000A7200020A6200020A420002070B51448F9
:1095400000881449884210D013211148008876DF22
:10955000044600BF2546002D06D000BF002211465C
:109560002846FDF7E3FA00BF01E0FDF7CFFAFDF76B
:10957000D3FE044600BF2546002D06D000BF0022C2
:1095800011462846FDF7D2FA00BF00BF70BD0000AB
:1095900010200020FFFF00000148406870470000D5
:1095A0000015014010B504460348846003211120D2
:1095B000FCF7DCFE10BD00000015014010B50120D5
:1095C00000040A4948600949403948601120FCF705
:1095D000AFFE1120FCF7B6FE0120054908602F20E0
:1095E000FCF798FD01200349087010BD40130140AD
:1095F00000100140E020002010B511200121814021
:109600000E4A116000BF012000040D4988600C491A
:109610004039886001200B4948602F20FCF77AFD13
:109620000120084988600020074908602F20FCF7C6
:1096300071FD00200549087010BD000080E100E0C8
:109640004013014000100140CC200020E020002009
:10965000F0B58BB000200A90099005218B48006876
:10966000FCF7A6FDC0B208900024002600250420C7
:109670000790FDF7ADFD0D20FFF722FA0120844988
:10968000C86300200C2302460A21009000F05CFA17
:109690000A20059000273BE006A9042000F088FA84
:1096A000002833D06846007E202803D06846007E1C
:1096B0000D2804D10A98401CC0B20A9026E06846E2
:1096C000007E0011032821D10A98012804D0022825
:1096D0000AD0032818D10FE02005040C6846007E4C
:1096E0000007000F044310E03005060C6846007EBA
:1096F0000007000F064308E02805050C6846007EB9
:109700000007000F054300E000BF00BF781CC7B290
:10971000322FC1DB00205E49C8630D20FFF7C8F976
:1097200004A852DF5B480088FF21090208400002BC
:10973000584909780906084303905749C88803AB7C
:1097400007AA0021A4DFFF2000022840000229060A
:10975000084303905049C88903AB07AA0021A4DF3E
:10976000FF200002204000022106084303904A49DE
:10977000C88A03AB07AA0021A4DF0498000EFF22C9
:10978000120404991140090A084312120499114065
:109790000902084304990906084303903E49C88C0E
:1097A00003AB07AA0021A4DF38480068000E374940
:1097B0000968FF2212041140090A08433349096865
:1097C000121211400902084330490978090608437A
:1097D00003903149C88B03AB07AA0021A4DF2F48AF
:1097E0000068006803902C49C88D03AB07AA0021CC
:1097F000A4DF0990052125480068FCF7D9FC000A80
:1098000064210090FCF7D4FC0F4601AA2448FFF71E
:1098100037FB244902984968884204D121490198BC
:109820000968884209D01F48029A019906C001219F
:10983000890201A8FFF76CFB0990089883000422B5
:10984000124901A8FFF764FD099010480068164905
:10985000086008468580C68004810E4800884881DB
:109860000498C86000211148FDF7F2FC099000BF80
:10987000099F002F06D000BF002211463846FDF791
:1098800055F900BF00BF0BB0F0BD00003020002034
:10989000C02F00405C200020042100204420002034
:1098A0005020002038200020BC210020E42500208A
:1098B00070B500BF094A0A210820FDF7C1F9044626
:1098C00000BF2546002D06D000BF002211462846C5
:1098D000FDF72CF900BF00BF00BF70BDC8290020F4
:1098E00030B58FB00321049114210AA8FCF7B1FC14
:1098F00000200A90012108A8017304A80C9000BF61
:1099000008A8007D01090901491C08A80175007D0E
:10991000F0218843103008A9087500BF00BF0AA8CD
:10992000407B000900010AA948730AA8407BF02186
:1099300088430AA9487300BF00BF0AA8807B0009BA
:10994000000188730AA8807BF02188430AA98873E4
:1099500000BF00BF08A8C07D01090901491C08A873
:10996000C175C07DF0218843103008A9C87500BFBB
:1099700000BF0AA8007C000900010AA908740AA80F
:10998000007CF02188430AA9087400BF4648FDF70F
:10999000A3FD044600BF2546002D06D000BF0022CF
:1099A00011462846FDF7C2F800BF00BF142105A8E4
:1099B000FCF74FFC00BF08A8407801090901491CC9
:1099C00008A841704078F0218843103008A94870F9
:1099D00000BF00BF05A8807B00090001401C05A94D
:1099E000887305A8807BF0218843103005A988730F
:1099F00000BF00BF05A8C07B00090001C87305A80F
:109A0000C07BF021884305A9C87300BF00BF08A828
:109A1000007901090901491C08A801710079F021A8
:109A20008843103008A9087100BF0020059000216C
:109A30006846017600200790642108A8017005A9F6
:109A40001A48FDF743FC044600BF2546002D06D00A
:109A500000BF002211462846FDF768F800BF00BF8E
:109A60000020019002900390114802900020039082
:109A70000F48029001206946888001A90D48FDF732
:109A800053FC044600BF2546002D06D000BF00222F
:109A900011462846FDF74AF800BF00BF0648FEF70A
:109AA00031F90FB030BD0000442100200421002016
:109AB000A57C0100282600203D950100FEB5074643
:109AC0000E461446386B002801D10720FEBD002049
:109AD000019032E0396B0C22019850430D1828791F
:109AE000801CC0B200900098401CC1B22278501C6B
:109AF0002070B15416212278501C2070B154227865
:109B00009119288800F050FD217840182070A8880D
:109B100000280EDDA868002801D10720D6E7AA8812
:109B200023789819A968FCF76DFB207829794018EB
:109B300020700198401CC0B201903420C15D019892
:109B40008142C7DC0020C1E7F8B507460C46154640
:109B50001E462046FEF7A3FF00213046FEF78CFF8D
:109B60001048C4604661069800280DD03846FEF7BC
:109B700096FF00212846FEF77FFF0A4805618760AF
:109B8000012008494031C8624F200003054948625E
:109B9000042008600120044988600860002003490F
:109BA0008860F8BD002500400020004000210040F2
:109BB00070B504460D4601260AE02046641E0028C2
:109BC00004DB7D20C000FCF795FA01E0002603E0ED
:109BD000074880680128F0D100BF002C05DB002079
:109BE00003498860034880692870304670BD0000D2
:109BF000002100400025004070B506460C46154681
:109C000029462046C046C04670BD000001460029D6
:109C100001D10E207047024801600020FAE70000E1
:109C2000FC200020FFB581B00C4616461F46002CD4
:109C300002D1072005B0F0BD20468107890F002919
:109C400001D1012100E00021002901D10720F1E725
:109C500009480460094806800948076009490198D5
:109C600010DF0546002D01D02846E3E70120064914
:109C70000870162026DFDDE7F4200020F820002001
:109C8000F0200020F99B0100FA2000200146002965
:109C900001D10E207047024801600020FAE7000061
:109CA00000210020F7B506460F46002E01D13C48A2
:109CB00000E03C480446002E1FD10220FEF7E6FEDD
:109CC0000120FEF7E3FE00210846FEF7CBFE1D2033
:109CD000FEF7DCFE022005210902611888600120E0
:109CE000052109026118C8600020052109026118D8
:109CF00008611D20FEF7ECFE1EE00220FEF7C6FE06
:109D00000120FEF7C3FE00210846FEF7ABFE1C2033
:109D1000FEF7BCFE022005210902611888600120BF
:109D2000052109026118C860002005210902611897
:109D300008611C20FEF7CCFE012000070521090266
:109D400061184862002F06D0012F06D0022F06D0DE
:109D5000032F08D105E0002507E0022505E00425D2
:109D600003E0062501E0002500BF00BF029800289F
:109D700006D001202843052109026118486503E047
:109D800005200002201845650021FF2009300151FF
:109D9000012005210902611808602046FEBD00006F
:109DA0000030004000400040FFB581B00027002691
:109DB000019D1F48019D854201D11D2400E01C2406
:109DC00000BF0120A0401B49C86000BF27E00398E6
:109DD000805D052109026918C86100E07F1CFF2031
:109DE00009304059002803D1032000038742F5D3EE
:109DF00003200003874205D12046FEF769FE0020BC
:109E000005B0F0BD0021FF200930415105200002BE
:109E100028188069C1B204988155701C86B20298D6
:109E20008642D4DB2046FEF753FE0120E8E700001F
:109E3000003000400005005001468888002801DD00
:109E4000072070470020FCE7FFB583B004460F46AB
:109E5000154603268D48007800280BD1002D06D129
:109E60000698002803D102208849087002E00120EA
:109E700086490870854800780300FCF717FB07FD4A
:109E800005314E84BAD7FD0081484069401C002846
:109E900008D001221207126991B27D4A5069FCF77D
:109EA00087F902E0012000074069401E01210907EF
:109EB000096989B248430290012000070069000443
:109EC000820C01200007006980B2784301460298A5
:109ED00021DF0646002E02D102206C490870D0E036
:109EE000384620DF0646002E16D1002D11D10698E7
:109EF00000280AD12078042803D10720634908707C
:109F00000AE005206149087006E004205F490870F6
:109F100002E003205D490870B3E05D484069401CE1
:109F2000002808D001221207126991B2584A5069DC
:109F3000FCF73EF902E0012000074069401E0121C4
:109F40000907096989B24843012109070290096993
:109F500089B2794308462A46029921DF0646002E37
:109F600010D1069800280AD12078042803D10620B1
:109F70004649087006E005204449087002E00420C4
:109F8000424908707DE042484069401C002808D0E2
:109F900001221207126991B23D4A5069FCF708F993
:109FA00002E0012000074069401E012109070969FC
:109FB00089B24843A9004018618840180121090767
:109FC0000290096989B27943AA00891862888818C1
:109FD000069A029921DF0646002E09D1207804282E
:109FE00003D106202949087002E00520274908709E
:109FF00047E001200007006980B27843AB00C01839
:10A000000290608882082169029821DF0646002EAE
:10A010000BD1002D06D10698002803D107201B493B
:10A02000087002E00620194908702AE018484069C3
:10A03000401C002808D001221207126991B2144A6C
:10A040005069FCF7B5F802E0012000074069401EA6
:10A0500001210907096989B24843019001200007DD
:10A06000006981B20198FCF7A3F8029020DF064650
:10A07000002E04D1072000E002E00449087000E04F
:10A0800000BF00BF304607B0F0BD0000A720002091
:10A090000010001010B504462046FFF7A3F9022C6B
:10A0A00002D0032C0BD100E00AE00648007800281B
:10A0B00004D0002003490870FCF7FEFC00E000BF5C
:10A0C00000BF10BD482000200246501A0002000ABE
:10A0D0007047000070B5064611490968491C104ACE
:10A0E000084611600521FCF763F8002914D00C48DC
:10A0F00000680C49086000210B48FDF7A9F80446E8
:10A1000000BF2546002D06D000BF0022114628467C
:10A11000FCF70CFD00BF02E00020FFF799FA70BDCC
:10A1200030200020BC210020E425002070B504462A
:10A130000D480068002812D00B4AE169A069126836
:10A140009047054600BF2E46002E06D000BF0022D5
:10A1500011463046FCF7EAFC00BF00BF02E0A169EF
:10A16000E069884770BD0000DC200020FEB50020BB
:10A17000C043019010480468104807686846FDF71E
:10A1800099FF0546FEF71EFA0646002D05D001AAE6
:10A1900021460098FDF7D0FF01260198FEF772FADC
:10A1A000002800D00126002E02D03846FDF790FC92
:10A1B000002003490870FEBDCC200020C8200020EC
:10A1C000E120002010B51420FCF7C6F810BD0000F7
:10A1D000F0B5024624205043324B1B68C118324868
:10A1E0000068401C002802D12F48026059E02E4828
:10A1F0004B680068242460432A4C24680019406896
:10A20000834217D82848006824235843254B1B68ED
:10A21000C01840684B68C31A234800682424604370
:10A22000204C2468001943601F48006808621E48DB
:10A23000026036E04B681C4D2C6828680DE0242530
:10A240004543184E3668AD196D685B1B04462425DE
:10A250004543144E3668AD19286A451C002D07D0B9
:10A26000242545430F4E3668AD196D689D42E6D3EF
:10A27000451C002D0CD0242545430A4E3668AD19E7
:10A280006D68EE1A24254543064F3F68ED196E6050
:10A290004B60086224256543024E3668AD192A6278
:10A2A00000BFF0BDBC200020C820002070B50246D1
:10A2B0002C4C2168084609E0904200D109E0014693
:10A2C00024244443284D2D686419206A441C002C22
:10A2D000F2D100BF441C002C00D170BD814217D1C7
:10A2E000204C246824256C431F4D2D686419246A72
:10A2F0001C4D2C602C462468641C002C08D10124C1
:10A300001A4DAC6000241A4D2C600124194D2C709C
:10A3100024244443144D2D68641963682424444361
:10A32000114D2D686419256A24244C430E4E36685D
:10A33000A419256224244C430B4D2D686419206A0E
:10A34000441C002C0CD024244443074D2D68641970
:10A350006468E51824244443034E3668A4196560F4
:10A3600000BFBAE7C8200020BC2000200010014038
:10A37000CC200020E1200020FFB581B005460E462C
:10A380001746E900104A12688818694600F058F923
:10A390000446002C02D1042005B0F0BD012020703D
:10A3A0006660FFF7F9F8A060E760049820610A98FA
:10A3B0006061E900044A12688818009900F056F9B3
:10A3C000FFF700FF0020E7E7C4200020F8B50446AF
:10A3D0000E46E1000C4A12688818694600F030F910
:10A3E0000546002D01D10420F8BD022028706E60C2
:10A3F000E100054A12688818009900F037F9FFF764
:10A40000E1FE0020F0E70000C4200020F8B520485D
:10A410000068401C00283AD00027FFF7BDF804462A
:10A420001C4801682046FFF74FFE0646184805689D
:10A4300011E0242068431849096844186068B04254
:10A4400000D90BE06068361A6068C719256A204693
:10A45000FFF76CFE00BF681C0028EAD100BF0F4860
:10A4600000780F490978884209D10D480078401CCE
:10A47000C0B20B490870022801D1002008700848BA
:10A480000078800007490F50FFF79CFE00BFF8BD21
:10A49000C8200020CC200020BC200020D820002094
:10A4A000D9200020D020002010B51120FBF754FF48
:10A4B00010BD0000F8B500BF0020254B0722052184
:10A4C0000090FCF725FC054600BF2E46002E06D066
:10A4D00000BF002211463046FCF728FB00BF00BF3A
:10A4E00000BF1C4A01211C48FCF7D8FB044600BFF2
:10A4F0002546002D06D000BF002211462846FCF755
:10A5000015FB00BF00BF154A00211548FCF7C6FB2C
:10A51000044600BF2546002D06D000BF002211468C
:10A520002846FCF703FB00BF00BF0E4A01210E487E
:10A53000FCF7B4FB044600BF2546002D06D000BF43
:10A54000002211462846FCF7F1FA00BF00BFF8BD13
:10A55000582600203D7C010018200020F5890100CC
:10A560001C200020D5A001002420002030B5034687
:10A570001078C01C1F2801DD0C2030BD0224157886
:10A58000681C10704C550A241578681C10704C55C6
:10A590001578681C10704B550020EEE701460878CE
:10A5A0004A7812021043704702460A70FF200002E8
:10A5B0001040001248700220704702460A70FF20C7
:10A5C000000210400012487002207047F8B505469E
:10A5D0000F4616461C466868002801D10720F8BDC2
:10A5E0002078801C298840181F2801DD0C20F6E700
:10A5F0002878401CC1B22278501C2070B1542178B8
:10A60000481C207077542A88237898196968FBF7CA
:10A61000F9FD20782978401820700020DFE710B578
:10A62000FDF712FB012802D0032804D101E0002429
:10A6300003E0012401E0022400BF00BF204610BD5A
:10A6400070B502460B465078411C9078884200D184
:10A6500000211078884201D1002070BD1960507827
:10A660001826704355682C182046F6E7417070474D
:10A67000FFB581B0074615460A9E0096022238466D
:10A68000049B029900F014F80446002C02D02046E6
:10A6900005B0F0BD0096102229463846049B00F014
:10A6A00007F80446002C01D02046F1E70020EFE730
:10A6B000FFB587B006461D46109C00200690207806
:10A6C0000590002747E0B900706841180A8868467D
:10A6D000028149884181002203A902A865DF049014
:10A6E0000498002802D004980BB0F0BD6846017BA6
:10A6F000099881422ED10698002801D0002000E060
:10A700000220019020786946097B411801980818B9
:10A710001F2801DD0C20E7E70698002809D12078E2
:10A72000401C20702278511C08982170A8540120E8
:10A7300006902078421903A902A865DF04900498C6
:10A74000002801D00498CFE720786946097B40189B
:10A75000207000BF7F1C3088B842B4DC0698002807
:10A7600006D021780598401C081AC1B205982954D2
:10A770000020B9E723D1BCEA5F782315DEEF12127F
:10A780000000000035544D5F00000000ACA7010040
:10A790000020002004010000C8640100B0A80100EE
:10A7A00004210020BC190000D86401000000000052
:10A7B000000000000000000000000000FFFF00009B
:10A7C0000000000000000000000000000000000089
:10A7D0000000000000000000000000000000000079
:10A7E0000000000000000000000000000600000063
:10A7F00084A701000000000000000000000000002D
:10A800000000000000000000000000000024F40030
:10A810000000000000000000000000000000000038
:10A820000000000000000000000000000000000028
:10A830000000000000000000000000000000000018
:10A840000000000000000000000000000000000008
:10A8500000000000000000000000000000000000F8
:10A8600000000000000000000000000000000000E8
:10A8700000000000000000000000000000000000D8
:10A8800000000000000000000000000000000000C8
:10A89000017D010000000000000000000000000039
:10A8A00000000000000000000000000000000000A8
:04000005000160C1D5
:00000001FF
