:020000040001F9
:10600000303B0020356101004F610100516101000A
:106010000000000000000000000000000000000080
:1060200000000000000000000000000053610100BB
:1060300000000000000000005561010057610100F0
:106040005961010059610100596101005961010064
:10605000596101000000000059610100596101000F
:106060005961010059610100596101005961010044
:106070005961010059610100596101005961010034
:1060800059610100E162010059610100596101009B
:1060900009630100596101001163010059610100A8
:1060A000596101005961010000000000000000007A
:1060B00000000000000000000000000000000000E0
:1060C0000348854600F0A0F800480047FD75010030
:1060D000303B0020401E00BF00BF00BF00BF00BF1C
:1060E00000BF00BF00BF00BF00BF00BF00BFF1D1B5
:1060F00070470000401E00BF00BF00BF00BF00BFD0
:1061000000BF00BF00BF00BF00BF00BF00BFF1D194
:1061100070470000401E00BF00BF00BF00BF00BFAF
:1061200000BF00BF00BF00BF00BF00BF00BFF1D174
:10613000704700000321094802680A4302600848CA
:1061400002680A4302600748804707480047FEE7A5
:10615000FEE7FEE7FEE7FEE7FEE70000240500405D
:106160005405004049630100C160010030B50B4691
:10617000014600202022012409E00D46D5409D4221
:1061800005D31D469540491B2546954040191546A7
:10619000521E002DF1DC30BD70B5002425460028CC
:1061A00001DA01244042002901DA01254942FFF7C2
:1061B000DDFFAC4200D04042002C00D0494270BD0F
:1061C00003460B439B0703D009E008C9121F08C010
:1061D000042AFAD203E00B780370401C491C521EBB
:1061E000F9D27047D2B201E00270401C491EFBD2C6
:1061F00070470022F6E710B513460A4604461946D2
:10620000FFF7F0FF204610BD064C0125064E05E0C5
:10621000E36807CC2B430C3C98471034B442F7D3C7
:10622000FFF752FF6495010084950100C206D20E6B
:1062300001219140014A11607047000080E200E0B6
:10624000C206D20E01219140014A11607047000040
:1062500000E100E0C206D20E01219140014A116026
:106260007047000000E200E010B5002819DA1A4A71
:1062700003071B0F083B9B089B00D2588307DC0ECB
:10628000FF23A3409A438B071B0E8407E40EA34011
:106290001A43114B0407240F083CA408A4001A5108
:1062A00018E00E4A03231B02D21883089B00D25821
:1062B0008307DC0EFF23A3409A438B071B0E840742
:1062C000E40EA3401A43054B032424021B1984083F
:1062D000A4001A5110BD00001CED00E000E100E038
:1062E00010B5002007490860002106484160816020
:1062F000C1600020034940390860486002F08CFF0B
:1063000010BD00004011014010B502F035FE10BD77
:1063100070B50C480068002810D00A480068804713
:10632000044600BF2546002D06D000BF00221146BE
:10633000284600F015F900BF00BF01E000F0ACFFF7
:1063400070BD0000B020002010B501F01FF800283B
:1063500005D0074807494860C8130749886100F01D
:10636000F9FF002802D001200449886010BD000018
:10637000DFFF07C000050040006C00400006004041
:1063800030B47446641E2578641CAB4204D3635D4C
:106390005B00E31830BC18471D46F8E702E008C868
:1063A000121F08C1002AFAD170477047002001E08F
:1063B00001C1121F002AFBD17047F8B504460F46F1
:1063C00016460025002030702078002809D032467B
:1063D0003946204601F0E5F90546002D01D0284652
:1063E000F8BDA078002808D03146384600F07AFA87
:1063F0000546002D01D02846F2E7A08800280ADDD6
:1064000033463A460121201D02F0D7FF0546002DF4
:1064100001D02846E4E7E06800280BD00020E168BE
:1064200008563246394602F0A7FF0546002D01D036
:106430002846D5E7208A00280CDD3B4606220221AB
:1064400020461030009603F00AF80546002D01D0D2
:106450002846C5E7208B00280CDD3B460722032198
:1064600020461830009602F0FAFF0546002D01D0B4
:106470002846B5E7208C00280CDD3B461522142168
:1064800020462030009602F0EAFF0546002D01D09C
:106490002846A5E7A06A002809D032463946A06AF6
:1064A00000F076FD0546002D01D0284698E7E06A09
:1064B000002809D032463946E06A01F03DF9054628
:1064C000002D01D028468BE73420005D002809DD2F
:1064D00032463946204602F001FA0546002D01D029
:1064E00028467DE728467BE701468888002808D0B3
:1064F0008868002805D088680078042210400028A9
:1065000001D1072070470020FCE7000038B568463D
:1065100001F0BCFB044600BF2546002D06D000BF9D
:1065200000221146284600F01BF800BF00BF00986B
:10653000002802D0142001F0B5F9084873DF0446A2
:1065400000BF2546002D06D000BF00221146284678
:1065500000F006F800BF00BF38BD00000421002095
:1065600000BFBFF34F8F04480449C860BFF34F8F8B
:1065700000BF00BFFEE700000400FA0500ED00E0E8
:10658000F8B5044617480078142148431549091DF9
:106590000E5C081F0078142148431249091D401859
:1065A0008068000110490D580E48007814214843B6
:1065B0000C49091D40184088091F009009781422D1
:1065C0005143084A121D89180B69111F09781422BA
:1065D0005143044A121D89180846083022463146A4
:1065E000A847F8BDA4290020702A0020F8B5054668
:1065F0000E46174605200090114800781149097889
:1066000088421BD00F480478007801F015F90D4935
:1066100008700D48008860430C49096840182860DC
:10662000E0000B490968401880883080E000084984
:106630000968085838600020009000BF0098F8BD35
:106640007D2000207C2000207E200020782000205B
:10665000742000200EB504E068468188009A0298F4
:1066600090476A4601A902A8FFF7C0FF0028F3D0AF
:106670000EBD000030B50346481CC004040C104693
:106680008507AD0F002D01D1012500E00025002D6B
:1066900001D1072030BD084802601019074D28605D
:1066A0000020074D2870074D2870074803800748D1
:1066B00001800020EEE700007420002078200020F8
:1066C0007D2000207C2000207E20002080200020D3
:1066D00070B503460C4619480068002801D108200F
:1066E00070BD002A01D10720FAE7002B01D1072055
:1066F000F6E700211CE024204843104D2D68285C5B
:10670000002814D10125242048430C4E3668355406
:1067100024204843094D2D684019447024204843E3
:10672000064D2D684019826119600020D8E7491C88
:10673000034800788142DEDB0420D1E78820002076
:1067400084200020FFB581B00E4617461C46204627
:106750008107890F002901D1012100E000210029D2
:1067600002D1072005B0F0BD002C01D10720F9E7C8
:1067700001F030FE26490A9808602648067026482F
:10678000046000250CE0002124206843224A12689E
:10679000115424206843204A1268801801756D1C2A
:1067A000B542F0DB24207043041903201B49087014
:1067B0001B480460183400250CE0E900184A1268F0
:1067C0008818002101704170877044601821794356
:1067D0000C196D1C032DF0DB0020C043114908602B
:1067E000002011490870114908701420FFF71EFDA0
:1067F00003211420FFF738FD1420FFF721FD019835
:1068000001F0BEFD01F0B6FD094908600020A9E7CE
:10681000A820002084200020882000208C20002038
:106820009020002094200020A4200020A5200020FB
:1068300098200020FEB504460D461646164800680E
:10684000002801D10820FEBD14480078844201D2FE
:10685000052D01D20720F6E7242060430E49096880
:10686000085C012801D00820EDE7242060430A4994
:10687000096840184078012801D1284600E000202E
:10688000074602F0C3FD3B462A462146009601908A
:1068900002F078FCD7E70000882000208420002048
:1068A00070B504460D480068002801D1082070BD6D
:1068B0000B480078844201D30720F8E72420604386
:1068C00006490968085C012801D00820EFE702F0BA
:1068D0009DFD0546214602F07FFCE8E78820002068
:1068E00084200020F8B505460C462078001D1F289E
:1068F00001DD0C20F8BD684679DF0646002E01D088
:106900003046F7E703212278501C2070A954192142
:106910002278501C2070A9542078411968460088BC
:1069200002F042FD2178401820700020E2E70000CC
:1069300070B500221921090408480068FFF77AFFA2
:10694000044600BF2546002D06D000BF0022114698
:106950002846FFF705FE00BF00BF70BD0C200020D9
:1069600070B509480068FFF79BFF044600BF254645
:10697000002D06D000BF002211462846FFF7F0FD8B
:1069800000BF00BF70BD00000C20002070B50446A1
:10699000042C01D1102400E0402400201649486056
:1069A0002002082108431549486001200860144965
:1069B0000860002013490860002501E0681CC5B28A
:1069C00010480068002801D1FF2DF7DB00200D4999
:1069D000086001200A494860002008490860896869
:1069E0004B22120151430846FF21FFF7BFFB410034
:1069F00040180549088070BD0073004000750040D4
:106A000000700040007100405C200020F3B593B09E
:106A10000D460021129111911398002814D013985B
:106A2000FFF762FD0446002C02D0204615B0F0BDF1
:106A300012AA09A91398FFF7C0FC0446002C01D044
:106A40002046F3E709AE00E00026002D13D02846CB
:106A500002F002F90446002C01D02046E6E711AA14
:106A600001A92846FFF7A9FC0446002C01D02046C6
:106A7000DCE701AF00E0002710A803793A46017A6D
:106A8000304672DFD2E710B50446204600F056FFCC
:106A900010BD0000F8B500BF002350222249082095
:106AA00001F0D0FF054600BF2E46002E06D000BFE5
:106AB000002211463046FFF753FD00BF00BF00BF64
:106AC000002000900090684660DF044600BF254625
:106AD000002D06D000BF002211462846FFF740FDDA
:106AE00000BF00BF114801F0A1FF044600BF2546CA
:106AF000002D06D000BF002211462846FFF730FDCA
:106B000000BF00BF0A4801F0D1FF044600BF254680
:106B1000002D06D000BF002211462846FFF720FDB9
:106B200000BF00BFF8BD0000A4280020876A010054
:106B3000B58E01000007000F0A2803DA0146303144
:106B4000C8B202E001463731C8B2704710B586B00E
:106B5000142005900024254800882549884242D009
:106B60002448007800283ED0002001900290039035
:106B700004902148C18B68468180012181710021E8
:106B8000018105A803902BE01C48007880001C4977
:106B90004018049001A915480088A6DF044619484A
:106BA000844204D0082C02D01748844200D118E057
:106BB000002C06D000BF002211462046FFF7D0FC73
:106BC0000EE00E480068FE2805D90020094908702B
:106BD000FFF7AEFE05E009480068401D0749086060
:106BE000D2E700BF00BF06B010BD000000200020AB
:106BF000FFFF000004200020C420002018200020F7
:106C0000302100200430000001340000F0B585B0D0
:106C10000F2758480078142148435649091D441845
:106C2000E5682078022804D0042823D005286FD1F5
:106C30006FE0206903905048008886026088801BBE
:106C40000490039880190390A088801945190121A8
:106C500089020498884206D204988208284603993B
:106C600021DF074605E0FF2201322846039921DF94
:106C7000074676E0A068000140494018008904906A
:106C8000A0680001401840890390A06800014018E6
:106C9000406802900298A84205D10399049848439D
:106CA0006188884202D0A0688D280DD1012000079C
:106CB000006981B22846FFF759FA2F49098846181A
:106CC000304620DF074622E001200007006981B23C
:106CD0002846FFF74BFA064601200007006980B2FC
:106CE0007043281A8008019001200007006980B2D3
:106CF000711C484361884919401A80080090314648
:106D00002046009B019A01F0AFFF074600BF28E034
:106D100026E001200007006981B22846FFF726FA25
:106D20000646A088411901200007006980B270431F
:106D3000081A80080490A088401961884218012030
:106D40000007006980B2711C4843801A80080390D4
:106D500031462046039B049A01F086FF074600E077
:106D600000BF00BF002F02D10120024988703846C1
:106D700005B0F0BDA429002070200020702A00205A
:106D800010B5002406484078002807DDFFF73EFFD5
:106D90000446002C02D0112C00D10024204610BD46
:106DA000A42900200023142141430C4A53541421E8
:106DB000414389184B808C231421414389188B60EF
:106DC0000023142141438918CB60142141438918C1
:106DD0000B611421414389188B807047A82900203A
:106DE000FFB581B0064617460024204840780A289F
:106DF00037D01E4800781D4949784018C4B20A2C83
:106E000002DB20460A38C4B2142060431749091D2A
:106E10000E54142060434018076114206043411849
:106E2000029805C8CA608860142060430F4A121D8A
:106E30008018049941801420604380180A99818049
:106E40000025101F8078002805D1FFF7DFFE0546DA
:106E5000112D00D1002505484078401C0349487099
:106E600000E00425284605B0F0BD0000A42900205C
:106E700010B50020084908800849087008490870C2
:106E800048708870002403E02046FFF78BFF641CE5
:106E90000A2CF9D310BD00007020002073200020C0
:106EA000A4290020FEB51E480068401C002834D0EC
:106EB0001B480068242148431A490968401845685E
:106EC00001F058FA0190184804682146019802F030
:106ED0000BF8C61C15480078002801D101F05CFAB7
:106EE000AE4201D2284600E0304604192402240AAA
:106EF00020460F49086000BF01F03CFA009001995C
:106F0000009801F0F1FFC71C2046019901F0ECFF49
:106F1000874201D902F0CEF901E001F05BFAFEBD33
:106F2000942000208820002098200020AC20002001
:106F30004015014001460888062808DB0888192208
:106F4000D201904205DD0888104A904201D0072006
:106F500070474888062808DB48881922D2019042E9
:106F600005DD4888094A904201D00720F0E70888EB
:106F7000064A904208D04888904205D008884A883E
:106F8000904201DD0720E3E70020E1E7FFFF00007A
:106F9000F8B506460D4614462078801D1F2801D9F5
:106FA0000C20F8BD3046FFF7C5FF0746002F01D083
:106FB0003846F6E705212278501C2070A95412218A
:106FC0002278501C2070A95422785119308802F080
:106FD000EBF921784018207022785119708802F05E
:106FE000E3F92178401820700020DAE710B5142169
:106FF0000648FFF7FEF80020044908704860087250
:107000001920800108820020488210BD0421002040
:1070100010B50446FFF79AFD10BD000010B51448E6
:107020004068C105C90D002920D00A46103A50B267
:1070300000280DDA0E4B1C330407240F083CA4086B
:10704000A4001B598407E40EE3401B069B0F0BE0D2
:10705000084B032424021B198408A4001B5984072D
:10706000E40EE3401B069B0FD8B210BD0420FCE7E2
:1070700000ED00E000E100E0014614480078144A09
:10708000127890421DD011480078401C0F4A1070B1
:1070900010460078022801D1002010700B480078BB
:1070A00080000C4A105808600B4A08681268801863
:1070B000094A1060104600680002000A10600120B2
:1070C00070470020086000BFFAE70000A4200020FD
:1070D000A52000209C2000209820002070B5049C52
:1070E000044E45683668B54202D10025024E35701F
:1070F00070BD00004C20002049200020F0B5034660
:10710000002426E0164E366824277E43154F3F683C
:10711000F01946689E4203D94668F61A46601DE09B
:1071200046689B1B466834190026466006750C4E5F
:1071300035680B4F066A3E600669002E08D00E19AE
:107140003602360A86600669C660166806621560F1
:1071500000BF03480068401C0028D3D100BFF0BD29
:107160009420002088200020FEB500BF6846007AE9
:1071700001090901491C02916846007AF0218843FF
:107180001030029000BF684671DF0A246946897991
:107190000811FFF7CFFC01462246641C3D4881548C
:1071A00069468879FFF7C6FC01462246641C3948C7
:1071B0008154694649790811FFF7BCFC0146224613
:1071C000641C3448815469464879FFF7B3FC014692
:1071D0002246641C2F488154694609790811FFF73B
:1071E000A9FC2146621CD4B22A4A50546946087947
:1071F000FFF7A0FC2146621CD4B2264A50546946CF
:10720000C9780811FFF796FC2146621CD4B2214AC6
:1072100050546946C878FFF78DFC2146621CD4B2F1
:107220001C4A5054694689780811FFF783FC2146AF
:10723000621CD4B2174A505469468878FFF77AFC2A
:107240002146621CD4B2134A505469464978081149
:10725000FFF770FC2146621CD4B20E4A50546946B6
:107260004878FFF767FC2146621CD4B2094A5054A3
:107270001622084902A87CDF054600BF2E46002ED4
:1072800006D000BF002211463046FFF769F900BF63
:1072900000BFFEBD25200020F8B529480078002851
:1072A00000D1F8BD27480068002801D1012000E086
:1072B0000020054624480068002801D1012000E094
:1072C0000020064600BF002D14D1684651DF044659
:1072D000052C01D101250CE0002C06D000BF0022B6
:1072E00011462046FFF73CF903E01649009809686B
:1072F000884700BF002E1AD11448008800906946C4
:107300001348006861DF0446052C01D101260DE019
:10731000002C06D000BF002211462046FFF720F9BE
:1073200004E00B48006808490968884700BF002D41
:1073300002D0002E00D000E0C5E700BF00BFB0E7DC
:10734000BA200020C0200020BC200020B82000204F
:10735000B42000200C48008CC0B2012812D10A4889
:10736000808C0007000F00280CD10748806AF021AC
:107370000840402806D10448C06A0840002801D1CE
:10738000012070470020FCE7C00F00F01948008C76
:10739000C0B201282CD11748808C0007000F0028AC
:1073A00026D11448806AF0210840002806D11148EF
:1073B000C06A0840002801D1012070470D48806A4A
:1073C000F0210840102806D10A48C06A0840002869
:1073D00001D10120F1E70748806AF02108403028F8
:1073E00006D10448C06A0840002801D10120E4E722
:1073F0000020E2E7C00F00F001468807800F002858
:1074000001D1012070470020FCE70000FEB52B48A9
:10741000006801902A480078009040E00098C00081
:10742000284909684418257835E0182068436168C0
:107430000F18681CC5B2A078A84200D10025387882
:10744000022802D0032823D10EE024217868484383
:107450001D4909684618307D002804D0786801F07D
:107460002BFE0020307514E00CE01449096824223A
:107470005143154A12688818002101750F4A016AA4
:10748000116000BF0D480068401C0028EDD100E0ED
:1074900000BF00BF00BF6078A842C6D100BF0098FF
:1074A000411EC9B200910028B8D104480168019872
:1074B000814201D00120FEBD0020FCE79420002085
:1074C0008C2000209020002088200020FEB5074658
:1074D00043480068029043480078019071E00198A9
:1074E000C00041490968451863E0781C002807D0AE
:1074F0003E46242070433D4909684418276A29E024
:107500002978182359436A6850182978491C29702A
:107510002978AA78914201D1002129704668242156
:107520007143324A12688C180178012902D1217DF9
:10753000002900D03DE08168A160C168E160016977
:1075400021614169E1612A490978002901D00021BE
:10755000A16000BF2749A0680968401A0002000A1C
:107560002549884208D22349A068096801F0BCFC7B
:10757000E1684018606011E01E48A168006801F0F1
:10758000B3FC0090E1680098814204D9E16800985A
:10759000081A606001E00020606000BF0020A06069
:1075A000E06001202075801E2062304601F016FD4B
:1075B00000BF781C002898D128786978884294D137
:1075C00000BF0198411EC9B20191002887D104482B
:1075D00001680298814201D00120FEBD0020FCE735
:1075E000942000208C200020902000208820002063
:1075F000AD20002098200020FFFF7F000EB5002462
:1076000003200521090707221202891808651420A2
:1076100000F084F9142000F045F9002211461046CC
:1076200001F050FA064639A0006800906B466A46A1
:107630000121304601F0C8FA354805210907072223
:1076400012028918486301F03BFEFFF723FA00F0AD
:10765000D5FF00F0D1FB01218902684601818C2110
:1076600041812C4801902C4901A800F0ADFC044652
:10767000FFF77AFD00F0DAFFFFF7B8FC00BF01204A
:1076800000BF38212548FEF7B4FD2548007825497C
:1076900008742348407848742148807888742048CA
:1076A000C078C874204821490880182088801D4966
:1076B0001E4881600120194988801D491748816052
:1076C0001A481649C86200211448FFF79FF904467A
:1076D00000BF2546002D06D000BF002211462846D7
:1076E000FEF73EFF00BF00BFFEF710FF00220121A2
:1076F000C90310480068FFF79DF8142000F006F950
:1077000000BFFEF7A7FF00F0B1FAFAE7B9000000EA
:1077100003030000DD700100502000204025002000
:107720002520002018210020815800007825002005
:107730002420002010200020F8B505460E461446EF
:107740002879801CC7B22078801CC0191F2801DD51
:107750000C20F8BD781CC1B22278501C2070B154A6
:10776000FF212278501C2070B1542278911928886A
:1077700001F01AFE217840182070A88800280EDD3C
:10778000A868002801D10720E3E7AA882378981980
:10779000A968FEF715FD207829794018207000208F
:1077A000D7E7F7B584B004460F4606980678B01CB4
:1077B0001F2803DC6078801C1F2802DD0C2007B026
:1077C000F0BD1F20801B801E85B20295B11C781869
:1077D00002A97DDF03900398002801D00398EEE70B
:1077E0002078022808D168460089A84204DC0920D4
:1077F0000190684605890BE0082001906078002818
:1078000004D06078A84201DC657801E0684605890B
:10781000681CC2B23046711CCEB23A543046721C5B
:10782000D6B20199395406980178A81C0818C1B23B
:10783000069801700020C2E7014604480088814292
:1078400001DA481C00E00020C0B270478020002010
:1078500070B5064611480068FFF722F8044600BFDD
:107860002546002D06D000BF002211462846FEF70F
:1078700077FE00BF00BF13210948008876DF044669
:1078800000BF2546002D06D000BF00221146284625
:10789000FEF766FE00BF00BF70BD0000082000209C
:1078A0000020002001B505E00098401E009003482C
:1078B000FEF710FC00980028F6D108BDE703000091
:1078C00010B58A0005231B07072424021B19840016
:1078D0001A5110BD10B58A0005231B070724240286
:1078E0001B1984001A5110BD03210522120707231A
:1078F0001B02D2188300D1507047032105221207C2
:1079000007231B02D2188300D15070470121814008
:10791000014AD160704700000005005001218140FC
:10792000014A91607047000000050050012181402C
:10793000014A916070470000000500507FB5054680
:10794000002404200290288839287DD008DC0128F2
:107950007BD010280BD0112878D0192877D1ADE032
:10796000502875D0522874D05528F7D1B1E0A88896
:10797000684908801420FFF7D1FFFEF7D9FF0821DE
:107980006846018013214180042181802821C18023
:1079900069466048008875DF044600BF2646002E11
:1079A00006D000BF002211463046FEF7D9FD00BFC9
:1079B00000BF0521090258480068FEF7D7FB0646BC
:1079C0008C21FEF7D3FB554801605549C88B534BBA
:1079D00002AA0021A4DF53480088FF2109020840C1
:1079E0000002504909780906084303904C49C888A9
:1079F00003AB02AA0021A4DF4B480088FF21090243
:107A000008400002484909780906084303904449A0
:107A1000C88903AB02AA0021A4DF44480088FF21E3
:107A20000902084000024149097809060843039009
:107A30003B49C88A03AB02AA0021A4DF3C48006886
:107A4000000E3B49096805E042E021E023E052E0F6
:107A50003AE02CE0FF2212041140090A084334499D
:107A600009681212114009020843314909780906D0
:107A7000084303902A49C88C03AB02AA0021A4DF63
:107A80002749C88D2B4B02AA0021A4DF044633E00E
:107A9000FFF75CF830E01420FFF738FF0020C04308
:107AA0001C490880FEF75CFFFEF730FD24E0002251
:107AB000114618480088A9DF04461DE0A87900286F
:107AC00001D1FEF723FD17E0284600F035F813E05A
:107AD00000BF13210F48008876DF044600BF26460A
:107AE000002E06D000BF002211463046FEF738FDBA
:107AF00000BF00BF00E000BF00BF00BF2646002E51
:107B000006D000BF002211463046FEF729FD00BF17
:107B100000BF7FBD0020002014200020582000203E
:107B2000C42000205C200020402000203C200020B9
:107B300044200020252000203EB50546AC1D2088AD
:107B40004049C98B884206D1208B012803D1A07EF1
:107B50003D49086075E020883A49C98D88421FD1A7
:107B6000208B04281CD1A07E38490870E07E487024
:107B7000207F8870607FC870FFF7F6FA334800787E
:107B800033490874314840784874304880788874A4
:107B90002E48C078C87400212E48FEF737FF50E009
:107BA00021882848408C81424BD1208B022848D123
:107BB00000BF00BFA17EE27E120211430846C1074A
:107BC000C90F25480170007800283AD0FEF7C8FE9A
:107BD000002022490860042000901B4800688C287F
:107BE00002D98B20184908601748008881B201AA81
:107BF0001B4800F061F800230122920201A91948F4
:107C000000F06CF9104800681749C8600E48006819
:107C1000401E0D4908608C201349886001218902AB
:107C200010484018416005200F4908600549C88B7D
:107C3000054B6A460021A4DFFEF788FFFEF778FEB9
:107C400000BF3EBDC4200020582000202520002079
:107C500018210020402500200420002018200020AA
:107C600050200020302100203025002070B540DF5A
:107C7000044600BF2546002D06D000BF0022114655
:107C80002846FEF76DFC00BF00BF70BD014600BF77
:107C900007480078002801D10820704700BF00295C
:107CA00001D10E20F9E70348407808600020F4E78E
:107CB00072200020A42900203CB5034600BF2048C4
:107CC0000078002801D108203CBD00BF002B01D165
:107CD0000E20F9E7002A01D10E20F5E718688C285C
:107CE00005D218680001174C2058002801D1072040
:107CF000EAE75C68186801940090019C186800012C
:107D0000104D401900894843201801900098000147
:107D10002C4600194089009C240164192489604381
:107D2000009C2401641964680019019CA04201D8D8
:107D30000720C9E7019C0098546010600020C3E749
:107D400072200020702A0020F8B504460D4600BFBE
:107D500027480078002801D10820F8BD00BF002C7A
:107D600001D10E20F9E720688C2805D22068000197
:107D700020490858002801D10720EEE720680001BB
:107D80001C4940184089216809011A4A8918098943
:107D90004843216809018918496840186168884288
:107DA00001D80720D9E76068FFF726FB002801D13A
:107DB0001020D2E723681B010E4FDB1962685B6855
:107DC000D01A226812013B46D2181189FEF7CEF96B
:107DD000002901D00720C0E700202B46024621469B
:107DE00000900420FEF7FCFF06463046B5E7000091
:107DF00072200020702A002070B5FFF739F80020AB
:107E00002E4908802E484069401C002808D00122D5
:107E10001207126991B22A4A5069FEF7A7F902E0E7
:107E20000120000740698D3801210907096989B2DD
:107E300048432449086000202349088000BF0DE022
:107E400000210201214B99500201D2181181020137
:107E5000D21891810201D2185181401C8C28EFD395
:107E600008201B49087016484069401C002808D0AB
:107E700001221207126991B2114A5069FEF776F990
:107E800002E0012000074069401E0121090709693D
:107E900089B24843064601200007006981B2304696
:107EA000FEF764F9054620DF0446002C04D10120CA
:107EB0000849887008490870204670BD6820002075
:107EC000001000106C20002070200020702A00207C
:107ED00073200020A429002072200020FFB581B06B
:107EE0000C4615461E4600BF35480078002802D1D2
:107EF000082005B0F0BD00BF002C01D10E20F8E72E
:107F00000198002801D10E20F3E720688C2805D2C3
:107F1000206800012B490858002801D10720E8E714
:107F20002068000127494018408921680901254A35
:107F30008918098948432168090189184968401846
:107F40006168884201D80720D3E7002D06D0206859
:107F500000011C4940180089A84201DA0720C8E73F
:107F6000A81921680901174A89180989884201DD81
:107F70000720BEE70198FFF73FFA002804D03046FB
:107F8000FFF73AFA002801D11020B2E76068FFF746
:107F900033FA002801D11020ABE7606881192A4626
:107FA0000198FEF70DF900952068000105490F586A
:107FB000002203212046019BB847002099E70000DA
:107FC00072200020702A0020F8B504460D4600BF3C
:107FD00058480078002801D10820F8BD00BF002CC7
:107FE00001D10E20F9E7002D01D10E20F5E7206820
:107FF000002801D10E20F0E7A088012109070969B6
:1080000089B2884202DCA088042801DA0720E4E76C
:10801000E088002830D048484069401C002808D03B
:1080200001221207126991B2434A5069FEF79EF885
:1080300002E0012000074069401E0121090709698B
:1080400089B24843E188A28851433C4A12688918A2
:10805000884211D3E088A1884843012109070969B2
:1080600089B288420ADDA18801221207126990B202
:10807000FEF792F8002901D00720AEE720798007AB
:10808000800F002801D00720A7E72D4800888C2802
:1080900001D10420A1E72A48008828602748006809
:1080A0006860274909880901264A89186868486074
:1080B00023490988090120685050A088204909886F
:1080C000090189180881E0881D4909880901891872
:1080D00048810027A688E1884E4300BF781C87B2FC
:1080E00001200007006980B2B04205D201200007DC
:1080F000006980B2361A00E00026012000070069FE
:1081000080B20E49096840180C4908600120000738
:10811000006980B2B042E1D90948008800010949EC
:108120004018878106480088401C054908800020C7
:1081300053E7000072200020001000106C20002087
:1081400068200020702A0020F8B504460E46154627
:108150001F4600BF2F480078002801D10820F8BD35
:1081600000BF002E01D10E20F9E7002C01D10E2016
:10817000F5E720688C2805D22068000126490858B8
:10818000002801D10720EAE72068000122494018B1
:10819000408921680901204A8918098948432168D2
:1081A00009018918496840186168884201D8072088
:1081B000D5E7002D06D02068000117494018008936
:1081C000A84201DA0720CAE7E81921680901124A22
:1081D00089180989884201DD0720C0E73046FFF78A
:1081E0000BF9002804D03846FFF706F9002801D122
:1081F0001020B4E76068FFF7FFF8002801D11020D5
:10820000ADE72B463246214602200097FEF7E8FDF7
:10821000A5E7000072200020702A0020FEB5054668
:1082200000265048807801287ED100204D49887072
:108230004D480078082811D1022D03D100204A4969
:10824000087002E0002049490870FEF799FD0646D3
:10825000002E02D03046FEF793F9FEBD022D02D06B
:10826000032D79D174E03F480078142148433D49FB
:10827000091D44183E480088401C3D49088020786C
:10828000022807D10846008880026188884201DB05
:10829000012000E0002007462078052805D132485B
:1082A0000078072801D1012000E00020029020780A
:1082B000042805D12C480078072801D1012000E0CE
:1082C00000200190207804280BD1294800888002E2
:1082D0006188884205DB24480078002801D101200C
:1082E00000E0002000900298002807D101980028A3
:1082F00004D10098002801D1002F1FD000201A4976
:1083000008703046FEF73CF916490878FEF74AFD3A
:1083100000201749088013484078401E11494870D2
:1083200008460078401C00E019E008700846007814
:108330000A2803DB084600780A380870FEF720FD9B
:108340000646002E02D03046FEF71AF905E003E09B
:108350000D20FEF715F900E000BF00BF00BF00BF11
:108360007BE70000A4290020732000207220002059
:10837000702000200148406870470000001501404F
:1083800010B504460348846003211120FDF76CFFFB
:1083900010BD00000015014010B5012000040A497D
:1083A00048600949403948601120FDF73FFF11201E
:1083B000FDF746FF0120054908602F20FDF7AAFEC2
:1083C00001200349087010BD401301400010014016
:1083D000AC20002010B51120012181400E4A11600F
:1083E00000BF012000040D4988600C4940398860B5
:1083F00001200B4948602F20FDF78CFE0120084921
:1084000088600020074908602F20FDF783FE0020C8
:108410000549087010BD000080E100E040130140F4
:108420000010014098200020AC200020F0B585B05D
:10843000002400270025052164480068FDF796FE0A
:10844000C0B204900420FEF7A1FA0D20FFF766FAEF
:1084500001205F49C86300200C2302460A210090D6
:1084600000F082FA00205B4908805B4908805B4984
:10847000088000264BE003A9042000F0A9FA002898
:1084800043D06846007B202800D101276846007B46
:108490000011032835D1012C04D0022C11D0032C5B
:1084A0002DD11DE04B4800880005000C494908808B
:1084B0006846007B0007000F09880843454908808B
:1084C0001EE0454800880005000C434908806846C6
:1084D000007B0007000F098808433F4908800FE030
:1084E0003E4800880005000C3C4908806846007B37
:1084F0000007000F098808433849088000E000BFE2
:1085000003E0002F01D0601CC4B2701CC6B2322E32
:10851000B1DB00202E49C8630D20FFF7F7F9304882
:1085200052DF2A4800682F490860052109022748C0
:108530000068FDF71BFE8C210090FDF717FE0E462C
:1085400001AA2948FFF7B8FB2849029849688842E0
:1085500004D1264901980968884209D02348029A23
:10856000019906C00121890201A8FFF7EDFB05462C
:108570000498830004221B4901A8FFF7E5FD054686
:10858000124800681A490860144800888880124818
:108590000088C8800F4800880881164800884881F4
:1085A0000F480068C86000211348FEF72FFA0546FF
:1085B00000BF2E46002E06D000BF002211463046D6
:1085C000FDF7CEFF00BF00BF05B0F0BD14200020B6
:1085D000C02F00403C2000203E20002040200020F2
:1085E0004420002060200020502000201C2000207B
:1085F000182100205C2000204025002070B500BF1D
:10860000094A0A210820FEF735F8044600BF25462E
:10861000002D06D000BF002211462846FDF7A0FF1E
:1086200000BF00BF00BF70BDF428002030B58FB080
:1086300000BF012168468171A449818000BFA44A1E
:1086400001A90120A0DF044600BF2546002D06D069
:1086500000BF002211462846FDF782FF00BF00BF81
:108660000020079000BF6846007F01090901491CEE
:1086700068460177007FF02188431030694608770B
:1086800000BF00BF6846407F01090901491C6846D8
:108690004177407FF021884310306946487700BF1A
:1086A0006846807F06218843811C684681771C21AB
:1086B00008A8FDF79EFD08A8007802218843811CC8
:1086C00008A80170007808218843411808A80170A3
:1086D000007810218843411808A8017000200990F3
:1086E0000B900C9008A80078C006C00F002801D09D
:1086F00007A800E000200D9008A80078C007C00F70
:10870000002801D007A800E000200E900020009073
:1087100000BF6846007801090901491C68460170DC
:108720000078F021884310306946087000BF00BF10
:108730006846407801090901491C68464170407843
:10874000F021884310306946487000BF6846807841
:1087500006218843811C68468170807808218843FF
:10876000014668468170807810218843014668463A
:108770008170807841084900491C68468170142145
:1087800002A8FDF736FD684603900421018200210E
:108790004182142181820020069000BF0121684699
:1087A00081714C49818000BF01A802904A498888A4
:1087B0000B461E3302AA08A9A2DF0446042168461C
:1087C000018208A8007808218843014608A80170A2
:1087D000007810218843014608A801700078C0067F
:1087E000C00F002801D007A800E000200D9008A8C5
:1087F0000078C007C00F002801D007A800E00020C3
:108800000E9004206946888200BF0121684681716C
:1088100030491131818000BF01A802902E4988881B
:108820008B1D02AA08A9A2DF044600BF01216846E9
:10883000817128491431818000BF01A80290264926
:1088400088880B460E3302AA08A9A2DF044600BF9F
:108850000121684681711F494231818000BF01A812
:1088600002901D4988880B46163302AA08A9A2DF88
:10887000044600BF01216846817116491531818087
:1088800000BF01A80290144988880B46263302AA2B
:1088900008A9A2DF044608A90878082188430830FF
:1088A00008A9087000BF0121684681710949453156
:1088B000818000BF01A80290074988880B462E33AB
:1088C00002AA08A9A2DF04460FB030BD11180000AB
:1088D00002200020082A0000C4200020FEB5074620
:1088E0000E461446386B002801D10720FEBD00203B
:1088F000019032E0396B0C22019850430D18287911
:10890000801CC0B200900098401CC1B22278501C5C
:108910002070B15416212278501C2070B154227856
:108920009119288800F040FD217840182070A8880F
:1089300000280EDDA868002801D10720D6E7AA8804
:1089400023789819A968FDF73BFC2078297940180D
:1089500020700198401CC0B201903420C15D019884
:108960008142C7DC0020C1E7F8B507460C46154632
:108970001E462046FEF7C1FF00213046FEF7AAFF43
:108980001048C4604661069800280DD03846FEF7AE
:10899000B4FF00212846FEF79DFF0A480561876065
:1089A000012008494031C8624F2000030549486250
:1089B0000420086001200449886008600020034901
:1089C0008860F8BD002500400020004000210040E4
:1089D00070B504460D4601260AE02046641E0028B4
:1089E00004DB7D20C000FDF785FB01E0002603E0ED
:1089F000074880680128F0D100BF002C05DB00206B
:108A000003498860034880692870304670BD0000C3
:108A1000002100400025004070B506460C46154672
:108A200029462046C046C04670BD000001460029C8
:108A300001D10E207047024801600020FAE70000D3
:108A4000BC200020FFB581B00C4616461F46002C06
:108A500002D1072005B0F0BD20468107890F00290B
:108A600001D1012100E00021002901D10720F1E717
:108A700009480460094806800948076009490198C7
:108A800010DF0546002D01D02846E3E70120064906
:108A90000870162026DFDDE7B4200020B820002073
:108AA000B0200020198A0100BA20002001460029C8
:108AB00001D10E207047024801600020FAE7000053
:108AC000C0200020F7B506460F46002E01D13C48D5
:108AD00000E03C480446002E1FD10220FEF704FFB0
:108AE0000120FEF701FF00210846FEF7E9FE1D20E8
:108AF000FEF7FAFE022005210902611888600120B4
:108B0000052109026118C8600020052109026118C9
:108B100008611D20FEF70AFF1EE00220FEF7E4FEBA
:108B20000120FEF7E1FE00210846FEF7C9FE1C20E9
:108B3000FEF7DAFE02200521090261188860012093
:108B4000052109026118C860002005210902611889
:108B500008611C20FEF7EAFE01200007052109023A
:108B600061184862002F06D0012F06D0022F06D0D0
:108B7000032F08D105E0002507E0022505E00425C4
:108B800003E0062501E0002500BF00BF0298002891
:108B900006D001202843052109026118486503E039
:108BA00005200002201845650021FF2009300151F1
:108BB000012005210902611808602046FEBD000061
:108BC0000030004000400040FFB581B00027002683
:108BD000019D1F48019D854201D11D2400E01C24F8
:108BE00000BF0120A0401B49C86000BF27E00398D8
:108BF000805D052109026918C86100E07F1CFF2023
:108C000009304059002803D1032000038742F5D3DF
:108C100003200003874205D12046FEF787FE00208F
:108C200005B0F0BD0021FF200930415105200002B0
:108C300028188069C1B204988155701C86B20298C8
:108C40008642D4DB2046FEF771FE0120E8E70000F3
:108C5000003000400005005001468888002801DDF2
:108C6000072070470020FCE7FFB583B004460F469D
:108C7000154603268D48007800280BD1002D06D11B
:108C80000698002803D102208849087002E00120DC
:108C900086490870854800780300FDF771FB07FDE1
:108CA00005314E84BAD7FD0081484069401C002838
:108CB00008D001221207126991B27D4A5069FDF76E
:108CC00055FA02E0012000074069401E0121090712
:108CD000096989B248430290012000070069000435
:108CE000820C01200007006980B278430146029897
:108CF00021DF0646002E02D102206C490870D0E028
:108D0000384620DF0646002E16D1002D11D10698D8
:108D100000280AD12078042803D10720634908706D
:108D20000AE005206149087006E004205F490870E8
:108D300002E003205D490870B3E05D484069401CD3
:108D4000002808D001221207126991B2584A5069CE
:108D5000FDF70CFA02E0012000074069401E0121E6
:108D60000907096989B24843012109070290096985
:108D700089B2794308462A46029921DF0646002E29
:108D800010D1069800280AD12078042803D10620A3
:108D90004649087006E005204449087002E00420B6
:108DA000424908707DE042484069401C002808D0D4
:108DB00001221207126991B23D4A5069FDF7D6F9B6
:108DC00002E0012000074069401E012109070969EE
:108DD00089B24843A9004018618840180121090759
:108DE0000290096989B27943AA00891862888818B3
:108DF000069A029921DF0646002E09D12078042820
:108E000003D106202949087002E00520274908708F
:108E100047E001200007006980B27843AB00C0182A
:108E20000290608882082169029821DF0646002EA0
:108E30000BD1002D06D10698002803D107201B492D
:108E4000087002E00620194908702AE018484069B5
:108E5000401C002808D001221207126991B2144A5E
:108E60005069FDF783F902E0012000074069401EC8
:108E700001210907096989B24843019001200007CF
:108E8000006981B20198FDF771F9029020DF064672
:108E9000002E04D1072000E002E00449087000E041
:108EA00000BF00BF304607B0F0BD000073200020B7
:108EB0000010001010B504462046FFF7AFF9022C51
:108EC00002D0032C0BD100E00AE00648007800280D
:108ED00004D0002003490870FDF718FB00E000BF34
:108EE00000BF10BD482000200246501A0002000AB0
:108EF0007047000070B505460C490968491C0B4ACB
:108F0000084611600521FDF731F9002909D007480D
:108F100000680749086000210648FDF777FD044610
:108F200002E00020FFF782FA70BD0000142000204C
:108F3000182100204025002070B504460D48006827
:108F4000002812D00B4AE169A069126890470546D3
:108F500000BF2E46002E06D000BF0022114630462C
:108F6000FDF7FEFA00BF00BF02E0A169E069884793
:108F700070BD0000A8200020FEB50020C043019075
:108F800010480468104807686846FEF775F80546FB
:108F9000FEF73CFA0646002D05D001AA21460098AE
:108FA000FEF7ACF801260198FEF790FA002800D0F1
:108FB0000126002E02D03846FDF774FF0020034939
:108FC0000870FEBD9820002094200020AD200020D5
:108FD00010B51420FDF73EF910BD0000F0B50246B3
:108FE00024205043324B1B68C11832480068401C93
:108FF000002802D12F48026059E02E484B680068D3
:10900000242460432A4C246800194068834217D8FE
:109010002848006824235843254B1B68C018406823
:109020004B68C31A2348006824246043204C2468FA
:10903000001943601F48006808621E48026036E05D
:109040004B681C4D2C6828680DE024254543184EBC
:109050003668AD196D685B1B044624254543144EE4
:109060003668AD19286A451C002D07D024254543D4
:109070000F4E3668AD196D689D42E6D3451C002D34
:109080000CD0242545430A4E3668AD196D68EE1A9A
:1090900024254543064F3F68ED196E604B6008621A
:1090A00024256543024E3668AD192A6200BFF0BD23
:1090B000882000209420002070B502462C4C2168A6
:1090C000084609E0904200D109E0014624244443C7
:1090D000284D2D686419206A441C002CF2D100BF71
:1090E000441C002C00D170BD814217D1204C246853
:1090F00024256C431F4D2D686419246A1C4D2C6077
:109100002C462468641C002C08D101241A4DAC6044
:1091100000241A4D2C600124194D2C702424444342
:10912000144D2D686419636824244443114D2D683F
:109130006419256A24244C430E4E3668A41925620E
:1091400024244C430B4D2D686419206A441C002CC8
:109150000CD024244443074D2D6864196468E51835
:1091600024244443034E3668A419656000BFBAE75F
:10917000942000208820002000100140982000202A
:10918000AD200020FFB581B005460E461746E90028
:10919000104A12688818694600F049F90446002C04
:1091A00002D1042005B0F0BD012020706660FFF7F9
:1091B000E1F8A060E760049820610A986061E90026
:1091C000044A12688818009900F047F9FFF700FF79
:1091D0000020E7E790200020F8B504460E46E100A5
:1091E0000C4A12688818694600F021F90546002DDE
:1091F00001D10420F8BD022028706E60E100054A0C
:1092000012688818009900F028F9FFF7E1FE0020A5
:10921000F0E7000090200020F8B520480068401CCE
:1092200000283AD00027FFF7A5F804461C4801683B
:109230002046FFF759FE06461848056811E024202D
:1092400068431849096844186068B04200D90BE0C7
:109250006068361A6068C719256A2046FFF76CFEF9
:1092600000BF681C0028EAD100BF0F4800780F49F2
:109270000978884209D10D480078401CC0B20B49DA
:109280000870022801D1002008700848007880008A
:1092900007490F50FFF79CFE00BFF8BD9420002047
:1092A0009820002088200020A4200020A520002055
:1092B0009C20002010B51120FCF7CCFF10BD000051
:1092C000F8B500BF0020254B072205210090FDF7CF
:1092D00039FA054600BF2E46002E06D000BF0022F8
:1092E00011463046FDF73CF900BF00BF00BF1C4AE5
:1092F00001211C48FDF7ECF9044600BF2546002D6E
:1093000006D000BF002211462846FDF729F900BF0C
:1093100000BF154A00211548FDF7DAF9044600BFE1
:109320002546002D06D000BF002211462846FDF735
:1093300017F900BF00BF0E4A01210E48FDF7C8F91A
:10934000044600BF2546002D06D000BF002211466E
:109350002846FDF705F900BF00BFF8BD84250020B1
:109360001170010008200020517801000C2000201D
:10937000F58E01001020002030B503461078C01C87
:109380001F2801DD0C2030BD02241578681C1070E8
:109390004C550A241578681C10704C551578681CBB
:1093A00010704B550020EEE702460A70FF200002C5
:1093B00010400012487002207047F8B505460F466D
:1093C00016461C466868002801D10720F8BD2078A1
:1093D000801C298840181F2801DD0C20F6E728781A
:1093E000401CC1B22278501C2070B1542178481C16
:1093F000207077542A88237898196968FCF7E0FE72
:1094000020782978401820700020DFE710B5FDF79C
:1094100005FE012802D0032804D101E0002403E066
:10942000012401E0022400BF00BF204610BD70B53A
:1094300002460B465078411C9078884200D10021AA
:109440001078884201D1002070BD1960507818262C
:10945000704355682C182046F6E741707047FFB5F9
:1094600081B0074615460A9E009602223846049BA4
:10947000029900F014F80446002C02D0204605B0F2
:10948000F0BD0096102229463846049B00F007F8EC
:109490000446002C01D02046F1E70020EFE7FFB59D
:1094A00087B006461D46109C002006902078059047
:1094B000002747E0B900706841180A8868460281B1
:1094C00049884181002203A902A865DF049004981D
:1094D000002802D004980BB0F0BD6846017B0998C3
:1094E00081422ED10698002801D0002000E0022001
:1094F000019020786946097B4118019808181F28B7
:1095000001DD0C20E7E70698002809D12078401CEF
:1095100020702278511C08982170A85401200690D0
:109520002078421903A902A865DF04900498002856
:1095300001D00498CFE720786946097B4018207055
:1095400000BF7F1C3088B842B4DC0698002806D0E3
:1095500021780598401C081AC1B2059829540020AA
:10956000B9E700008495010000200020C40000003D
:109570009C63010048960100C42000206C1A000082
:10958000AC630100FFFF00000000000000000000CD
:1095900000000000000000000000000000000000CB
:1095A000000000000000000006435354405F54696F
:1095B0006D653A000000000000000000000000009F
:1095C000000000000000000000000000000000009B
:1095D000000000000000000000000000000000008B
:1095E00000000000000000000024F4000000000063
:1095F000000000000000000000000000000000006B
:10960000000000000000000000000000000000005A
:10961000000000000000000000000000000000004A
:10962000000000000000000000000000000000003A
:10963000000000000000000000000000000000002A
:08964000000000000000000022
:04000005000160C1D5
:00000001FF
