:020000040001F9
:10600000783A0020796101009361010095610100F7
:106010000000000000000000000000000000000080
:106020000000000000000000000000009761010077
:106030000000000000000000996101009B61010068
:106040009D6101009D6101009D6101009D61010054
:106050009D610100000000009D6101009D61010043
:106060009D6101009D6101009D6101009D61010034
:106070009D6101009D6101009D6101009D61010024
:106080009D610100C96301009D6101009D610100E6
:10609000F16301009D610100F96301009D61010050
:1060A0009D6101009D6101000000000000000000F2
:1060B00000000000000000000000000000000000E0
:1060C0000348854600F0F2F800480047CD81010002
:1060D000783A0020401E00BF00BF00BF00BF00BFD5
:1060E00000BF00BF00BF00BF00BF00BF00BFF1D1B5
:1060F00070470000401E00BF00BF00BF00BF00BFD0
:1061000000BF00BF00BF00BF00BF00BF00BFF1D194
:1061100070470000401E00BF00BF00BF00BF00BFAF
:1061200000BF00BF00BF00BF00BF00BF00BFF1D174
:1061300070470000056885F3088846680A4AEFF34F
:1061400005839A42304602D1084CA6463047074C98
:10615000064D0646064FF0B4034C034D024E024F67
:10616000F0B404480047000000000000FFFFFFFFFC
:1061700000000021F9FFFFFF0321094802680A43DC
:106180000260084802680A430260074880470748DF
:106190000047FEE7FEE7FEE7FEE7FEE7FEE700005A
:1061A000240500405405004031640100C160010035
:1061B00030B50B46014600202022012409E00D469F
:1061C000D5409D4205D31D469540491B2546954027
:1061D00040191546521E002DF1DC30BD70B500246B
:1061E0002546002801DA01244042002901DA012570
:1061F0004942FFF7DDFFAC4200D04042002C00D006
:10620000494270BD03460B439B0703D009E008C910
:10621000121F08C0042AFAD203E00B780370401C56
:10622000491C521EF9D27047D2B201E00270401CE4
:10623000491EFBD270470022F6E710B513460A4606
:1062400004461946FFF7F0FF204610BDF0B51FB415
:106250000646002082B005464024019100901BE0D4
:10626000019922460F46304600F042F8049A059BF9
:10627000801A994110D310461946224600F028F89A
:10628000361A8F410197224601200021009F00F01D
:106290001FF838184D4100902046641E0028DFDCAE
:1062A000019B00982946324607B0F0BD064C0125F7
:1062B000064E05E0E36807CC2B430C3C98471034AE
:1062C000B442F7D3FFF700FF5CA301007CA30100F9
:1062D00010B5202A04DB0146203A9140002010BD71
:1062E000914020239C1A0346E3401943904010BD7F
:1062F00010B5202A04DB0846203AD040002110BD0A
:106300000B46D340D0402024A21A9140084319469E
:1063100010BD0000C206D20E01219140014A116059
:106320007047000080E200E0C206D20E01219140D9
:10633000014A11607047000000E100E0C206D20E81
:1063400001219140014A11607047000000E200E025
:1063500010B5002819DA1A4A03071B0F083B9B08DF
:106360009B00D2588307DC0EFF23A3409A438B0780
:106370001B0E8407E40EA3401A43114B0407240F9D
:10638000083CA408A4001A5118E00E4A03231B027B
:10639000D21883089B00D2588307DC0EFF23A3404A
:1063A0009A438B071B0E8407E40EA3401A43054B48
:1063B000032424021B198408A4001A5110BD0000F4
:1063C0001CED00E000E100E010B500200749086086
:1063D0000021064841608160C160002003494039C6
:1063E0000860486003F002FE10BD0000401101404B
:1063F00010B503F0ABFC10BD70B50C480068002868
:1064000010D00A4800688047044600BF2546002D8A
:1064100006D000BF00221146284600F079FB00BFDD
:1064200000BF01E001F0E8FC70BD0000FC2000208E
:1064300010B501F093FD002805D0074807494860D2
:10644000C8130749886101F06DFD002802D00120C2
:106450000449886010BD0000DFFF07C00005004050
:10646000006C0040000600400FB410B504A9074BB3
:1064700002AA039800F02AF8044602A9002000F0BE
:106480005FFA204610BC08BC04B0184741690100FF
:1064900030B47446641E2578641CAB4204D3635D3B
:1064A0005B00E31830BC18471D46F8E702E008C857
:1064B000121F08C1002AFAD170477047002001E07E
:1064C00001C1121F002AFBD170470000FFB591B037
:1064D0000F460546002606E025280AD0149A13998F
:1064E00090476D1C761C28780028F5D1304615B0F1
:1064F000F0BD002400940121F34A029400E004431B
:106500006D1C2B780846203B98401042F7D1287824
:106510002A280ED0022128780246303A092A15D8B6
:10652000009A0A235A43303A80180C436D1C00909D
:10653000F1E701CF0090002805DA01204003044371
:10654000009840420090022004436D1C28782E28B9
:1065500015D10420044368786D1C2A280AD101CF84
:106560006D1C02900BE002990A2251433039401809
:106570006D1C02902878014630390929F3D9287812
:106580006C2810D006DC4C281AD068280ED06A2857
:1065900017D104E0742813D07A2812D110E001201A
:1065A000400504430CE00121090501E00321090530
:1065B0000C436978814203D10120000524186D1C29
:1065C0006D1C287803906E281ED00CDC632831D017
:1065D00004DC00288AD0582811D1B2E064287BD08E
:1065E00069280CD178E073282DD004DC6F2870D096
:1065F000702804D1A7E075286CD078286BD0149A45
:1066000013999047761C62E06002400F022807D081
:1066100003280AD0042838680AD006603F1D56E0D7
:106620003868F11706604160F8E738680680F5E7DA
:106630000670F3E73878694608740020487404A8A7
:106640000390012003E0386803900020C0433F1D01
:1066500061070FD5002101E00199491C029A0191BF
:10666000914213DA8142F7DB019A0399895C002990
:10667000F2D10BE0002101E00199491C0191814216
:10668000FADB019A0399895C0029F5D101990098F8
:10669000139A401A00902146149B00F03BF901998F
:1066A0008019461807E0039803990078491C039164
:1066B000149A139990470198401E0190401CF2D102
:1066C0002146149B139A009800F014F986196D1C4A
:1066D00009E741E033E034E00A200021049005910D
:1066E0006002410F022905D001CFC2179446032949
:1066F00005D007E0FF1DFF08FF0003CF06E000B252
:10670000C2179446042902D140B2C1178C46002218
:106710006146944506DA0A460021404291418C4682
:106720002D2102E0210504D52B216A461176012195
:1067300003E0E10701D02021F7E7019154E00A20AE
:106740000BE0102009E010200490002104200443F5
:1067500008200591029003E0082000210591049093
:106760006002410F022905D001CF0022944603297F
:1067700006D006E0FF1DFF08FF0003CF8C4603E0B4
:1067800080B2042900D1C0B20021019121072BD58C
:106790000399702906D0049A1021059B4A401A4398
:1067A00005D00EE040216A461176012108E06146DD
:1067B000014306D030216A461176039951760221B1
:1067C0000191049A0821059B4A401A430CD1614665
:1067D000014301D1610707D530216A4611760121B5
:1067E00001910299491E02910399582904D037A1B9
:1067F00003910FA90F910DE039A1F9E76146059BBF
:10680000049AFFF723FD039B8C469B5C0F9A521E54
:106810000F92137061460143F0D10F9807A9081A2F
:1068200020300390600704D50120000484430298BF
:1068300001E0012002900399884201DD401A00E046
:10684000002041180290019809180098401A009001
:10685000E00306D42146149B139A009800F05AF8DE
:1068600086190020049008E006A9085C149A139980
:1068700090470498401C761C049001998842F3DBF1
:10688000E0030CD52146149B139A009800F042F8BF
:10689000861904E0149A302013999047761C0299C7
:1068A000481E02900029F5DC08E00F980F99007847
:1068B000491C0F91149A13999047761C0399481E0E
:1068C00003900029F1DCFBE6092801003031323366
:1068D000343536373839616263646566000000001C
:1068E0003031323334353637383941424344454606
:1068F00000000000F8B5044600251E46174688042F
:1069000004D405E039462020B0476D1C641EF9D53B
:106910002846F8BDFFB50446002581B01E46C803D1
:1069200001D5302700E02027880404D505E038464B
:106930000399B0476D1C641EF9D5284605B0F0BD1B
:106940000A68531C0B6010707047F8B504460F4678
:1069500016460025002030702078002809D03246E5
:106960003946204601F003FD0546002D01D028469A
:10697000F8BDA078002808D03146384600F08AFAE1
:106980000546002D01D02846F2E7A08800280ADD40
:1069900033463A460121201D03F0FFFB0546002D3A
:1069A00001D02846E4E7E06800280BD00020E16829
:1069B00008563246394603F0C9FB0546002D01D082
:1069C0002846D5E7208A00280CDD3B460622022116
:1069D00020461030009603F032FC0546002D01D011
:1069E0002846C5E7208B00280CDD3B460722032103
:1069F00020461830009603F022FC0546002D01D0F9
:106A00002846B5E7208C00280CDD3B4615221421D2
:106A100020462030009603F012FC0546002D01D0E0
:106A20002846A5E7A06A002809D032463946A06A60
:106A300000F0A6FE0546002D01D0284698E7E06A42
:106A4000002809D032463946E06A01F05BFC054671
:106A5000002D01D028468BE73420005D002809DD99
:106A600032463946204602F019FE0546002D01D077
:106A700028467DE728467BE701468888002808D01D
:106A80008868002805D08868007804221040002813
:106A900001D1072070470020FCE7000038B56846A8
:106AA00001F078FF044600BF2546002D06D000BF48
:106AB00000221146284600F02BF800BF00BF0098C6
:106AC000002802D0142001F0D3FC084873DF0446EC
:106AD00000BF2546002D06D000BF002211462846E3
:106AE00000F016F800BF00BF38BD000050210020A4
:106AF00070B574DF044600BF2546002D06D000BFE8
:106B000000221146284600F003F800BF00BF70BD08
:106B100000BFBFF34F8F04480449C860BFF34F8FD5
:106B200000BF00BFFEE700000400FA0500ED00E032
:106B3000F8B5044617480078142148431549091D43
:106B40000E5C081F0078142148431249091D4018A3
:106B50008068000110490D580E4800781421484300
:106B60000C49091D40184088091F0090097814221B
:106B70005143084A121D89180B69111F0978142204
:106B80005143044A121D89180846083022463146EE
:106B9000A847F8BD402B00200C2C0020F8B5054676
:106BA0000E461746052000901148007811490978D3
:106BB00088421BD00F480478007801F023FC0D496F
:106BC00008700D48008860430C4909684018286027
:106BD000E0000B490968401880883080E0000849CF
:106BE0000968085838600020009000BF0098F8BD80
:106BF000BD200020BC200020BE200020B8200020A6
:106C0000B42000200EB504E068468188009A0298FE
:106C100090476A4601A902A8FFF7C0FF0028F3D0F9
:106C20000EBD000030B50346481CC004040C1046DD
:106C30008507AD0F002D01D1012500E00025002DB5
:106C400001D1072030BD084802601019074D2860A7
:106C50000020074D2870074D28700748038007481B
:106C600001800020EEE70000B4200020B8200020C2
:106C7000BD200020BC200020BE200020C02000201D
:106C800070B503460C4619480068002801D1082059
:106C900070BD002A01D10720FAE7002B01D107209F
:106CA000F6E700211CE024204843104D2D68285CA5
:106CB000002814D10125242048430C4E3668355451
:106CC00024204843094D2D6840194470242048432E
:106CD000064D2D684019826119600020D8E7491CD3
:106CE000034800788142DEDB0420D1E7C820002081
:106CF000C4200020FFB581B00E4617461C46204632
:106D00008107890F002901D1012100E0002100291C
:106D100002D1072005B0F0BD002C01D10720F9E712
:106D200002F00AFA26490A980860264806702648A2
:106D3000046000250CE0002124206843224A1268E8
:106D4000115424206843204A1268801801756D1C74
:106D5000B542F0DB24207043041903201B4908705E
:106D60001B480460183400250CE0E900184A12683A
:106D700088180021017041708770446018217943A0
:106D80000C196D1C032DF0DB0020C0431149086075
:106D9000002011490870114908701420FFF7BAFA51
:106DA00003211420FFF7D4FA1420FFF7BDFA01984D
:106DB00002F098F902F090F9094908600020A9E76B
:106DC000E8200020C4200020C8200020CC20002083
:106DD000D0200020D4200020E4200020E520002046
:106DE000D8200020FEB504460D4616461648006819
:106DF000002801D10820FEBD14480078844201D249
:106E0000052D01D20720F6E7242060430E490968CA
:106E1000085C012801D00820EDE7242060430A49DE
:106E2000096840184078012801D1284600E0002078
:106E3000074603F0DBF93B462A46214600960190BF
:106E400003F08AF8D7E70000C8200020C420002003
:106E500070B504460D480068002801D1082070BDB7
:106E60000B480078844201D30720F8E724206043D0
:106E700006490968085C012801D00820EFE703F003
:106E8000B5F90546214603F091F8E8E7C82000204F
:106E9000C4200020F8B505460C462078001D1F28A8
:106EA00001DD0C20F8BD684679DF0646002E01D0D2
:106EB0003046F7E703212278501C2070A95419218D
:106EC0002278501C2070A954207841196846008807
:106ED00003F05AF92178401820700020E2E7000002
:106EE00070B500221921090408480068FFF77AFFED
:106EF000044600BF2546002D06D000BF00221146E3
:106F00002846FFF705FE00BF00BF70BD1C20002013
:106F100070B509480068FFF79BFF044600BF25468F
:106F2000002D06D000BF002211462846FFF7F0FDD5
:106F300000BF00BF70BD00001C20002070B50446DB
:106F4000042C01D1102400E04024002016494860A0
:106F500020020821084315494860012008601449AF
:106F60000860002013490860002501E0681CC5B2D4
:106F700010480068002801D1FF2DF7DB00200D49E3
:106F8000086001200A4948600020084908608968B3
:106F90004B22120151430846FF21FFF709F9410036
:106FA00040180549088070BD00730040007500401E
:106FB000007000400071004068200020F3B593B0DD
:106FC0000D460021129111911398002814D01398A6
:106FD000FFF752FD0446002C02D0204615B0F0BD4C
:106FE00012AA09A91398FFF7B0FC0446002C01D09F
:106FF0002046F3E709AE00E00026002D13D0284616
:1070000002F00AFD0446002C01D02046E6E711AA52
:1070100001A92846FFF799FC0446002C01D0204620
:10702000DCE701AF00E0002710A803793A46017AB7
:10703000304672DFD2E7000010B502480068FFF763
:1070400007FF10BD8420002070B586B004460E46B0
:10705000002C04D0002E02D07068002802D10E202F
:1070600006B070BD0020C0432080204B0FCB01AD87
:107070000FC51F4869468882163101A863DF05469F
:10708000002D01D02846EBE7221D05A90120A0DF35
:107090000546002D01D02846E2E76846807DA071B4
:1070A000204600F0C3FC0546002D01D02846D7E756
:1070B000204600F04BFC0546002D01D02846CFE7C6
:1070C0003146204600F01CFD0546002D01D0284623
:1070D000C6E77068A062B068002801D0B068E062BE
:1070E0000120044908700020BAE7000044A3010011
:1070F000301500008920002070B505460C46002D93
:1071000001D0002C00D170BDA86A00281FD02088B3
:10711000102806D011280ED0502807D0512814D19D
:107120000EE02146284601F005FB0FE021462846E7
:1071300001F00AFC0AE02146284601F0A5FB05E023
:107140002146284601F0A4FB00E000BF00BF00BFBD
:10715000D9E7000070B586B004460D461646002CEF
:1071600002D10E2006B070BD20881A49884203D093
:1071700019480078002801D10820F3E70021019187
:10718000102168468288501C83B2144801938154B0
:1071900068468188481C82B210480192455468466E
:1071A0008188481C82B20D4801924654002002900A
:1071B000039004900590218A684601810121817223
:1071C0000021818101A8049004480590208802A92B
:1071D000A6DFC7E7FFFF0000892000208A200020EB
:1071E00010B5044621460348FFF786FF204601F00C
:1071F0008BF910BDE4250020F8B500BF0023502214
:107200002249082002F0FEFA054600BF2E46002E55
:1072100006D000BF002211463046FFF779FC00BFC0
:1072200000BF00BF002000900090684660DF044669
:1072300000BF2546002D06D000BF0022114628467B
:10724000FFF766FC00BF00BF114802F0CFFA04460A
:1072500000BF2546002D06D000BF0022114628465B
:10726000FFF756FC00BF00BF0A4802F0FFFA0446D1
:1072700000BF2546002D06D000BF0022114628463B
:10728000FFF746FC00BF00BFF8BD00003429002016
:10729000E1710100759C010070B5214800688047CC
:1072A000B1203CDF044600BF2546002D06D000BFBC
:1072B000002211462846FFF72BFC00BF00BF11DF5C
:1072C000044600BF2546002D06D000BF002211460F
:1072D0002846FFF71DFC00BF00BF1249486913DFB5
:1072E000044600BF2546002D06D000BF00221146EF
:1072F0002846FFF70DFC00BF00BF0B4800780028B0
:1073000001D000F0E7FA162001218140074A116000
:1073100000BF00F0CFFD0349486900F009F870BDD7
:10732000F020002000100010F820002080E200E093
:1073300010B504462046FEF7FDFE10BD10B586B020
:10734000142005900024254800882549884242D011
:107350002448007800283ED000200190029003903D
:1073600004902148C18B68468180012181710021F0
:10737000018105A803902BE01C48007880001C497F
:107380004018049001A915480088A6DF0446194852
:10739000844204D0082C02D01748844200D118E05F
:1073A000002C06D000BF002211462046FFF7B0FB9C
:1073B0000EE00E480068FE2805D900200949087033
:1073C000FFF78EFD05E009480068401D0749086089
:1073D000D2E700BF00BF06B010BD000010200020A3
:1073E000FFFF000014200020102100203420002086
:1073F000902100200430000001340000F0B585B079
:107400000F2758480078142148435649091D44184D
:10741000E5682078022804D0042823D005286FD1FD
:107420006FE0206903905048008886026088801BC6
:107430000490039880190390A088801945190121B0
:1074400089020498884206D2049882082846039943
:1074500021DF074605E0FF2201322846039921DF9C
:10746000074676E0A0680001404940180089049072
:10747000A0680001401840890390A06800014018EE
:10748000406802900298A84205D1039904984843A5
:107490006188884202D0A06865280DD101200007CC
:1074A000006981B22846FEF783FE2F4909884618F5
:1074B000304620DF074622E001200007006981B244
:1074C0002846FEF775FE064601200007006980B2D7
:1074D0007043281A8008019001200007006980B2DB
:1074E000711C484361884919401A80080090314650
:1074F0002046009B019A02F097FA074600BF28E059
:1075000026E001200007006981B22846FEF750FE00
:107510000646A088411901200007006980B2704327
:10752000081A80080490A088401961884218012038
:107530000007006980B2711C4843801A80080390DC
:1075400031462046039B049A02F06EFA074600E09B
:1075500000BF00BF002F02D10120024988703846C9
:1075600005B0F0BD402B0020B02000200C2C0020E6
:1075700010B5002406484078002807DDFFF73EFFDD
:107580000446002C02D0112C00D10024204610BD4E
:10759000402B00200023142141430C4A5354142152
:1075A000414389184B8064231421414389188B601F
:1075B0000023142141438918CB60142141438918C9
:1075C0000B611421414389188B807047442B0020A4
:1075D000FFB581B0064617460024204840780A28A7
:1075E00037D01E4800781D4949784018C4B20A2C8B
:1075F00002DB20460A38C4B2142060431749091D33
:107600000E54142060434018076114206043411851
:10761000029805C8CA608860142060430F4A121D92
:107620008018049941801420604380180A99818051
:107630000025101F8078002805D1FFF7DFFE0546E2
:10764000112D00D1002505484078401C03494870A1
:1076500000E00425284605B0F0BD0000402B0020C6
:1076600010B50020084908800849087008490870CA
:1076700048708870002403E02046FFF78BFF641CED
:107680000A2CF9D310BD0000B0200020B320002048
:10769000402B0020FEB51E480068401C002834D056
:1076A0001B480068242148431A4909684018456866
:1076B00001F012FD0190184804682146019802F07B
:1076C000F3FAC61C15480078002801D101F016FD18
:1076D000AE4201D2284600E0304604192402240AB2
:1076E00020460F49086000BF01F0F6FC00900199A8
:1076F000009802F0D9FAC71C2046019902F0D4FA8A
:10770000874201D902F0C0FC01E001F015FDFEBD89
:10771000D4200020C8200020D8200020EC20002009
:107720004015014001460888062808DB0888192210
:10773000D201904205DD0888104A904201D007200E
:1077400070474888062808DB48881922D2019042F1
:1077500005DD4888094A904201D00720F0E70888F3
:10776000064A904208D04888904205D008884A8846
:10777000904201DD0720E3E70020E1E7FFFF000082
:10778000F8B506460D4614462078801D1F2801D9FD
:107790000C20F8BD3046FFF7C5FF0746002F01D08B
:1077A0003846F6E705212278501C2070A954122192
:1077B0002278501C2070A95422785119308802F088
:1077C000E3FC21784018207022785119708802F06B
:1077D000DBFC2178401820700020DAE710B5142176
:1077E0000648FEF728FD002004490870486008722A
:1077F0001920800108820020488210BD50210020FD
:1078000010B50446FFF79AFD10BD000010B51448EE
:107810004068C105C90D002920D00A46103A50B26F
:1078200000280DDA0E4B1C330407240F083CA40873
:10783000A4001B598407E40EE3401B069B0F0BE0DA
:10784000084B032424021B198408A4001B59840735
:10785000E40EE3401B069B0FD8B210BD0420FCE7EA
:1078600000ED00E000E100E0F8B506460C462078A7
:107870000300FEF70DFE0A060D0E0A0B0C10110F89
:107880001209FFF709FD1BE000BF00BF00BF00BFEA
:1078900000BF00BF00BF00BF00BF03220121304670
:1078A000FFF758FC054600BF2F46002F06D000BF4B
:1078B000002211463846FFF72BF900BF00BF00BF7A
:1078C00000BFF8BD70470000014908607047000024
:1078D000F020002030B587B001A91A4800F07CF9EB
:1078E000044600BF2546002D06D000BF00221146E9
:1078F0002846FFF70DF900BF00BF0598014610317B
:1079000007221148FEF77EFC14220F482438049900
:10791000FEF778FC10220C4810380599FEF772FC2F
:107920000948243800DF044600BF2546002D06D054
:1079300000BF002211462846FFF7EAF800BF00BF4B
:1079400007B030BDF42000207032002010B58EB09A
:1079500004461C2107A8FEF76EFC6846007F08213C
:107960008843411868460177007F102188434118F9
:1079700068460177002008900A900B900C900D90BB
:10798000A17968468171284981800020009000BF5C
:107990006846007801090901684601700078F02105
:1079A00088436946087000BF00BF684640780109F7
:1079B0000901491C684641704078F0218843103025
:1079C0006946487000BF6846807806218843811C5C
:1079D0006846817080780821884301466846817036
:1079E000807810218843411868468170807841086A
:1079F0004900491C68468170142102A8FEF71BFC4F
:107A000001A802906846039000210182418217215B
:107A1000818200200690A0882346103302AA07A97D
:107A2000A2DF0EB010BD00003115000010B58EB001
:107A300004461C2107A8FEF7FEFB6846007F0421D0
:107A40008843011D68460177002008900A900B903A
:107A50000C900D90A17968468171284981800020A1
:107A6000009000BF6846007801090901684601706E
:107A70000078F02188436946087000BF00BF68465F
:107A8000407801090901491C684641704078F0219D
:107A9000884310306946487000BF684680780621E8
:107AA0008843811C6846817080780821884301469C
:107AB000684681708078102188430146684681704D
:107AC000807841084900491C68468170142102A849
:107AD000FEF7B1FB01A802906846039000210182E5
:107AE00041821421818200200690A0882346083319
:107AF00002AA07A9A2DF0EB010BD000032150000D7
:107B000030B58FB004460D461C2108A8FEF793FB44
:107B100008A8007802218843811C08A80170002071
:107B200009900B900C900D900E90A179684681728F
:107B3000284901810020019000BF684600790109B1
:107B40000901491C684601710079F0218843103011
:107B50006946087100BF00BF684640790109090104
:107B6000684641714079F02188436946487100BFF9
:107B70006846807906218843811C68468171807936
:107B80000821884301466846817180791021884325
:107B9000014668468171807941084900491C684660
:107BA0008171142103A8FEF746FB02A8039001A8E7
:107BB00004900221684681820021C1820221018352
:107BC0000795A0882346203303AA08A9A2DF0FB097
:107BD00030BD000034150000024600BF2148007887
:107BE000002801D12048704700BF002A02D11E485A
:107BF000801DF8E7002902D11B48801DF3E700BF74
:107C00001078012806DA10780C235843174B1858BF
:107C1000002801D11448E6E700BF00BF907807288C
:107C200007DA90781C235843114BC018807EFF2838
:107C300002D10D480830D6E700BF507818235843CA
:107C40000C4BC018001DC86090781C235843084B8B
:107C5000C3180B6100234B610020486088600860F6
:107C600000BFC0E7A020002008800000342B0020C7
:107C7000342A0020F82A0020014614480078144ACB
:107C8000127890421DD011480078401C0F4A1070A5
:107C900010460078022801D1002010700B480078AF
:107CA00080000C4A105808600B4A08681268801857
:107CB000094A1060104600680002000A10600120A6
:107CC00070470020086000BFFAE70000E4200020B1
:107CD000E5200020DC200020D820002070B5049C86
:107CE000044E45683668B54202D10025024E357013
:107CF00070BD00005820002055200020F0B503463C
:107D0000002426E0164E366824277E43154F3F6830
:107D1000F01946689E4203D94668F61A46601DE08F
:107D200046689B1B466834190026466006750C4E53
:107D300035680B4F066A3E600669002E08D00E19A2
:107D40003602360A86600669C660166806621560E5
:107D500000BF03480068401C0028D3D100BFF0BD1D
:107D6000D4200020C820002070B58EB0054600BF8A
:107D700008A8007D01090901491C0D9108A8007D92
:107D8000F021884310300D9000BF05A871DF6846D0
:107D9000407D05A9897805AAD27805AB1B790193A6
:107DA00002920391049005A84079009005A8837978
:107DB0002A460BA107A8FEF757FB182207A90DA812
:107DC0007CDF044600BF2646002E06D000BF0022FE
:107DD00011463046FEF79CFE00BF00BF0EB070BDDE
:107DE0004353544E45545F2534733A2578257825FE
:107DF0007825782578257800F8B529480078002876
:107E000000D1F8BD27480068002801D1012000E01A
:107E10000020054624480068002801D1012000E028
:107E20000020064600BF002D14D1684651DF0446ED
:107E3000052C01D101250CE0002C06D000BF00224A
:107E400011462046FEF764FE03E0164900980968D3
:107E5000884700BF002E1AD1144800880090694658
:107E60001348006861DF0446052C01D101260DE0AE
:107E7000002C06D000BF002211462046FEF748FE27
:107E800004E00B48006808490968884700BF002DD6
:107E900002D0002E00D000E0C5E700BF00BFB0E771
:107EA000062100200C2100200821002004210020B0
:107EB0000021002010B500200A490A680FE00121C6
:107EC00081401140002909D041B2CC06E40E0123C3
:107ED000A340044C8034236000BF00BF401C202816
:107EE000EDD310BD00E100E0FEB504460220019094
:107EF000A08A6B4601AA0021A5DF0546002D07D008
:107F0000E06A002802D02846E16A88470020FEBDCA
:107F10006E46304602F032F90746F807C00F00BF40
:107F2000F5E700000C48008CC0B2012812D10A48C5
:107F3000808C0007000F00280CD10748806AF021D0
:107F40000840402806D10448C06A0840002801D1F2
:107F5000012070470020FCE7C00F00F01948008C9A
:107F6000C0B201282CD11748808C0007000F0028D0
:107F700026D11448806AF0210840002806D1114813
:107F8000C06A0840002801D1012070470D48806A6E
:107F9000F0210840102806D10A48C06A084000288D
:107FA00001D10120F1E70748806AF021084030281C
:107FB00006D10448C06A0840002801D10120E4E746
:107FC0000020E2E7C00F00F001468807800F00287C
:107FD00001D1012070470020FCE70000FEB52B48CE
:107FE000006801902A480078009040E00098C000A6
:107FF000284909684418257835E0182068436168E5
:108000000F18681CC5B2A078A84200D100253878A6
:10801000022802D0032823D10EE0242178684843A7
:108020001D4909684618307D002804D0786801F0A1
:108030002DFF0020307514E00CE01449096824225B
:108040005143154A12688818002101750F4A016AC8
:10805000116000BF0D480068401C0028EDD100E011
:1080600000BF00BF00BF6078A842C6D100BF009823
:10807000411EC9B200910028B8D104480168019896
:10808000814201D00120FEBD0020FCE7D420002069
:10809000CC200020D0200020C8200020FEB50746BC
:1080A00043480068029043480078019071E00198CD
:1080B000C00041490968451863E0781C002807D0D2
:1080C0003E46242070433D4909684418276A29E048
:1080D0002978182359436A6850182978491C29704F
:1080E0002978AA78914201D100212970466824217B
:1080F0007143324A12688C180178012902D1217D1E
:10810000002900D03DE08168A160C168E16001699B
:1081100021614169E1612A490978002901D00021E2
:10812000A16000BF2749A0680968401A0002000A40
:108130002549884208D22349A068096801F0B4FDA6
:10814000E1684018606011E01E48A168006801F015
:10815000ABFD0090E1680098814204D9E168009885
:10816000081A606001E00020606000BF0020A0608D
:10817000E06001202075801E2062304601F018FE6C
:1081800000BF781C002898D128786978884294D15B
:1081900000BF0198411EC9B20191002887D104484F
:1081A00001680298814201D00120FEBD0020FCE759
:1081B000D4200020CC200020D0200020C820002087
:1081C000ED200020D8200020FFFF7F000EB5002406
:1081D00003200521090707221202891808651420C7
:1081E00000F082F9142000F043F9002211461046F5
:1081F00001F048FB3749086037A0006800906B46E3
:108200006A4601213348006801F0BEFB334805216E
:108210000907072212028918486301F03BFFFEF7A5
:10822000EBFF01F09DF800F06BFC0121890268462C
:108230000181642141812A4801902A4901A800F066
:1082400047FD29480068FFF78FFD01F0A1F8FFF70F
:10825000C5FA00BF012000BF38212448FDF7EBFF1D
:1082600021480068006822490861224822490880A4
:10827000182088801E492048816001201B49888081
:108280001E491A4881601C481849C86200211748D5
:10829000FEF794FE044600BF2546002D06D000BF21
:1082A000002211462846FEF733FC00BF00BFFEF750
:1082B000F5FB00220121C90311480068FEF792FD79
:1082C000142000F009F900BFFEF79CFC00F051FB00
:1082D000FAE7000028200020B90000000303000096
:1082E000DD7C01005C20002044200020A02500202F
:1082F0007821002081580000D8250020402000204F
:1083000024200020F8B505460E4614462879801C26
:10831000C7B22078801CC0191F2801DD0C20F8BDD1
:10832000781CC1B22278501C2070B154FF212278F1
:10833000501C2070B15422789119288801F024FF34
:10834000217840182070A88800280EDDA868002831
:1083500001D10720E3E7AA8823789819A968FDF7D7
:1083600051FF20782979401820700020D7E7F7B511
:1083700084B004460F4606980678B01C1F2803DC1C
:108380006078801C1F2802DD0C2007B0F0BD1F2084
:10839000801B801E85B20295B11C781802A97DDF72
:1083A00003900398002801D00398EEE72078022874
:1083B00008D168460089A84204DC0920019068467B
:1083C00005890BE0082001906078002804D06078CF
:1083D000A84201DC657801E068460589681CC2B2E4
:1083E0003046711CCEB23A543046721CD6B2019956
:1083F000395406980178A81C0818C1B20698017073
:108400000020C2E7014604480088814201DA481C86
:1084100000E00020C0B27047C020002070B50646C2
:1084200011480068FEF714FD044600BF2546002DE4
:1084300006D000BF002211462846FEF769FB00BFA8
:1084400000BF13210948008876DF044600BF254697
:10845000002D06D000BF002211462846FEF758FB2B
:1084600000BF00BF70BD00001820002010200020B9
:1084700001B505E00098401E00900348FDF72AFE74
:1084800000980028F6D108BDE703000010B58A0067
:1084900005231B07072424021B1984001A5110BD51
:1084A00010B58A0005231B07072424021B1984002A
:1084B0001A5110BD03210522120707231B02D218EF
:1084C0008300D150704703210522120707231B02A6
:1084D000D2188300D150704701218140014AD160F8
:1084E000704700000005005001218140014A916061
:1084F000704700000005005001218140014A916051
:1085000070470000000500507FB50546002428880C
:1085100039287DD008DC01287BD010280BD0112809
:1085200078D0192877D1C4E0502875D0522874D05B
:108530005528F7D1C8E0A888744908801420FFF7AF
:10854000D3FFFEF7CDFC082168460181132141814C
:10855000042181812821C18102A96C48008875DF2E
:10856000044600BF2646002E06D000BF002211465A
:108570003046FEF7CDFA00BF00BF65490968080A1A
:108580006421FDF715FE63480160042000906248F5
:108590000088FF210902084000025F4909780906A6
:1085A000084301905D49C88801AB6A460021A4DFF9
:1085B0005B480088FF2109020840000258490978F9
:1085C0000906084301905549C88901AB6A46002154
:1085D000A4DF54480088FF210902084000025149E5
:1085E00009780906084301904C49C88A01AB6A46DC
:1085F0000021A4DF4C480068000E4B490968FF22A7
:1086000012041140090A084347490968121205E09B
:1086100059E038E03AE069E051E043E011400902F6
:108620000843414909780906084301903B49C88C31
:1086300001AB6A460021A4DF3C480068000E3B49BC
:108640000968FF2212041140090A084337490968E2
:1086500012121140090208433449097809060843F7
:1086600001902E49C88B01AB6A460021A4DF304837
:108670000068006801902949C88D01AB6A46002155
:10868000A4DF044633E0FEF759FE30E01420FFF784
:1086900023FF0020C0431D490880FEF739FCFEF788
:1086A000FDF924E00022114618480088A9DF04469D
:1086B0001DE0A879002801D1FEF7F0F917E028465F
:1086C00000F000F913E000BF13211048008876DFA6
:1086D000044600BF2646002E06D000BF00221146E9
:1086E0003046FEF715FA00BF00BF00E000BF00BF34
:1086F00000BF2646002E06D000BF0022114630469D
:10870000FEF706FA00BF00BF7FBD0000102000206A
:108710003420002064200020682000201021002048
:108720004C20002048200020502000203020002035
:10873000442000208A880280704770B588B00446C3
:108740000D460220694608742046FFF7CDFB00283D
:1087500008D1FF20FE3069468882208804A9A8DF5E
:1087600008B070BD002069468882208804A9A8DF6F
:108770000646002E01D03046F2E700BFA87E030077
:10878000FDF786FE0979061D343C444C715479008E
:10879000002069460871288B022805DAA97E062286
:1087A0002046FEF7D7FCDBE7012069460872284621
:1087B0001B30039001A92046A26A904761E0012086
:1087C00069460871288B022805DAA97E0622204610
:1087D000FEF7C0FCC4E701206946087228461B303A
:1087E000039001A92046A26A90474AE00220694608
:1087F000087101A92046A26A904742E00320694619
:10880000087101A92046A26A90473AE0042069460F
:10881000087101A92046A26A904732E00520694606
:10882000087101A92046A26A90472AE0288B0328F4
:1088300005DA032208212046FEF78CFC90E7284643
:108840001B3001F09BFC694608810889002802D191
:108850000720087102E006206946087101A9204638
:10886000A26A90470DE009206946087101A92046D7
:10887000A26A904705E0A97E03222046FEF76AFC23
:108880006EE700BF00206BE70022D24302807047F2
:10889000F8B504460E46B51D2878022811D168881F
:1088A000218A88420DD1A91C2046FFF746FF0746C2
:1088B000002F05D0E06A002802D03846E16A8847D8
:1088C00000BFF8BD7CB50546AC1D21881848408C1A
:1088D00081422CD1208B022829D100BF00BFA17E6C
:1088E000E27E120211430846C107C90F1148017008
:1088F000007800281BD0FEF70BFB00200E49086013
:108900000E4802880068401C0C4B91B26A46186001
:108910000B4800F055F800230122920269460948ED
:1089200000F060F9FEF70AFDFEF7DAFA00BF7CBD41
:10893000102100201420002034200020642000207A
:108940005C200020902100203EB505460C46E088C2
:10895000298988420CD1082168460170A17F0171E4
:1089600020462030029069462846AA6A904700BFF8
:108970003EBD70B540DF044600BF2546002D06D041
:1089800000BF002211462846FEF7C2F800BF00BF14
:1089900070BD0000014600BF07480078002801D1E3
:1089A0000820704700BF002901D10E20F9E70348D5
:1089B000407808600020F4E7B2200020402B00201F
:1089C0003CB5034600BF20480078002801D10820AC
:1089D0003CBD00BF002B01D10E20F9E7002A01D1D8
:1089E0000E20F5E71868642805D218680001174CB6
:1089F0002058002801D10720EAE75C681868019434
:108A00000090019C18680001104D401900894843EE
:108A100020180190009800012C4600194089009C04
:108A20002401641924896043009C2401641964684A
:108A30000019019CA04201D80720C9E7019C0098B9
:108A4000546010600020C3E7B22000200C2C0020EE
:108A5000F8B504460D4600BF27480078002801D12C
:108A60000820F8BD00BF002C01D10E20F9E72068D6
:108A7000642805D22068000120490858002801D147
:108A80000720EEE7206800011C4940184089216852
:108A900009011A4A89180989484321680901891876
:108AA000496840186168884201D80720D9E76068A2
:108AB000FFF78AFA002801D11020D2E723681B01B2
:108AC0000E4FDB1962685B68D01A226812013B46C0
:108AD000D2181189FDF76CFB002901D00720C0E7EF
:108AE00000202B460246214600900420FEF770FD30
:108AF00006463046B5E70000B22000200C2C0020CE
:108B000070B5FEF7ADFD00202E4908802E48406963
:108B1000401C002808D001221207126991B22A4A8B
:108B20005069FDF745FB02E0012000074069653808
:108B300001210907096989B24843244908600020D6
:108B40002349088000BF0DE000210201214B99500C
:108B50000201D21811810201D21891810201D218AA
:108B60005181401C6428EFD308201B490870164827
:108B70004069401C002808D001221207126991B2F6
:108B8000114A5069FDF714FB02E00120000740691B
:108B9000401E01210907096989B2484306460120A0
:108BA0000007006981B23046FDF702FB054620DF71
:108BB0000446002C04D10120084988700849087037
:108BC000204670BDA820002000100010AC2000201E
:108BD000B02000200C2C0020B3200020402B0020CF
:108BE000B2200020FFB581B00C4615461E4600BFDE
:108BF00035480078002802D1082005B0F0BD00BF3C
:108C0000002C01D10E20F8E70198002801D10E2098
:108C1000F3E72068642805D2206800012B49085832
:108C2000002801D10720E8E7206800012749401803
:108C3000408921680901254A891809894843216822
:108C400009018918496840186168884201D80720DD
:108C5000D3E7002D06D0206800011C494018008988
:108C6000A84201DA0720C8E7A81921680901174AB4
:108C700089180989884201DD0720BEE70198FFF7BE
:108C8000A3F9002804D03046FFF79EF9002801D14F
:108C90001020B2E76068FFF797F9002801D1102093
:108CA000ABE7606881192A460198FDF7ABFA009599
:108CB0002068000105490F58002203212046019B2E
:108CC000B847002099E70000B22000200C2C0020BB
:108CD000F8B504460D4600BF58480078002801D179
:108CE0000820F8BD00BF002C01D10E20F9E7002DAF
:108CF00001D10E20F5E72068002801D10E20F0E711
:108D0000A08801210907096989B2884202DCA0888C
:108D1000042801DA0720E4E7E088002830D048483A
:108D20004069401C002808D001221207126991B244
:108D3000434A5069FDF73CFA02E001200007406910
:108D4000401E01210907096989B24843E188A288C8
:108D500051433C4A12688918884211D3E088A1889F
:108D6000484301210907096989B288420ADDA188BF
:108D700001221207126990B2FDF730FA002901D0E2
:108D80000720AEE720798007800F002801D0072058
:108D9000A7E72D480088642801D10420A1E72A48CC
:108DA0000088286027480068686027490988090109
:108DB000264A89186868486023490988090120689B
:108DC0005050A08820490988090189180881E08845
:108DD0001D4909880901891848810027A688E1886A
:108DE0004E4300BF781C87B201200007006980B2A3
:108DF000B04205D201200007006980B2361A00E0B7
:108E0000002601200007006980B20E490968401859
:108E10000C49086001200007006980B2B042E1D926
:108E200009480088000109494018878106480088E0
:108E3000401C05490880002053E70000B2200020B4
:108E400000100010AC200020A82000200C2C0020D6
:108E5000F8B504460E4615461F4600BF2F48007859
:108E6000002801D10820F8BD00BF002E01D10E203E
:108E7000F9E7002C01D10E20F5E72068642805D21F
:108E80002068000126490858002801D10720EAE798
:108E90002068000122494018408921680901204AC0
:108EA00089180989484321680901891849684018C7
:108EB0006168884201D80720D5E7002D06D02068D8
:108EC0000001174940180089A84201DA0720CAE7C3
:108ED000E81921680901124A89180989884201DDC7
:108EE0000720C0E73046FFF76FF8002804D0384667
:108EF000FFF76AF8002801D11020B4E76068FFF797
:108F000063F8002801D11020ADE72B4632462146F8
:108F100002200097FEF75CFBA5E70000B2200020CE
:108F20000C2C0020FEB5054600265048807801280C
:108F30007ED100204D4988704D480078082811D115
:108F4000022D03D100204A49087002E0002049495F
:108F50000870FEF70DFB0646002E02D03046FDF7E6
:108F6000E7FDFEBD022D02D0032D79D174E03F480C
:108F70000078142148433D49091D44183E480088A3
:108F8000401C3D4908802078022807D10846008807
:108F900080026188884201DB012000E00020074652
:108FA0002078052805D132480078072801D1012012
:108FB00000E0002002902078042805D12C48007899
:108FC000072801D1012000E000200190207804282A
:108FD0000BD12948008880026188884205DB24483B
:108FE0000078002801D1012000E0002000900298C4
:108FF000002807D10198002804D10098002801D149
:10900000002F1FD000201A4908703046FDF790FD50
:1090100016490878FEF7BEFA002017490880134861
:109020004078401E1149487008460078401C00E016
:1090300019E00870084600780A2803DB0846007823
:109040000A380870FEF794FA0646002E02D0304621
:10905000FDF76EFD05E003E00D20FDF769FD00E082
:1090600000BF00BF00BF00BF7BE70000402B002017
:10907000B3200020B2200020B020002070B514489A
:1090800000881449884210D013211148008876DFE7
:10909000044600BF2546002D06D000BF0022114621
:1090A0002846FDF735FD00BF01E0FDF721FDFDF786
:1090B000C3FF044600BF2546002D06D000BF002296
:1090C00011462846FDF724FD00BF00BF70BD00001B
:1090D00010200020FFFF000001484068704700009A
:1090E0000015014010B50446034884600321112097
:1090F000FDF72EF910BD00000015014010B501204C
:1091000000040A4948600949403948601120FDF7C8
:1091100001F91120FDF708F90120054908602F2009
:10912000FCF7F8FF01200349087010BD401301400F
:1091300000100140EC20002010B5112001218140D9
:109140000E4A116000BF012000040D4988600C49DF
:109150004039886001200B4948602F20FCF7DAFF76
:109160000120084988600020074908602F20FCF78B
:10917000D1FF00200549087010BD000080E100E02B
:109180004013014000100140D8200020EC200020B6
:10919000F0B589B00024002008900025052165481D
:1091A0000068FDF705F8C0B2079004200690FDF7AF
:1091B000C5FE0D20FFF798F901205F49C863002024
:1091C0000C2302460A21009000F0AEFA0A20049017
:1091D00000205A4908805A4908805A4908800026C8
:1091E0004DE005A9042000F0D3FA002845D06846D8
:1091F000007D202801D1012008906846007D0011E3
:10920000032835D1012C04D0022C11D0032C2DD1F0
:109210001DE04A4800880005000C4849088068465F
:10922000007D0007000F09880843444908801EE0BC
:10923000434800880005000C414908806846007DCD
:109240000007000F098808433D4908800FE03D48AA
:1092500000880005000C3B4908806846007D000737
:10926000000F098808433749088000E000BF04E088
:109270000898002801D0601CC4B2701CC6B2322EFF
:10928000AFDB00202C49C8630D20FFF725F92E48DD
:1092900052DF052127480068FCF78AFF070A64218E
:1092A0003846FCF785FF0E4602AA2848FFF788FBE0
:1092B000274903984968884204D1254902980968DA
:1092C000884209D02248039A029906C001218902E6
:1092D00002A8FFF7BDFB0546079883000422154945
:1092E00002A8FFF7B5FD0546124800681949086055
:1092F00014480088888012480088C8800F48008879
:1093000008811548008848810F480068C86000211E
:109310001248FDF753FE054600BF2E46002E06D02C
:1093200000BF002211463046FDF7F2FB00BF00BF30
:1093300009B0F0BD30200020C02F004048200020A0
:109340004A2000204C200020502000205C200020DB
:10935000382000207821002068200020A02500204F
:1093600070B500BF094A0A210820FDF75BFC0446DE
:1093700000BF2546002D06D000BF0022114628461A
:10938000FDF7C6FB00BF00BF00BF70BD84290020F1
:1093900030B597B0142112A8FCF74DFF00BF10A8FC
:1093A000407D01090901491C10A84175407DF0214B
:1093B0008843103010A9487500BF00BF12A8807BF9
:1093C00000090001401C12A9887312A8807BF021BB
:1093D0008843103012A9887300BF00BF12A8C07B59
:1093E00000090001C87312A8C07BF021884312A9AC
:1093F000C87300BF00BF10A8007E01090901491C05
:1094000010A80176007EF0218843103010A908765C
:1094100000BF00BF0121684681749949018200BFE5
:10942000984A04A90120A0DF044600BF2546002D6C
:1094300006D000BF002211462846FDF769FB00BF99
:1094400000BF00200A9000BF08A8007A01090901A6
:10945000491C08A80172007AF0218843103008A93D
:10946000087200BF10A8417D08A84172807A0621C9
:109470008843811C08A881721C210BA8FCF7DBFE25
:1094800008A8007B02218843811C08A80173007B87
:1094900010218843411808A8017300200C900E90F9
:1094A0000F9008A8007BC006C00F002801D00AA8B2
:1094B00000E00020109000201190039012A8817B02
:1094C0006846017312A8C17B68464173807B062100
:1094D0008843811C68468173807B0821884301464C
:1094E00068468173807B10218843014668468173FA
:1094F000807B4108490068468173142105A8FCF768
:109500009AFE03A806900421684681830021C18346
:10951000042101840020099000BF01216846817464
:109520005949018200BF04A80590584988880B4614
:109530001E3305AA0BA9A2DF044608A8007B410838
:10954000490008A80173007B08218843014608A848
:109550000173007B10218843014608A80173007B3A
:10956000C006C00F002801D00AA800E0002010901B
:1095700000BF01216846817443491131018200BF57
:1095800004A80590414988888B1D05AA0BA9A2DF74
:10959000044600BF0121684681743B4914310182B1
:1095A00000BF04A80590394988880B460E3305AAE8
:1095B0000BA9A2DF044600BF01216846817432492D
:1095C0004231018200BF04A80590304988880B46CB
:1095D000163305AA0BA9A2DF044600BF0121684685
:1095E000817429491531018200BF04A805902749DB
:1095F00088880B46263305AA0BA9A2DF044600BFC4
:1096000001216846817420494531018200BF04A8C8
:1096100005901E4988880B462E3305AA0BA9A2DFA8
:10962000044600BF2546002D06D000BF002211468B
:109630002846FDF76DFA00BF00BF002000900190A2
:1096400002901348019000200290114801900120DF
:10965000694608800F48FDF7F7FC044600BF254621
:10966000002D06D000BF002211462846FDF750FA13
:1096700000BF00BF0848FEF727F917B030BD000053
:109680001118000012200020082A000010210020DC
:1096900069780100E42500207D900100FEB50746B1
:1096A0000E461446386B002801D10720FEBD00206D
:1096B000019032E0396B0C22019850430D18287943
:1096C000801CC0B200900098401CC1B22278501C8F
:1096D0002070B15416212278501C2070B154227889
:1096E0009119288800F050FD217840182070A88832
:1096F00000280EDDA868002801D10720D6E7AA8837
:1097000023789819A968FCF77DFD207829794018FD
:1097100020700198401CC0B201903420C15D0198B6
:109720008142C7DC0020C1E7F8B507460C46154664
:109730001E462046FEF7C7FE00213046FEF7B0FE6B
:109740001048C4604661069800280DD03846FEF7E0
:10975000BAFE00212846FEF7A3FE0A48056187608D
:10976000012008494031C8624F2000030549486282
:109770000420086001200449886008600020034933
:109780008860F8BD00250040002000400021004016
:1097900070B504460D4601260AE02046641E0028E6
:1097A00004DB7D20C000FCF7A5FC01E0002603E0FF
:1097B000074880680128F0D100BF002C05DB00209D
:1097C00003498860034880692870304670BD0000F6
:1097D000002100400025004070B506460C461546A5
:1097E00029462046C046C04670BD000001460029FB
:1097F00001D10E207047024801600020FAE7000006
:1098000008210020FFB581B00C4616461F46002CEB
:1098100002D1072005B0F0BD20468107890F00293D
:1098200001D1012100E00021002901D10720F1E749
:1098300009480460094806800948076009490198F9
:1098400010DF0546002D01D02846E3E70120064938
:109850000870162026DFDDE700210020042100200B
:10986000FC200020D9970100062100200146002994
:1098700001D10E207047024801600020FAE7000085
:109880000C210020F7B506460F46002E01D13C48BA
:1098900000E03C480446002E1FD10220FEF70AFEDD
:1098A0000120FEF707FE00210846FEF7EFFD1D2010
:1098B000FEF700FE022005210902611888600120E0
:1098C000052109026118C8600020052109026118FC
:1098D00008611D20FEF710FE1EE00220FEF7EAFDE3
:1098E0000120FEF7E7FD00210846FEF7CFFD1C2012
:1098F000FEF7E0FD022005210902611888600120C1
:10990000052109026118C8600020052109026118BB
:1099100008611C20FEF7F0FD012000070521090267
:1099200061184862002F06D0012F06D0022F06D002
:10993000032F08D105E0002507E0022505E00425F6
:1099400003E0062501E0002500BF00BF02980028C3
:1099500006D001202843052109026118486503E06B
:1099600005200002201845650021FF200930015123
:10997000012005210902611808602046FEBD000093
:109980000030004000400040FFB581B000270026B5
:10999000019D1F48019D854201D11D2400E01C242A
:1099A00000BF0120A0401B49C86000BF27E003980A
:1099B000805D052109026918C86100E07F1CFF2055
:1099C00009304059002803D1032000038742F5D312
:1099D00003200003874205D12046FEF78DFD0020BD
:1099E00005B0F0BD0021FF200930415105200002E3
:1099F00028188069C1B204988155701C86B20298FB
:109A00008642D4DB2046FEF777FD0120E8E7000020
:109A1000003000400005005001468888002801DD24
:109A2000072070470020FCE7FFB583B004460F46CF
:109A3000154603268D48007800280BD1002D06D14D
:109A40000698002803D102208849087002E001200E
:109A500086490870854800780300FCF719FD07FD6A
:109A600005314E84BAD7FD0081484069401C00286A
:109A700008D001221207126991B27D4A5069FCF7A1
:109A800097FB02E0012000074069401E0121090701
:109A9000096989B248430290012000070069000467
:109AA000820C01200007006980B2784301460298C9
:109AB00021DF0646002E02D102206C490870D0E05A
:109AC000384620DF0646002E16D1002D11D106980B
:109AD00000280AD12078042803D1072063490870A0
:109AE0000AE005206149087006E004205F4908701B
:109AF00002E003205D490870B3E05D484069401C06
:109B0000002808D001221207126991B2584A506900
:109B1000FCF74EFB02E0012000074069401E0121D6
:109B20000907096989B248430121090702900969B7
:109B300089B2794308462A46029921DF0646002E5B
:109B400010D1069800280AD12078042803D10620D5
:109B50004649087006E005204449087002E00420E8
:109B6000424908707DE042484069401C002808D006
:109B700001221207126991B23D4A5069FCF718FBA5
:109B800002E0012000074069401E01210907096920
:109B900089B24843A900401861884018012109078B
:109BA0000290096989B27943AA00891862888818E5
:109BB000069A029921DF0646002E09D12078042852
:109BC00003D106202949087002E0052027490870C2
:109BD00047E001200007006980B27843AB00C0185D
:109BE0000290608882082169029821DF0646002ED3
:109BF0000BD1002D06D10698002803D107201B4960
:109C0000087002E00620194908702AE018484069E7
:109C1000401C002808D001221207126991B2144A90
:109C20005069FCF7C5FA02E0012000074069401EB8
:109C300001210907096989B2484301900120000701
:109C4000006981B20198FCF7B3FA029020DF064662
:109C5000002E04D1072000E002E00449087000E073
:109C600000BF00BF304607B0F0BD0000B3200020A9
:109C70000010001010B504462046FFF753F9022CDF
:109C800002D0032C0BD100E00AE00648007800283F
:109C900004D0002003490870FCF700FF00E000BF7B
:109CA00000BF10BD542000200246501A0002000AD6
:109CB0007047000070B5064611490968491C104AF2
:109CC000084611600521FCF773FA002914D00C48EE
:109CD00000680C49086000210B48FDF76FF9044645
:109CE00000BF2546002D06D000BF002211462846A1
:109CF000FCF70EFF00BF02E00020FFF749FA70BD3D
:109D00003020002078210020A025002070B50446D6
:109D10000D480068002812D00B4AE169A06912685A
:109D20009047054600BF2E46002E06D000BF0022F9
:109D300011463046FCF7ECFE00BF00BF02E0A1690F
:109D4000E069884770BD0000E8200020FEB50020D3
:109D5000C043019010480468104807686846FDF742
:109D60008BFF0546FEF73AF90646002D05D001AAFD
:109D700021460098FDF7C2FF01260198FEF78EF9F3
:109D8000002800D00126002E02D03846FDF782FCC4
:109D9000002003490870FEBDD8200020D4200020F8
:109DA000ED20002010B51420FCF7C8FA10BD00000B
:109DB000F0B5024624205043324B1B68C11832488C
:109DC0000068401C002802D12F48026059E02E484C
:109DD0004B680068242460432A4C246800194068BA
:109DE000834217D82848006824235843254B1B6812
:109DF000C01840684B68C31A234800682424604395
:109E0000204C2468001943601F48006808621E48FF
:109E1000026036E04B681C4D2C6828680DE0242554
:109E20004543184E3668AD196D685B1B0446242502
:109E30004543144E3668AD19286A451C002D07D0DD
:109E4000242545430F4E3668AD196D689D42E6D313
:109E5000451C002D0CD0242545430A4E3668AD190B
:109E60006D68EE1A24254543064F3F68ED196E6074
:109E70004B60086224256543024E3668AD192A629C
:109E800000BFF0BDC8200020D420002070B50246DD
:109E90002C4C2168084609E0904200D109E00146B7
:109EA00024244443284D2D686419206A441C002C46
:109EB000F2D100BF441C002C00D170BD814217D1EB
:109EC000204C246824256C431F4D2D686419246A96
:109ED0001C4D2C602C462468641C002C08D10124E5
:109EE0001A4DAC6000241A4D2C600124194D2C70C1
:109EF00024244443144D2D68641963682424444386
:109F0000114D2D686419256A24244C430E4E366881
:109F1000A419256224244C430B4D2D686419206A32
:109F2000441C002C0CD024244443074D2D68641994
:109F30006468E51824244443034E3668A419656018
:109F400000BFBAE7D4200020C82000200010014044
:109F5000D8200020ED200020FFB581B005460E4638
:109F60001746E900104A12688818694600F04FF950
:109F70000446002C02D1042005B0F0BD0120207061
:109F80006660FFF7A9F8A060E760049820610A986E
:109F90006061E900044A12688818009900F04DF9E0
:109FA000FFF700FF0020E7E7D0200020F8B50446C7
:109FB0000E46E1000C4A12688818694600F027F93D
:109FC0000546002D01D10420F8BD022028706E60E6
:109FD000E100054A12688818009900F02EF9FFF791
:109FE000E1FE0020F0E70000D0200020F8B5204876
:109FF0000068401C00283AD00027FFF76DF804469F
:10A000001C4801682046FFF74FFE064618480568C1
:10A0100011E0242068431849096844186068B04278
:10A0200000D90BE06068361A6068C719256A2046B7
:10A03000FFF76CFE00BF681C0028EAD100BF0F4884
:10A0400000780F490978884209D10D480078401CF2
:10A05000C0B20B490870022801D1002008700848DE
:10A060000078800007490F50FFF79CFE00BFF8BD45
:10A07000D4200020D8200020C8200020E420002088
:10A08000E5200020DC20002010B51120FCF756F957
:10A0900010BD0000F8B500BF0020254B07220521A8
:10A0A0000090FCF727FE054600BF2E46002E06D086
:10A0B00000BF002211463046FCF72AFD00BF00BF5A
:10A0C00000BF1C4A01211C48FCF7DAFD044600BF12
:10A0D0002546002D06D000BF002211462846FCF779
:10A0E00017FD00BF00BF154A00211548FCF7C8FD49
:10A0F000044600BF2546002D06D000BF00221146B1
:10A100002846FCF705FD00BF00BF0E4A01210E489E
:10A11000FCF7B6FD044600BF2546002D06D000BF63
:10A12000002211462846FCF7F3FC00BF00BFF8BD33
:10A130001426002001780100182000201D84010051
:10A140001C200020B59C01002420002030B50346CF
:10A150001078C01C1F2801DD0C2030BD02241578AA
:10A16000681C10704C550A241578681C10704C55EA
:10A170001578681C10704B550020EEE701460878F2
:10A180004A7812021043704702460A70FF2000020C
:10A1900010400012487002207047F8B505460F467F
:10A1A00016461C466868002801D10720F8BD2078B3
:10A1B000801C298840181F2801DD0C20F6E728782C
:10A1C000401CC1B22278501C2070B1542178481C28
:10A1D000207077542A88237898196968FCF712F858
:10A1E00020782978401820700020DFE710B5FDF7AF
:10A1F0000DFB012802D0032804D101E0002403E074
:10A20000012401E0022400BF00BF204610BD70B54C
:10A2100002460B465078411C9078884200D10021BC
:10A220001078884201D1002070BD1960507818263E
:10A23000704355682C182046F6E741707047FFB50B
:10A2400081B0074615460A9E009602223846049BB6
:10A25000029900F014F80446002C02D0204605B004
:10A26000F0BD0096102229463846049B00F007F8FE
:10A270000446002C01D02046F1E70020EFE7FFB5AF
:10A2800087B006461D46109C002006902078059059
:10A29000002747E0B900706841180A8868460281C3
:10A2A00049884181002203A902A865DF049004982F
:10A2B000002802D004980BB0F0BD6846017B0998D5
:10A2C00081422ED10698002801D0002000E0022013
:10A2D000019020786946097B4118019808181F28C9
:10A2E00001DD0C20E7E70698002809D12078401C02
:10A2F00020702278511C08982170A85401200690E3
:10A300002078421903A902A865DF04900498002868
:10A3100001D00498CFE720786946097B4018207067
:10A3200000BF7F1C3088B842B4DC0698002806D0F5
:10A3300021780598401C081AC1B2059829540020BC
:10A34000B9E7000023D1BCEA5F782315DEEF1212D3
:10A350000000000035544D5F000000007CA30100A8
:10A360000020002010010000AC6401008CA401005A
:10A370001021002068190000BC64010000000000EA
:10A38000000000000000000000000000FFFF0000CF
:10A3900000000000000000000000000000000000BD
:10A3A00000000000000000000000000000000000AD
:10A3B0000000000000000000000000000600000097
:10A3C00054A3010000000000000000000000000095
:10A3D000000000000000000000000000000000007D
:10A3E00000000000000000000024F4000000000055
:10A3F000000000000000000000000000000000005D
:10A40000000000000000000000000000000000004C
:10A41000000000000000000000000000000000003C
:10A42000000000000000000000000000000000002C
:10A43000000000000000000000000000000000001C
:10A44000000000000000000000000000000000000C
:10A4500000000000000000000000000000000000FC
:10A46000000000000000000000000000C5780100AE
:10A4700000000000000000000000000000000000DC
:0CA48000000000000000000000000000D0
:04000005000160C1D5
:00000001FF
